{
  "_format": "hh-sol-artifact-1",
  "contractName": "ClipIt",
  "sourceName": "contracts/ClipIt.sol",
  "abi": [
    {
      "inputs": [],
      "stateMutability": "nonpayable",
      "type": "constructor"
    },
    {
      "anonymous": false,
      "inputs": [
        {
          "indexed": true,
          "internalType": "address",
          "name": "owner",
          "type": "address"
        },
        {
          "indexed": true,
          "internalType": "address",
          "name": "approved",
          "type": "address"
        },
        {
          "indexed": true,
          "internalType": "uint256",
          "name": "tokenId",
          "type": "uint256"
        }
      ],
      "name": "Approval",
      "type": "event"
    },
    {
      "anonymous": false,
      "inputs": [
        {
          "indexed": true,
          "internalType": "address",
          "name": "owner",
          "type": "address"
        },
        {
          "indexed": true,
          "internalType": "address",
          "name": "operator",
          "type": "address"
        },
        {
          "indexed": false,
          "internalType": "bool",
          "name": "approved",
          "type": "bool"
        }
      ],
      "name": "ApprovalForAll",
      "type": "event"
    },
    {
      "anonymous": false,
      "inputs": [
        {
          "indexed": true,
          "internalType": "address",
          "name": "from",
          "type": "address"
        },
        {
          "indexed": true,
          "internalType": "address",
          "name": "to",
          "type": "address"
        },
        {
          "indexed": true,
          "internalType": "uint256",
          "name": "tokenId",
          "type": "uint256"
        }
      ],
      "name": "Transfer",
      "type": "event"
    },
    {
      "inputs": [
        {
          "internalType": "address",
          "name": "to",
          "type": "address"
        },
        {
          "internalType": "uint256",
          "name": "tokenId",
          "type": "uint256"
        }
      ],
      "name": "approve",
      "outputs": [],
      "stateMutability": "nonpayable",
      "type": "function"
    },
    {
      "inputs": [
        {
          "internalType": "address",
          "name": "owner",
          "type": "address"
        }
      ],
      "name": "balanceOf",
      "outputs": [
        {
          "internalType": "uint256",
          "name": "",
          "type": "uint256"
        }
      ],
      "stateMutability": "view",
      "type": "function"
    },
    {
      "inputs": [
        {
          "internalType": "uint256",
          "name": "tokenId",
          "type": "uint256"
        }
      ],
      "name": "getApproved",
      "outputs": [
        {
          "internalType": "address",
          "name": "",
          "type": "address"
        }
      ],
      "stateMutability": "view",
      "type": "function"
    },
    {
      "inputs": [
        {
          "internalType": "address",
          "name": "owner",
          "type": "address"
        },
        {
          "internalType": "address",
          "name": "operator",
          "type": "address"
        }
      ],
      "name": "isApprovedForAll",
      "outputs": [
        {
          "internalType": "bool",
          "name": "",
          "type": "bool"
        }
      ],
      "stateMutability": "view",
      "type": "function"
    },
    {
      "inputs": [
        {
          "internalType": "address",
          "name": "_to",
          "type": "address"
        },
        {
          "internalType": "string",
          "name": "_cid",
          "type": "string"
        },
        {
          "internalType": "uint8",
          "name": "v",
          "type": "uint8"
        },
        {
          "internalType": "bytes32",
          "name": "r",
          "type": "bytes32"
        },
        {
          "internalType": "bytes32",
          "name": "s",
          "type": "bytes32"
        }
      ],
      "name": "mint",
      "outputs": [],
      "stateMutability": "nonpayable",
      "type": "function"
    },
    {
      "inputs": [],
      "name": "name",
      "outputs": [
        {
          "internalType": "string",
          "name": "",
          "type": "string"
        }
      ],
      "stateMutability": "view",
      "type": "function"
    },
    {
      "inputs": [],
      "name": "owner",
      "outputs": [
        {
          "internalType": "address",
          "name": "",
          "type": "address"
        }
      ],
      "stateMutability": "view",
      "type": "function"
    },
    {
      "inputs": [
        {
          "internalType": "uint256",
          "name": "tokenId",
          "type": "uint256"
        }
      ],
      "name": "ownerOf",
      "outputs": [
        {
          "internalType": "address",
          "name": "",
          "type": "address"
        }
      ],
      "stateMutability": "view",
      "type": "function"
    },
    {
      "inputs": [
        {
          "internalType": "address",
          "name": "from",
          "type": "address"
        },
        {
          "internalType": "address",
          "name": "to",
          "type": "address"
        },
        {
          "internalType": "uint256",
          "name": "tokenId",
          "type": "uint256"
        }
      ],
      "name": "safeTransferFrom",
      "outputs": [],
      "stateMutability": "nonpayable",
      "type": "function"
    },
    {
      "inputs": [
        {
          "internalType": "address",
          "name": "from",
          "type": "address"
        },
        {
          "internalType": "address",
          "name": "to",
          "type": "address"
        },
        {
          "internalType": "uint256",
          "name": "tokenId",
          "type": "uint256"
        },
        {
          "internalType": "bytes",
          "name": "_data",
          "type": "bytes"
        }
      ],
      "name": "safeTransferFrom",
      "outputs": [],
      "stateMutability": "nonpayable",
      "type": "function"
    },
    {
      "inputs": [
        {
          "internalType": "address",
          "name": "operator",
          "type": "address"
        },
        {
          "internalType": "bool",
          "name": "approved",
          "type": "bool"
        }
      ],
      "name": "setApprovalForAll",
      "outputs": [],
      "stateMutability": "nonpayable",
      "type": "function"
    },
    {
      "inputs": [
        {
          "internalType": "string",
          "name": "_uri",
          "type": "string"
        }
      ],
      "name": "setBaseURI",
      "outputs": [],
      "stateMutability": "nonpayable",
      "type": "function"
    },
    {
      "inputs": [
        {
          "internalType": "bytes4",
          "name": "interfaceId",
          "type": "bytes4"
        }
      ],
      "name": "supportsInterface",
      "outputs": [
        {
          "internalType": "bool",
          "name": "",
          "type": "bool"
        }
      ],
      "stateMutability": "view",
      "type": "function"
    },
    {
      "inputs": [],
      "name": "symbol",
      "outputs": [
        {
          "internalType": "string",
          "name": "",
          "type": "string"
        }
      ],
      "stateMutability": "view",
      "type": "function"
    },
    {
      "inputs": [
        {
          "internalType": "uint256",
          "name": "_tokenId",
          "type": "uint256"
        }
      ],
      "name": "tokenURI",
      "outputs": [
        {
          "internalType": "string",
          "name": "",
          "type": "string"
        }
      ],
      "stateMutability": "view",
      "type": "function"
    },
    {
      "inputs": [
        {
          "internalType": "address",
          "name": "from",
          "type": "address"
        },
        {
          "internalType": "address",
          "name": "to",
          "type": "address"
        },
        {
          "internalType": "uint256",
          "name": "tokenId",
          "type": "uint256"
        }
      ],
      "name": "transferFrom",
      "outputs": [],
      "stateMutability": "nonpayable",
      "type": "function"
    }
  ],
  "bytecode": "0x60806040523480156200001157600080fd5b50604080518082018252600681526510db1a5c125d60d21b6020808301918252835180850190945260048452630434c49560e41b9084015281519192916200005c91600091620000bf565b50805162000072906001906020840190620000bf565b505060408051808201909152600780825266697066733a2f2f60c81b6020909201918252620000a6925060069190620000bf565b50600780546001600160a01b03191633179055620001a2565b828054620000cd9062000165565b90600052602060002090601f016020900481019282620000f157600085556200013c565b82601f106200010c57805160ff19168380011785556200013c565b828001600101855582156200013c579182015b828111156200013c5782518255916020019190600101906200011f565b506200014a9291506200014e565b5090565b5b808211156200014a57600081556001016200014f565b600181811c908216806200017a57607f821691505b602082108114156200019c57634e487b7160e01b600052602260045260246000fd5b50919050565b6116f480620001b26000396000f3fe608060405234801561001057600080fd5b50600436106101005760003560e01c80636352211e11610097578063a22cb46511610066578063a22cb4651461021d578063b88d4fde14610230578063c87b56dd14610243578063e985e9c51461025657600080fd5b80636352211e146101ce57806370a08231146101e15780638da5cb5b1461020257806395d89b411461021557600080fd5b806323b872dd116100d357806323b872dd1461018257806342842e0e1461019557806355f804b3146101a85780635e5b7c18146101bb57600080fd5b806301ffc9a71461010557806306fdde031461012d578063081812fc14610142578063095ea7b31461016d575b600080fd5b61011861011336600461135b565b610292565b60405190151581526020015b60405180910390f35b6101356102e4565b604051610124919061152d565b6101556101503660046113c6565b610376565b6040516001600160a01b039091168152602001610124565b61018061017b366004611332565b610410565b005b6101806101903660046111cf565b610526565b6101806101a33660046111cf565b610557565b6101806101b6366004611393565b610572565b6101806101c93660046112bd565b6105e2565b6101556101dc3660046113c6565b61069b565b6101f46101ef366004611183565b610712565b604051908152602001610124565b600754610155906001600160a01b031681565b610135610799565b61018061022b366004611283565b6107a8565b61018061023e36600461120a565b61086d565b6101356102513660046113c6565b6108a5565b61011861026436600461119d565b6001600160a01b03918216600090815260056020908152604080832093909416825291909152205460ff1690565b60006001600160e01b031982166380ac58cd60e01b14806102c357506001600160e01b03198216635b5e139f60e01b145b806102de57506301ffc9a760e01b6001600160e01b03198316145b92915050565b6060600080546102f39061163e565b80601f016020809104026020016040519081016040528092919081815260200182805461031f9061163e565b801561036c5780601f106103415761010080835404028352916020019161036c565b820191906000526020600020905b81548152906001019060200180831161034f57829003601f168201915b5050505050905090565b6000818152600260205260408120546001600160a01b03166103f45760405162461bcd60e51b815260206004820152602c60248201527f4552433732313a20617070726f76656420717565727920666f72206e6f6e657860448201526b34b9ba32b73a103a37b5b2b760a11b60648201526084015b60405180910390fd5b506000908152600460205260409020546001600160a01b031690565b600061041b8261069b565b9050806001600160a01b0316836001600160a01b031614156104895760405162461bcd60e51b815260206004820152602160248201527f4552433732313a20617070726f76616c20746f2063757272656e74206f776e656044820152603960f91b60648201526084016103eb565b336001600160a01b03821614806104a557506104a58133610264565b6105175760405162461bcd60e51b815260206004820152603860248201527f4552433732313a20617070726f76652063616c6c6572206973206e6f74206f7760448201527f6e6572206e6f7220617070726f76656420666f7220616c6c000000000000000060648201526084016103eb565b610521838361094b565b505050565b61053033826109b9565b61054c5760405162461bcd60e51b81526004016103eb90611592565b610521838383610ab0565b6105218383836040518060200160405280600081525061086d565b6007546001600160a01b0316336001600160a01b0316146105cb5760405162461bcd60e51b815260206004820152601360248201527231b0b63632b91034b9903737ba1037bbb732b960691b60448201526064016103eb565b80516105de906006906020840190611032565b5050565b6105ef8486858585610c50565b61063b5760405162461bcd60e51b815260206004820152601b60248201527f61646472657373206e6f7420616c6c6f77656420746f206d696e74000000000060448201526064016103eb565b60008460405160200161064e919061152d565b6040516020818303038152906040528051906020012060001c90506106738682610d54565b6000818152600860209081526040909120865161069292880190611032565b50505050505050565b6000818152600260205260408120546001600160a01b0316806102de5760405162461bcd60e51b815260206004820152602960248201527f4552433732313a206f776e657220717565727920666f72206e6f6e657869737460448201526832b73a103a37b5b2b760b91b60648201526084016103eb565b60006001600160a01b03821661077d5760405162461bcd60e51b815260206004820152602a60248201527f4552433732313a2062616c616e636520717565727920666f7220746865207a65604482015269726f206164647265737360b01b60648201526084016103eb565b506001600160a01b031660009081526003602052604090205490565b6060600180546102f39061163e565b6001600160a01b0382163314156108015760405162461bcd60e51b815260206004820152601960248201527f4552433732313a20617070726f766520746f2063616c6c65720000000000000060448201526064016103eb565b3360008181526005602090815260408083206001600160a01b03871680855290835292819020805460ff191686151590811790915590519081529192917f17307eab39ab6107e8899845ad3d59bd9653f200f220920489ca2b5937696c31910160405180910390a35050565b61087733836109b9565b6108935760405162461bcd60e51b81526004016103eb90611592565b61089f84848484610d6e565b50505050565b6000818152600260205260409020546060906001600160a01b03166109035760405162461bcd60e51b81526020600482015260146024820152731d1bdad95b88191bd95cc81b9bdd08195e1a5cdd60621b60448201526064016103eb565b600061090d610da1565b90508060086000858152602001908152602001600020604051602001610934929190611441565b604051602081830303815290604052915050919050565b600081815260046020526040902080546001600160a01b0319166001600160a01b03841690811790915581906109808261069b565b6001600160a01b03167f8c5be1e5ebec7d5bd14f71427d1e84f3dd0314c0f7b2291e5b200ac8c7c3b92560405160405180910390a45050565b6000818152600260205260408120546001600160a01b0316610a325760405162461bcd60e51b815260206004820152602c60248201527f4552433732313a206f70657261746f7220717565727920666f72206e6f6e657860448201526b34b9ba32b73a103a37b5b2b760a11b60648201526084016103eb565b6000610a3d8361069b565b9050806001600160a01b0316846001600160a01b03161480610a785750836001600160a01b0316610a6d84610376565b6001600160a01b0316145b80610aa857506001600160a01b0380821660009081526005602090815260408083209388168352929052205460ff165b949350505050565b826001600160a01b0316610ac38261069b565b6001600160a01b031614610b2b5760405162461bcd60e51b815260206004820152602960248201527f4552433732313a207472616e73666572206f6620746f6b656e2074686174206960448201526839903737ba1037bbb760b91b60648201526084016103eb565b6001600160a01b038216610b8d5760405162461bcd60e51b8152602060048201526024808201527f4552433732313a207472616e7366657220746f20746865207a65726f206164646044820152637265737360e01b60648201526084016103eb565b610b9860008261094b565b6001600160a01b0383166000908152600360205260408120805460019290610bc19084906115fb565b90915550506001600160a01b0382166000908152600360205260408120805460019290610bef9084906115e3565b909155505060008181526002602052604080822080546001600160a01b0319166001600160a01b0386811691821790925591518493918716917fddf252ad1be2c89b69c2b068fc378daa952ba7f163c4a11628f55a4df523b3ef91a4505050565b6000808686604051602001610c6692919061140a565b604051602081830303815290604052805190602001209050600081604051602001610cbd91907f19457468657265756d205369676e6564204d6573736167653a0a3332000000008152601c810191909152603c0190565b60408051808303601f1901815282825280516020918201206007546000855291840180845281905260ff8a169284019290925260608301889052608083018790529092506001600160a01b03169060019060a0016020604051602081039080840390855afa158015610d33573d6000803e3d6000fd5b505050602060405103516001600160a01b0316149250505095945050505050565b6105de828260405180602001604052806000815250610db0565b610d79848484610ab0565b610d8584848484610de3565b61089f5760405162461bcd60e51b81526004016103eb90611540565b6060600680546102f39061163e565b610dba8383610ef0565b610dc76000848484610de3565b6105215760405162461bcd60e51b81526004016103eb90611540565b60006001600160a01b0384163b15610ee557604051630a85bd0160e11b81526001600160a01b0385169063150b7a0290610e279033908990889088906004016114f0565b602060405180830381600087803b158015610e4157600080fd5b505af1925050508015610e71575060408051601f3d908101601f19168201909252610e6e91810190611377565b60015b610ecb573d808015610e9f576040519150601f19603f3d011682016040523d82523d6000602084013e610ea4565b606091505b508051610ec35760405162461bcd60e51b81526004016103eb90611540565b805181602001fd5b6001600160e01b031916630a85bd0160e11b149050610aa8565b506001949350505050565b6001600160a01b038216610f465760405162461bcd60e51b815260206004820181905260248201527f4552433732313a206d696e7420746f20746865207a65726f206164647265737360448201526064016103eb565b6000818152600260205260409020546001600160a01b031615610fab5760405162461bcd60e51b815260206004820152601c60248201527f4552433732313a20746f6b656e20616c7265616479206d696e7465640000000060448201526064016103eb565b6001600160a01b0382166000908152600360205260408120805460019290610fd49084906115e3565b909155505060008181526002602052604080822080546001600160a01b0319166001600160a01b03861690811790915590518392907fddf252ad1be2c89b69c2b068fc378daa952ba7f163c4a11628f55a4df523b3ef908290a45050565b82805461103e9061163e565b90600052602060002090601f01602090048101928261106057600085556110a6565b82601f1061107957805160ff19168380011785556110a6565b828001600101855582156110a6579182015b828111156110a657825182559160200191906001019061108b565b506110b29291506110b6565b5090565b5b808211156110b257600081556001016110b7565b600067ffffffffffffffff808411156110e6576110e661168f565b604051601f8501601f19908116603f0116810190828211818310171561110e5761110e61168f565b8160405280935085815286868601111561112757600080fd5b858560208301376000602087830101525050509392505050565b80356001600160a01b038116811461115857600080fd5b919050565b600082601f83011261116d578081fd5b61117c838335602085016110cb565b9392505050565b600060208284031215611194578081fd5b61117c82611141565b600080604083850312156111af578081fd5b6111b883611141565b91506111c660208401611141565b90509250929050565b6000806000606084860312156111e3578081fd5b6111ec84611141565b92506111fa60208501611141565b9150604084013590509250925092565b6000806000806080858703121561121f578081fd5b61122885611141565b935061123660208601611141565b925060408501359150606085013567ffffffffffffffff811115611258578182fd5b8501601f81018713611268578182fd5b611277878235602084016110cb565b91505092959194509250565b60008060408385031215611295578182fd5b61129e83611141565b9150602083013580151581146112b2578182fd5b809150509250929050565b600080600080600060a086880312156112d4578081fd5b6112dd86611141565b9450602086013567ffffffffffffffff8111156112f8578182fd5b6113048882890161115d565b945050604086013560ff8116811461131a578182fd5b94979396509394606081013594506080013592915050565b60008060408385031215611344578182fd5b61134d83611141565b946020939093013593505050565b60006020828403121561136c578081fd5b813561117c816116a5565b600060208284031215611388578081fd5b815161117c816116a5565b6000602082840312156113a4578081fd5b813567ffffffffffffffff8111156113ba578182fd5b610aa88482850161115d565b6000602082840312156113d7578081fd5b5035919050565b600081518084526113f6816020860160208601611612565b601f01601f19169290920160200192915050565b6000835161141c818460208801611612565b60609390931b6bffffffffffffffffffffffff19169190920190815260140192915050565b6000835160206114548285838901611612565b8454918401918390600181811c908083168061147157607f831692505b85831081141561148f57634e487b7160e01b88526022600452602488fd5b8080156114a357600181146114b4576114e0565b60ff198516885283880195506114e0565b60008b815260209020895b858110156114d85781548a8201529084019088016114bf565b505083880195505b50939a9950505050505050505050565b6001600160a01b0385811682528416602082015260408101839052608060608201819052600090611523908301846113de565b9695505050505050565b60208152600061117c60208301846113de565b60208082526032908201527f4552433732313a207472616e7366657220746f206e6f6e20455243373231526560408201527131b2b4bb32b91034b6b83632b6b2b73a32b960711b606082015260800190565b60208082526031908201527f4552433732313a207472616e736665722063616c6c6572206973206e6f74206f6040820152701ddb995c881b9bdc88185c1c1c9bdd9959607a1b606082015260800190565b600082198211156115f6576115f6611679565b500190565b60008282101561160d5761160d611679565b500390565b60005b8381101561162d578181015183820152602001611615565b8381111561089f5750506000910152565b600181811c9082168061165257607f821691505b6020821081141561167357634e487b7160e01b600052602260045260246000fd5b50919050565b634e487b7160e01b600052601160045260246000fd5b634e487b7160e01b600052604160045260246000fd5b6001600160e01b0319811681146116bb57600080fd5b5056fea2646970667358221220d1d64347d9b344e1420ad846c52a226037020435bbe1328e225fcbcb640e653264736f6c63430008040033",
  "linkReferences": {},
  "deployedLinkReferences": {}
}