{
  "_format": "hh-sol-artifact-1",
  "contractName": "ClipIt",
  "sourceName": "contracts/ClipIt.sol",
  "abi": [
    {
      "inputs": [],
      "stateMutability": "nonpayable",
      "type": "constructor"
    },
    {
      "anonymous": false,
      "inputs": [
        {
          "indexed": true,
          "internalType": "address",
          "name": "owner",
          "type": "address"
        },
        {
          "indexed": true,
          "internalType": "address",
          "name": "approved",
          "type": "address"
        },
        {
          "indexed": true,
          "internalType": "uint256",
          "name": "tokenId",
          "type": "uint256"
        }
      ],
      "name": "Approval",
      "type": "event"
    },
    {
      "anonymous": false,
      "inputs": [
        {
          "indexed": true,
          "internalType": "address",
          "name": "owner",
          "type": "address"
        },
        {
          "indexed": true,
          "internalType": "address",
          "name": "operator",
          "type": "address"
        },
        {
          "indexed": false,
          "internalType": "bool",
          "name": "approved",
          "type": "bool"
        }
      ],
      "name": "ApprovalForAll",
      "type": "event"
    },
    {
      "anonymous": false,
      "inputs": [
        {
          "indexed": true,
          "internalType": "address",
          "name": "from",
          "type": "address"
        },
        {
          "indexed": true,
          "internalType": "address",
          "name": "to",
          "type": "address"
        },
        {
          "indexed": true,
          "internalType": "uint256",
          "name": "tokenId",
          "type": "uint256"
        }
      ],
      "name": "Transfer",
      "type": "event"
    },
    {
      "inputs": [
        {
          "internalType": "address",
          "name": "to",
          "type": "address"
        },
        {
          "internalType": "uint256",
          "name": "tokenId",
          "type": "uint256"
        }
      ],
      "name": "approve",
      "outputs": [],
      "stateMutability": "nonpayable",
      "type": "function"
    },
    {
      "inputs": [
        {
          "internalType": "address",
          "name": "owner",
          "type": "address"
        }
      ],
      "name": "balanceOf",
      "outputs": [
        {
          "internalType": "uint256",
          "name": "",
          "type": "uint256"
        }
      ],
      "stateMutability": "view",
      "type": "function"
    },
    {
      "inputs": [
        {
          "internalType": "uint256",
          "name": "tokenId",
          "type": "uint256"
        }
      ],
      "name": "getApproved",
      "outputs": [
        {
          "internalType": "address",
          "name": "",
          "type": "address"
        }
      ],
      "stateMutability": "view",
      "type": "function"
    },
    {
      "inputs": [
        {
          "internalType": "address",
          "name": "owner",
          "type": "address"
        },
        {
          "internalType": "address",
          "name": "operator",
          "type": "address"
        }
      ],
      "name": "isApprovedForAll",
      "outputs": [
        {
          "internalType": "bool",
          "name": "",
          "type": "bool"
        }
      ],
      "stateMutability": "view",
      "type": "function"
    },
    {
      "inputs": [
        {
          "internalType": "address",
          "name": "_to",
          "type": "address"
        },
        {
          "internalType": "string",
          "name": "_cid",
          "type": "string"
        }
      ],
      "name": "mint",
      "outputs": [],
      "stateMutability": "nonpayable",
      "type": "function"
    },
    {
      "inputs": [],
      "name": "name",
      "outputs": [
        {
          "internalType": "string",
          "name": "",
          "type": "string"
        }
      ],
      "stateMutability": "view",
      "type": "function"
    },
    {
      "inputs": [],
      "name": "owner",
      "outputs": [
        {
          "internalType": "address",
          "name": "",
          "type": "address"
        }
      ],
      "stateMutability": "view",
      "type": "function"
    },
    {
      "inputs": [
        {
          "internalType": "uint256",
          "name": "tokenId",
          "type": "uint256"
        }
      ],
      "name": "ownerOf",
      "outputs": [
        {
          "internalType": "address",
          "name": "",
          "type": "address"
        }
      ],
      "stateMutability": "view",
      "type": "function"
    },
    {
      "inputs": [
        {
          "internalType": "address",
          "name": "from",
          "type": "address"
        },
        {
          "internalType": "address",
          "name": "to",
          "type": "address"
        },
        {
          "internalType": "uint256",
          "name": "tokenId",
          "type": "uint256"
        }
      ],
      "name": "safeTransferFrom",
      "outputs": [],
      "stateMutability": "nonpayable",
      "type": "function"
    },
    {
      "inputs": [
        {
          "internalType": "address",
          "name": "from",
          "type": "address"
        },
        {
          "internalType": "address",
          "name": "to",
          "type": "address"
        },
        {
          "internalType": "uint256",
          "name": "tokenId",
          "type": "uint256"
        },
        {
          "internalType": "bytes",
          "name": "_data",
          "type": "bytes"
        }
      ],
      "name": "safeTransferFrom",
      "outputs": [],
      "stateMutability": "nonpayable",
      "type": "function"
    },
    {
      "inputs": [
        {
          "internalType": "address",
          "name": "operator",
          "type": "address"
        },
        {
          "internalType": "bool",
          "name": "approved",
          "type": "bool"
        }
      ],
      "name": "setApprovalForAll",
      "outputs": [],
      "stateMutability": "nonpayable",
      "type": "function"
    },
    {
      "inputs": [
        {
          "internalType": "string",
          "name": "_uri",
          "type": "string"
        }
      ],
      "name": "setBaseURI",
      "outputs": [],
      "stateMutability": "nonpayable",
      "type": "function"
    },
    {
      "inputs": [
        {
          "internalType": "bytes4",
          "name": "interfaceId",
          "type": "bytes4"
        }
      ],
      "name": "supportsInterface",
      "outputs": [
        {
          "internalType": "bool",
          "name": "",
          "type": "bool"
        }
      ],
      "stateMutability": "view",
      "type": "function"
    },
    {
      "inputs": [],
      "name": "symbol",
      "outputs": [
        {
          "internalType": "string",
          "name": "",
          "type": "string"
        }
      ],
      "stateMutability": "view",
      "type": "function"
    },
    {
      "inputs": [
        {
          "internalType": "uint256",
          "name": "_tokenId",
          "type": "uint256"
        }
      ],
      "name": "tokenURI",
      "outputs": [
        {
          "internalType": "string",
          "name": "",
          "type": "string"
        }
      ],
      "stateMutability": "view",
      "type": "function"
    },
    {
      "inputs": [
        {
          "internalType": "address",
          "name": "from",
          "type": "address"
        },
        {
          "internalType": "address",
          "name": "to",
          "type": "address"
        },
        {
          "internalType": "uint256",
          "name": "tokenId",
          "type": "uint256"
        }
      ],
      "name": "transferFrom",
      "outputs": [],
      "stateMutability": "nonpayable",
      "type": "function"
    }
  ],
  "bytecode": "0x60806040523480156200001157600080fd5b50604080518082018252600681526510db1a5c125d60d21b6020808301918252835180850190945260048452630434c49560e41b9084015281519192916200005c91600091620000bf565b50805162000072906001906020840190620000bf565b505060408051808201909152600780825266697066733a2f2f60c81b6020909201918252620000a6925060069190620000bf565b50600780546001600160a01b03191633179055620001a2565b828054620000cd9062000165565b90600052602060002090601f016020900481019282620000f157600085556200013c565b82601f106200010c57805160ff19168380011785556200013c565b828001600101855582156200013c579182015b828111156200013c5782518255916020019190600101906200011f565b506200014a9291506200014e565b5090565b5b808211156200014a57600081556001016200014f565b600181811c908216806200017a57607f821691505b602082108114156200019c57634e487b7160e01b600052602260045260246000fd5b50919050565b61152e80620001b26000396000f3fe608060405234801561001057600080fd5b50600436106101005760003560e01c806370a0823111610097578063b88d4fde11610066578063b88d4fde1461021d578063c87b56dd14610230578063d0def52114610243578063e985e9c51461025657600080fd5b806370a08231146101ce5780638da5cb5b146101ef57806395d89b4114610202578063a22cb4651461020a57600080fd5b806323b872dd116100d357806323b872dd1461018257806342842e0e1461019557806355f804b3146101a85780636352211e146101bb57600080fd5b806301ffc9a71461010557806306fdde031461012d578063081812fc14610142578063095ea7b31461016d575b600080fd5b6101186101133660046111cc565b610292565b60405190151581526020015b60405180910390f35b6101356102e4565b6040516101249190611367565b610155610150366004611237565b610376565b6040516001600160a01b039091168152602001610124565b61018061017b3660046111a3565b610410565b005b610180610190366004611069565b610526565b6101806101a3366004611069565b610557565b6101806101b6366004611204565b610572565b6101556101c9366004611237565b6105e2565b6101e16101dc36600461101d565b610659565b604051908152602001610124565b600754610155906001600160a01b031681565b6101356106e0565b61018061021836600461111d565b6106ef565b61018061022b3660046110a4565b6107b4565b61013561023e366004611237565b6107ec565b610180610251366004611157565b610892565b610118610264366004611037565b6001600160a01b03918216600090815260056020908152604080832093909416825291909152205460ff1690565b60006001600160e01b031982166380ac58cd60e01b14806102c357506001600160e01b03198216635b5e139f60e01b145b806102de57506301ffc9a760e01b6001600160e01b03198316145b92915050565b6060600080546102f390611478565b80601f016020809104026020016040519081016040528092919081815260200182805461031f90611478565b801561036c5780601f106103415761010080835404028352916020019161036c565b820191906000526020600020905b81548152906001019060200180831161034f57829003601f168201915b5050505050905090565b6000818152600260205260408120546001600160a01b03166103f45760405162461bcd60e51b815260206004820152602c60248201527f4552433732313a20617070726f76656420717565727920666f72206e6f6e657860448201526b34b9ba32b73a103a37b5b2b760a11b60648201526084015b60405180910390fd5b506000908152600460205260409020546001600160a01b031690565b600061041b826105e2565b9050806001600160a01b0316836001600160a01b031614156104895760405162461bcd60e51b815260206004820152602160248201527f4552433732313a20617070726f76616c20746f2063757272656e74206f776e656044820152603960f91b60648201526084016103eb565b336001600160a01b03821614806104a557506104a58133610264565b6105175760405162461bcd60e51b815260206004820152603860248201527f4552433732313a20617070726f76652063616c6c6572206973206e6f74206f7760448201527f6e6572206e6f7220617070726f76656420666f7220616c6c000000000000000060648201526084016103eb565b61052183836108e9565b505050565b6105303382610957565b61054c5760405162461bcd60e51b81526004016103eb906113cc565b610521838383610a4e565b610521838383604051806020016040528060008152506107b4565b6007546001600160a01b0316336001600160a01b0316146105cb5760405162461bcd60e51b815260206004820152601360248201527231b0b63632b91034b9903737ba1037bbb732b960691b60448201526064016103eb565b80516105de906006906020840190610ecc565b5050565b6000818152600260205260408120546001600160a01b0316806102de5760405162461bcd60e51b815260206004820152602960248201527f4552433732313a206f776e657220717565727920666f72206e6f6e657869737460448201526832b73a103a37b5b2b760b91b60648201526084016103eb565b60006001600160a01b0382166106c45760405162461bcd60e51b815260206004820152602a60248201527f4552433732313a2062616c616e636520717565727920666f7220746865207a65604482015269726f206164647265737360b01b60648201526084016103eb565b506001600160a01b031660009081526003602052604090205490565b6060600180546102f390611478565b6001600160a01b0382163314156107485760405162461bcd60e51b815260206004820152601960248201527f4552433732313a20617070726f766520746f2063616c6c65720000000000000060448201526064016103eb565b3360008181526005602090815260408083206001600160a01b03871680855290835292819020805460ff191686151590811790915590519081529192917f17307eab39ab6107e8899845ad3d59bd9653f200f220920489ca2b5937696c31910160405180910390a35050565b6107be3383610957565b6107da5760405162461bcd60e51b81526004016103eb906113cc565b6107e684848484610bee565b50505050565b6000818152600260205260409020546060906001600160a01b031661084a5760405162461bcd60e51b81526020600482015260146024820152731d1bdad95b88191bd95cc81b9bdd08195e1a5cdd60621b60448201526064016103eb565b6000610854610c21565b9050806008600085815260200190815260200160002060405160200161087b92919061127b565b604051602081830303815290604052915050919050565b6000816040516020016108a59190611367565b6040516020818303038152906040528051906020012060001c90506108ca8382610c30565b600081815260086020908152604090912083516107e692850190610ecc565b600081815260046020526040902080546001600160a01b0319166001600160a01b038416908117909155819061091e826105e2565b6001600160a01b03167f8c5be1e5ebec7d5bd14f71427d1e84f3dd0314c0f7b2291e5b200ac8c7c3b92560405160405180910390a45050565b6000818152600260205260408120546001600160a01b03166109d05760405162461bcd60e51b815260206004820152602c60248201527f4552433732313a206f70657261746f7220717565727920666f72206e6f6e657860448201526b34b9ba32b73a103a37b5b2b760a11b60648201526084016103eb565b60006109db836105e2565b9050806001600160a01b0316846001600160a01b03161480610a165750836001600160a01b0316610a0b84610376565b6001600160a01b0316145b80610a4657506001600160a01b0380821660009081526005602090815260408083209388168352929052205460ff165b949350505050565b826001600160a01b0316610a61826105e2565b6001600160a01b031614610ac95760405162461bcd60e51b815260206004820152602960248201527f4552433732313a207472616e73666572206f6620746f6b656e2074686174206960448201526839903737ba1037bbb760b91b60648201526084016103eb565b6001600160a01b038216610b2b5760405162461bcd60e51b8152602060048201526024808201527f4552433732313a207472616e7366657220746f20746865207a65726f206164646044820152637265737360e01b60648201526084016103eb565b610b366000826108e9565b6001600160a01b0383166000908152600360205260408120805460019290610b5f908490611435565b90915550506001600160a01b0382166000908152600360205260408120805460019290610b8d90849061141d565b909155505060008181526002602052604080822080546001600160a01b0319166001600160a01b0386811691821790925591518493918716917fddf252ad1be2c89b69c2b068fc378daa952ba7f163c4a11628f55a4df523b3ef91a4505050565b610bf9848484610a4e565b610c0584848484610c4a565b6107e65760405162461bcd60e51b81526004016103eb9061137a565b6060600680546102f390611478565b6105de828260405180602001604052806000815250610d57565b60006001600160a01b0384163b15610d4c57604051630a85bd0160e11b81526001600160a01b0385169063150b7a0290610c8e90339089908890889060040161132a565b602060405180830381600087803b158015610ca857600080fd5b505af1925050508015610cd8575060408051601f3d908101601f19168201909252610cd5918101906111e8565b60015b610d32573d808015610d06576040519150601f19603f3d011682016040523d82523d6000602084013e610d0b565b606091505b508051610d2a5760405162461bcd60e51b81526004016103eb9061137a565b805181602001fd5b6001600160e01b031916630a85bd0160e11b149050610a46565b506001949350505050565b610d618383610d8a565b610d6e6000848484610c4a565b6105215760405162461bcd60e51b81526004016103eb9061137a565b6001600160a01b038216610de05760405162461bcd60e51b815260206004820181905260248201527f4552433732313a206d696e7420746f20746865207a65726f206164647265737360448201526064016103eb565b6000818152600260205260409020546001600160a01b031615610e455760405162461bcd60e51b815260206004820152601c60248201527f4552433732313a20746f6b656e20616c7265616479206d696e7465640000000060448201526064016103eb565b6001600160a01b0382166000908152600360205260408120805460019290610e6e90849061141d565b909155505060008181526002602052604080822080546001600160a01b0319166001600160a01b03861690811790915590518392907fddf252ad1be2c89b69c2b068fc378daa952ba7f163c4a11628f55a4df523b3ef908290a45050565b828054610ed890611478565b90600052602060002090601f016020900481019282610efa5760008555610f40565b82601f10610f1357805160ff1916838001178555610f40565b82800160010185558215610f40579182015b82811115610f40578251825591602001919060010190610f25565b50610f4c929150610f50565b5090565b5b80821115610f4c5760008155600101610f51565b600067ffffffffffffffff80841115610f8057610f806114c9565b604051601f8501601f19908116603f01168101908282118183101715610fa857610fa86114c9565b81604052809350858152868686011115610fc157600080fd5b858560208301376000602087830101525050509392505050565b80356001600160a01b0381168114610ff257600080fd5b919050565b600082601f830112611007578081fd5b61101683833560208501610f65565b9392505050565b60006020828403121561102e578081fd5b61101682610fdb565b60008060408385031215611049578081fd5b61105283610fdb565b915061106060208401610fdb565b90509250929050565b60008060006060848603121561107d578081fd5b61108684610fdb565b925061109460208501610fdb565b9150604084013590509250925092565b600080600080608085870312156110b9578081fd5b6110c285610fdb565b93506110d060208601610fdb565b925060408501359150606085013567ffffffffffffffff8111156110f2578182fd5b8501601f81018713611102578182fd5b61111187823560208401610f65565b91505092959194509250565b6000806040838503121561112f578182fd5b61113883610fdb565b91506020830135801515811461114c578182fd5b809150509250929050565b60008060408385031215611169578182fd5b61117283610fdb565b9150602083013567ffffffffffffffff81111561118d578182fd5b61119985828601610ff7565b9150509250929050565b600080604083850312156111b5578182fd5b6111be83610fdb565b946020939093013593505050565b6000602082840312156111dd578081fd5b8135611016816114df565b6000602082840312156111f9578081fd5b8151611016816114df565b600060208284031215611215578081fd5b813567ffffffffffffffff81111561122b578182fd5b610a4684828501610ff7565b600060208284031215611248578081fd5b5035919050565b6000815180845261126781602086016020860161144c565b601f01601f19169290920160200192915050565b60008351602061128e828583890161144c565b8454918401918390600181811c90808316806112ab57607f831692505b8583108114156112c957634e487b7160e01b88526022600452602488fd5b8080156112dd57600181146112ee5761131a565b60ff1985168852838801955061131a565b60008b815260209020895b858110156113125781548a8201529084019088016112f9565b505083880195505b50939a9950505050505050505050565b6001600160a01b038581168252841660208201526040810183905260806060820181905260009061135d9083018461124f565b9695505050505050565b602081526000611016602083018461124f565b60208082526032908201527f4552433732313a207472616e7366657220746f206e6f6e20455243373231526560408201527131b2b4bb32b91034b6b83632b6b2b73a32b960711b606082015260800190565b60208082526031908201527f4552433732313a207472616e736665722063616c6c6572206973206e6f74206f6040820152701ddb995c881b9bdc88185c1c1c9bdd9959607a1b606082015260800190565b60008219821115611430576114306114b3565b500190565b600082821015611447576114476114b3565b500390565b60005b8381101561146757818101518382015260200161144f565b838111156107e65750506000910152565b600181811c9082168061148c57607f821691505b602082108114156114ad57634e487b7160e01b600052602260045260246000fd5b50919050565b634e487b7160e01b600052601160045260246000fd5b634e487b7160e01b600052604160045260246000fd5b6001600160e01b0319811681146114f557600080fd5b5056fea26469706673582212205ac8b40c82a99d6fcdc2c037d4d5240d3a4d465ac092dd2c231c53808d9b393f64736f6c63430008040033",
  "linkReferences": {},
  "deployedLinkReferences": {}
}