{
  "_format": "hh-sol-artifact-1",
  "contractName": "ClipIt",
  "sourceName": "contracts/ClipIt.sol",
  "abi": [
    {
      "inputs": [],
      "stateMutability": "nonpayable",
      "type": "constructor"
    },
    {
      "anonymous": false,
      "inputs": [
        {
          "indexed": true,
          "internalType": "address",
          "name": "owner",
          "type": "address"
        },
        {
          "indexed": true,
          "internalType": "address",
          "name": "approved",
          "type": "address"
        },
        {
          "indexed": true,
          "internalType": "uint256",
          "name": "tokenId",
          "type": "uint256"
        }
      ],
      "name": "Approval",
      "type": "event"
    },
    {
      "anonymous": false,
      "inputs": [
        {
          "indexed": true,
          "internalType": "address",
          "name": "owner",
          "type": "address"
        },
        {
          "indexed": true,
          "internalType": "address",
          "name": "operator",
          "type": "address"
        },
        {
          "indexed": false,
          "internalType": "bool",
          "name": "approved",
          "type": "bool"
        }
      ],
      "name": "ApprovalForAll",
      "type": "event"
    },
    {
      "anonymous": false,
      "inputs": [
        {
          "indexed": true,
          "internalType": "address",
          "name": "from",
          "type": "address"
        },
        {
          "indexed": true,
          "internalType": "address",
          "name": "to",
          "type": "address"
        },
        {
          "indexed": true,
          "internalType": "uint256",
          "name": "tokenId",
          "type": "uint256"
        }
      ],
      "name": "Transfer",
      "type": "event"
    },
    {
      "inputs": [
        {
          "internalType": "address",
          "name": "_to",
          "type": "address"
        },
        {
          "internalType": "string",
          "name": "_cid",
          "type": "string"
        }
      ],
      "name": "allowMint",
      "outputs": [],
      "stateMutability": "nonpayable",
      "type": "function"
    },
    {
      "inputs": [
        {
          "internalType": "address",
          "name": "to",
          "type": "address"
        },
        {
          "internalType": "uint256",
          "name": "tokenId",
          "type": "uint256"
        }
      ],
      "name": "approve",
      "outputs": [],
      "stateMutability": "nonpayable",
      "type": "function"
    },
    {
      "inputs": [
        {
          "internalType": "address",
          "name": "owner",
          "type": "address"
        }
      ],
      "name": "balanceOf",
      "outputs": [
        {
          "internalType": "uint256",
          "name": "",
          "type": "uint256"
        }
      ],
      "stateMutability": "view",
      "type": "function"
    },
    {
      "inputs": [
        {
          "internalType": "address",
          "name": "_to",
          "type": "address"
        },
        {
          "internalType": "string",
          "name": "_cid",
          "type": "string"
        }
      ],
      "name": "cancelMint",
      "outputs": [],
      "stateMutability": "nonpayable",
      "type": "function"
    },
    {
      "inputs": [
        {
          "internalType": "address",
          "name": "_to",
          "type": "address"
        },
        {
          "internalType": "string",
          "name": "_cid",
          "type": "string"
        }
      ],
      "name": "getAllowedToMint",
      "outputs": [
        {
          "internalType": "enum ClipIt.CidMintStatus",
          "name": "",
          "type": "uint8"
        }
      ],
      "stateMutability": "view",
      "type": "function"
    },
    {
      "inputs": [
        {
          "internalType": "uint256",
          "name": "tokenId",
          "type": "uint256"
        }
      ],
      "name": "getApproved",
      "outputs": [
        {
          "internalType": "address",
          "name": "",
          "type": "address"
        }
      ],
      "stateMutability": "view",
      "type": "function"
    },
    {
      "inputs": [
        {
          "internalType": "address",
          "name": "owner",
          "type": "address"
        },
        {
          "internalType": "address",
          "name": "operator",
          "type": "address"
        }
      ],
      "name": "isApprovedForAll",
      "outputs": [
        {
          "internalType": "bool",
          "name": "",
          "type": "bool"
        }
      ],
      "stateMutability": "view",
      "type": "function"
    },
    {
      "inputs": [
        {
          "internalType": "address",
          "name": "_to",
          "type": "address"
        },
        {
          "internalType": "string",
          "name": "_cid",
          "type": "string"
        }
      ],
      "name": "mint",
      "outputs": [],
      "stateMutability": "nonpayable",
      "type": "function"
    },
    {
      "inputs": [],
      "name": "name",
      "outputs": [
        {
          "internalType": "string",
          "name": "",
          "type": "string"
        }
      ],
      "stateMutability": "view",
      "type": "function"
    },
    {
      "inputs": [],
      "name": "owner",
      "outputs": [
        {
          "internalType": "address",
          "name": "",
          "type": "address"
        }
      ],
      "stateMutability": "view",
      "type": "function"
    },
    {
      "inputs": [
        {
          "internalType": "uint256",
          "name": "tokenId",
          "type": "uint256"
        }
      ],
      "name": "ownerOf",
      "outputs": [
        {
          "internalType": "address",
          "name": "",
          "type": "address"
        }
      ],
      "stateMutability": "view",
      "type": "function"
    },
    {
      "inputs": [
        {
          "internalType": "address",
          "name": "from",
          "type": "address"
        },
        {
          "internalType": "address",
          "name": "to",
          "type": "address"
        },
        {
          "internalType": "uint256",
          "name": "tokenId",
          "type": "uint256"
        }
      ],
      "name": "safeTransferFrom",
      "outputs": [],
      "stateMutability": "nonpayable",
      "type": "function"
    },
    {
      "inputs": [
        {
          "internalType": "address",
          "name": "from",
          "type": "address"
        },
        {
          "internalType": "address",
          "name": "to",
          "type": "address"
        },
        {
          "internalType": "uint256",
          "name": "tokenId",
          "type": "uint256"
        },
        {
          "internalType": "bytes",
          "name": "_data",
          "type": "bytes"
        }
      ],
      "name": "safeTransferFrom",
      "outputs": [],
      "stateMutability": "nonpayable",
      "type": "function"
    },
    {
      "inputs": [
        {
          "internalType": "address",
          "name": "operator",
          "type": "address"
        },
        {
          "internalType": "bool",
          "name": "approved",
          "type": "bool"
        }
      ],
      "name": "setApprovalForAll",
      "outputs": [],
      "stateMutability": "nonpayable",
      "type": "function"
    },
    {
      "inputs": [
        {
          "internalType": "string",
          "name": "_uri",
          "type": "string"
        }
      ],
      "name": "setBaseURI",
      "outputs": [],
      "stateMutability": "nonpayable",
      "type": "function"
    },
    {
      "inputs": [
        {
          "internalType": "bytes4",
          "name": "interfaceId",
          "type": "bytes4"
        }
      ],
      "name": "supportsInterface",
      "outputs": [
        {
          "internalType": "bool",
          "name": "",
          "type": "bool"
        }
      ],
      "stateMutability": "view",
      "type": "function"
    },
    {
      "inputs": [],
      "name": "symbol",
      "outputs": [
        {
          "internalType": "string",
          "name": "",
          "type": "string"
        }
      ],
      "stateMutability": "view",
      "type": "function"
    },
    {
      "inputs": [
        {
          "internalType": "uint256",
          "name": "_tokenId",
          "type": "uint256"
        }
      ],
      "name": "tokenURI",
      "outputs": [
        {
          "internalType": "string",
          "name": "",
          "type": "string"
        }
      ],
      "stateMutability": "view",
      "type": "function"
    },
    {
      "inputs": [
        {
          "internalType": "address",
          "name": "from",
          "type": "address"
        },
        {
          "internalType": "address",
          "name": "to",
          "type": "address"
        },
        {
          "internalType": "uint256",
          "name": "tokenId",
          "type": "uint256"
        }
      ],
      "name": "transferFrom",
      "outputs": [],
      "stateMutability": "nonpayable",
      "type": "function"
    }
  ],
  "bytecode": "0x60806040523480156200001157600080fd5b50604080518082018252600681526510db1a5c125d60d21b6020808301918252835180850190945260048452630434c49560e41b9084015281519192916200005c91600091620000bf565b50805162000072906001906020840190620000bf565b505060408051808201909152600780825266697066733a2f2f60c81b6020909201918252620000a6925060069190620000bf565b50600780546001600160a01b03191633179055620001a2565b828054620000cd9062000165565b90600052602060002090601f016020900481019282620000f157600085556200013c565b82601f106200010c57805160ff19168380011785556200013c565b828001600101855582156200013c579182015b828111156200013c5782518255916020019190600101906200011f565b506200014a9291506200014e565b5090565b5b808211156200014a57600081556001016200014f565b600181811c908216806200017a57607f821691505b602082108114156200019c57634e487b7160e01b600052602260045260246000fd5b50919050565b6119b980620001b26000396000f3fe608060405234801561001057600080fd5b50600436106101215760003560e01c80636352211e116100ad578063b88d4fde11610071578063b88d4fde14610264578063bc8f0abd14610277578063c87b56dd14610297578063d0def521146102aa578063e985e9c5146102bd57600080fd5b80636352211e1461020257806370a08231146102155780638da5cb5b1461023657806395d89b4114610249578063a22cb4651461025157600080fd5b80631f106dcd116100f45780631f106dcd146101a357806320e0db4a146101b657806323b872dd146101c957806342842e0e146101dc57806355f804b3146101ef57600080fd5b806301ffc9a71461012657806306fdde031461014e578063081812fc14610163578063095ea7b31461018e575b600080fd5b6101396101343660046115e6565b6102f9565b60405190151581526020015b60405180910390f35b61015661034b565b60405161014591906117c5565b610176610171366004611651565b6103dd565b6040516001600160a01b039091168152602001610145565b6101a161019c3660046115bd565b610477565b005b6101a16101b1366004611571565b61058d565b6101a16101c4366004611571565b6106ca565b6101a16101d7366004611483565b6107ca565b6101a16101ea366004611483565b6107fb565b6101a16101fd36600461161e565b610816565b610176610210366004611651565b610860565b610228610223366004611437565b6108d7565b604051908152602001610145565b600754610176906001600160a01b031681565b61015661095e565b6101a161025f366004611537565b61096d565b6101a16102723660046114be565b610a32565b61028a610285366004611571565b610a6a565b604051610145919061179d565b6101566102a5366004611651565b610ae2565b6101a16102b8366004611571565b610b88565b6101396102cb366004611451565b6001600160a01b03918216600090815260056020908152604080832093909416825291909152205460ff1690565b60006001600160e01b031982166380ac58cd60e01b148061032a57506001600160e01b03198216635b5e139f60e01b145b8061034557506301ffc9a760e01b6001600160e01b03198316145b92915050565b60606000805461035a90611903565b80601f016020809104026020016040519081016040528092919081815260200182805461038690611903565b80156103d35780601f106103a8576101008083540402835291602001916103d3565b820191906000526020600020905b8154815290600101906020018083116103b657829003601f168201915b5050505050905090565b6000818152600260205260408120546001600160a01b031661045b5760405162461bcd60e51b815260206004820152602c60248201527f4552433732313a20617070726f76656420717565727920666f72206e6f6e657860448201526b34b9ba32b73a103a37b5b2b760a11b60648201526084015b60405180910390fd5b506000908152600460205260409020546001600160a01b031690565b600061048282610860565b9050806001600160a01b0316836001600160a01b031614156104f05760405162461bcd60e51b815260206004820152602160248201527f4552433732313a20617070726f76616c20746f2063757272656e74206f776e656044820152603960f91b6064820152608401610452565b336001600160a01b038216148061050c575061050c81336102cb565b61057e5760405162461bcd60e51b815260206004820152603860248201527f4552433732313a20617070726f76652063616c6c6572206973206e6f74206f7760448201527f6e6572206e6f7220617070726f76656420666f7220616c6c00000000000000006064820152608401610452565b6105888383610d03565b505050565b6007546001600160a01b0316336001600160a01b0316146105c05760405162461bcd60e51b81526004016104529061182a565b818160026001600160a01b0383166000908152600960205260409081902090516105eb908490611695565b9081526040519081900360200190205460ff16600281111561061d57634e487b7160e01b600052602160045260246000fd5b14156106625760405162461bcd60e51b81526020600482015260146024820152731d1bdad95b88185b1c9958591e481b5a5b9d195960621b6044820152606401610452565b6001600160a01b0384166000908152600960205260408082209051610688908690611695565b908152604051908190036020019020805460ff191660018360028111156106bf57634e487b7160e01b600052602160045260246000fd5b021790555050505050565b6007546001600160a01b0316336001600160a01b0316146106fd5760405162461bcd60e51b81526004016104529061182a565b818160026001600160a01b038316600090815260096020526040908190209051610728908490611695565b9081526040519081900360200190205460ff16600281111561075a57634e487b7160e01b600052602160045260246000fd5b141561079f5760405162461bcd60e51b81526020600482015260146024820152731d1bdad95b88185b1c9958591e481b5a5b9d195960621b6044820152606401610452565b6001600160a01b03841660009081526009602052604090819020905160019190610688908690611695565b6107d43382610d71565b6107f05760405162461bcd60e51b815260040161045290611857565b610588838383610e68565b61058883838360405180602001604052806000815250610a32565b6007546001600160a01b0316336001600160a01b0316146108495760405162461bcd60e51b81526004016104529061182a565b805161085c9060069060208401906112e6565b5050565b6000818152600260205260408120546001600160a01b0316806103455760405162461bcd60e51b815260206004820152602960248201527f4552433732313a206f776e657220717565727920666f72206e6f6e657869737460448201526832b73a103a37b5b2b760b91b6064820152608401610452565b60006001600160a01b0382166109425760405162461bcd60e51b815260206004820152602a60248201527f4552433732313a2062616c616e636520717565727920666f7220746865207a65604482015269726f206164647265737360b01b6064820152608401610452565b506001600160a01b031660009081526003602052604090205490565b60606001805461035a90611903565b6001600160a01b0382163314156109c65760405162461bcd60e51b815260206004820152601960248201527f4552433732313a20617070726f766520746f2063616c6c6572000000000000006044820152606401610452565b3360008181526005602090815260408083206001600160a01b03871680855290835292819020805460ff191686151590811790915590519081529192917f17307eab39ab6107e8899845ad3d59bd9653f200f220920489ca2b5937696c31910160405180910390a35050565b610a3c3383610d71565b610a585760405162461bcd60e51b815260040161045290611857565b610a6484848484611008565b50505050565b6007546000906001600160a01b0316336001600160a01b031614610aa05760405162461bcd60e51b81526004016104529061182a565b6001600160a01b038316600090815260096020526040908190209051610ac7908490611695565b9081526040519081900360200190205460ff16905092915050565b6000818152600260205260409020546060906001600160a01b0316610b405760405162461bcd60e51b81526020600482015260146024820152731d1bdad95b88191bd95cc81b9bdd08195e1a5cdd60621b6044820152606401610452565b6000610b4a61103b565b90508060086000858152602001908152602001600020604051602001610b719291906116b1565b604051602081830303815290604052915050919050565b60016001600160a01b038316600090815260096020526040908190209051610bb1908490611695565b9081526040519081900360200190205460ff166002811115610be357634e487b7160e01b600052602160045260246000fd5b14610c3f5760405162461bcd60e51b815260206004820152602660248201527f61646472657373206e6f7420616c6c6f77656420746f206d696e742074686973604482015265103a37b5b2b760d11b6064820152608401610452565b600081604051602001610c5291906117c5565b6040516020818303038152906040528051906020012060001c9050610c77838261104a565b60008181526008602090815260409091208351610c96928501906112e6565b506001600160a01b03831660009081526009602052604090819020905160029190610cc2908590611695565b908152604051908190036020019020805460ff19166001836002811115610cf957634e487b7160e01b600052602160045260246000fd5b0217905550505050565b600081815260046020526040902080546001600160a01b0319166001600160a01b0384169081179091558190610d3882610860565b6001600160a01b03167f8c5be1e5ebec7d5bd14f71427d1e84f3dd0314c0f7b2291e5b200ac8c7c3b92560405160405180910390a45050565b6000818152600260205260408120546001600160a01b0316610dea5760405162461bcd60e51b815260206004820152602c60248201527f4552433732313a206f70657261746f7220717565727920666f72206e6f6e657860448201526b34b9ba32b73a103a37b5b2b760a11b6064820152608401610452565b6000610df583610860565b9050806001600160a01b0316846001600160a01b03161480610e305750836001600160a01b0316610e25846103dd565b6001600160a01b0316145b80610e6057506001600160a01b0380821660009081526005602090815260408083209388168352929052205460ff165b949350505050565b826001600160a01b0316610e7b82610860565b6001600160a01b031614610ee35760405162461bcd60e51b815260206004820152602960248201527f4552433732313a207472616e73666572206f6620746f6b656e2074686174206960448201526839903737ba1037bbb760b91b6064820152608401610452565b6001600160a01b038216610f455760405162461bcd60e51b8152602060048201526024808201527f4552433732313a207472616e7366657220746f20746865207a65726f206164646044820152637265737360e01b6064820152608401610452565b610f50600082610d03565b6001600160a01b0383166000908152600360205260408120805460019290610f799084906118c0565b90915550506001600160a01b0382166000908152600360205260408120805460019290610fa79084906118a8565b909155505060008181526002602052604080822080546001600160a01b0319166001600160a01b0386811691821790925591518493918716917fddf252ad1be2c89b69c2b068fc378daa952ba7f163c4a11628f55a4df523b3ef91a4505050565b611013848484610e68565b61101f84848484611064565b610a645760405162461bcd60e51b8152600401610452906117d8565b60606006805461035a90611903565b61085c828260405180602001604052806000815250611171565b60006001600160a01b0384163b1561116657604051630a85bd0160e11b81526001600160a01b0385169063150b7a02906110a8903390899088908890600401611760565b602060405180830381600087803b1580156110c257600080fd5b505af19250505080156110f2575060408051601f3d908101601f191682019092526110ef91810190611602565b60015b61114c573d808015611120576040519150601f19603f3d011682016040523d82523d6000602084013e611125565b606091505b5080516111445760405162461bcd60e51b8152600401610452906117d8565b805181602001fd5b6001600160e01b031916630a85bd0160e11b149050610e60565b506001949350505050565b61117b83836111a4565b6111886000848484611064565b6105885760405162461bcd60e51b8152600401610452906117d8565b6001600160a01b0382166111fa5760405162461bcd60e51b815260206004820181905260248201527f4552433732313a206d696e7420746f20746865207a65726f20616464726573736044820152606401610452565b6000818152600260205260409020546001600160a01b03161561125f5760405162461bcd60e51b815260206004820152601c60248201527f4552433732313a20746f6b656e20616c7265616479206d696e746564000000006044820152606401610452565b6001600160a01b03821660009081526003602052604081208054600192906112889084906118a8565b909155505060008181526002602052604080822080546001600160a01b0319166001600160a01b03861690811790915590518392907fddf252ad1be2c89b69c2b068fc378daa952ba7f163c4a11628f55a4df523b3ef908290a45050565b8280546112f290611903565b90600052602060002090601f016020900481019282611314576000855561135a565b82601f1061132d57805160ff191683800117855561135a565b8280016001018555821561135a579182015b8281111561135a57825182559160200191906001019061133f565b5061136692915061136a565b5090565b5b80821115611366576000815560010161136b565b600067ffffffffffffffff8084111561139a5761139a611954565b604051601f8501601f19908116603f011681019082821181831017156113c2576113c2611954565b816040528093508581528686860111156113db57600080fd5b858560208301376000602087830101525050509392505050565b80356001600160a01b038116811461140c57600080fd5b919050565b600082601f830112611421578081fd5b6114308383356020850161137f565b9392505050565b600060208284031215611448578081fd5b611430826113f5565b60008060408385031215611463578081fd5b61146c836113f5565b915061147a602084016113f5565b90509250929050565b600080600060608486031215611497578081fd5b6114a0846113f5565b92506114ae602085016113f5565b9150604084013590509250925092565b600080600080608085870312156114d3578081fd5b6114dc856113f5565b93506114ea602086016113f5565b925060408501359150606085013567ffffffffffffffff81111561150c578182fd5b8501601f8101871361151c578182fd5b61152b8782356020840161137f565b91505092959194509250565b60008060408385031215611549578182fd5b611552836113f5565b915060208301358015158114611566578182fd5b809150509250929050565b60008060408385031215611583578182fd5b61158c836113f5565b9150602083013567ffffffffffffffff8111156115a7578182fd5b6115b385828601611411565b9150509250929050565b600080604083850312156115cf578182fd5b6115d8836113f5565b946020939093013593505050565b6000602082840312156115f7578081fd5b81356114308161196a565b600060208284031215611613578081fd5b81516114308161196a565b60006020828403121561162f578081fd5b813567ffffffffffffffff811115611645578182fd5b610e6084828501611411565b600060208284031215611662578081fd5b5035919050565b600081518084526116818160208601602086016118d7565b601f01601f19169290920160200192915050565b600082516116a78184602087016118d7565b9190910192915050565b6000835160206116c482858389016118d7565b8454918401918390600181811c90808316806116e157607f831692505b8583108114156116ff57634e487b7160e01b88526022600452602488fd5b808015611713576001811461172457611750565b60ff19851688528388019550611750565b60008b815260209020895b858110156117485781548a82015290840190880161172f565b505083880195505b50939a9950505050505050505050565b6001600160a01b038581168252841660208201526040810183905260806060820181905260009061179390830184611669565b9695505050505050565b60208101600383106117bf57634e487b7160e01b600052602160045260246000fd5b91905290565b6020815260006114306020830184611669565b60208082526032908201527f4552433732313a207472616e7366657220746f206e6f6e20455243373231526560408201527131b2b4bb32b91034b6b83632b6b2b73a32b960711b606082015260800190565b60208082526013908201527231b0b63632b91034b9903737ba1037bbb732b960691b604082015260600190565b60208082526031908201527f4552433732313a207472616e736665722063616c6c6572206973206e6f74206f6040820152701ddb995c881b9bdc88185c1c1c9bdd9959607a1b606082015260800190565b600082198211156118bb576118bb61193e565b500190565b6000828210156118d2576118d261193e565b500390565b60005b838110156118f25781810151838201526020016118da565b83811115610a645750506000910152565b600181811c9082168061191757607f821691505b6020821081141561193857634e487b7160e01b600052602260045260246000fd5b50919050565b634e487b7160e01b600052601160045260246000fd5b634e487b7160e01b600052604160045260246000fd5b6001600160e01b03198116811461198057600080fd5b5056fea2646970667358221220b934f7aab38e004ed86c53077509fbaa89bcaa5384f40c54f341290731dc046e64736f6c63430008040033",
  "linkReferences": {},
  "deployedLinkReferences": {}
}