{
  "_format": "hh-sol-artifact-1",
  "contractName": "ClipIt",
  "sourceName": "contracts/ClipIt.sol",
  "abi": [
    {
      "inputs": [
        {
          "internalType": "address",
          "name": "marketContractAddr",
          "type": "address"
        }
      ],
      "stateMutability": "nonpayable",
      "type": "constructor"
    },
    {
      "anonymous": false,
      "inputs": [
        {
          "indexed": true,
          "internalType": "address",
          "name": "owner",
          "type": "address"
        },
        {
          "indexed": true,
          "internalType": "address",
          "name": "approved",
          "type": "address"
        },
        {
          "indexed": true,
          "internalType": "uint256",
          "name": "tokenId",
          "type": "uint256"
        }
      ],
      "name": "Approval",
      "type": "event"
    },
    {
      "anonymous": false,
      "inputs": [
        {
          "indexed": true,
          "internalType": "address",
          "name": "owner",
          "type": "address"
        },
        {
          "indexed": true,
          "internalType": "address",
          "name": "operator",
          "type": "address"
        },
        {
          "indexed": false,
          "internalType": "bool",
          "name": "approved",
          "type": "bool"
        }
      ],
      "name": "ApprovalForAll",
      "type": "event"
    },
    {
      "anonymous": false,
      "inputs": [
        {
          "indexed": true,
          "internalType": "address",
          "name": "previousOwner",
          "type": "address"
        },
        {
          "indexed": true,
          "internalType": "address",
          "name": "newOwner",
          "type": "address"
        }
      ],
      "name": "OwnershipTransferred",
      "type": "event"
    },
    {
      "anonymous": false,
      "inputs": [
        {
          "indexed": true,
          "internalType": "uint256",
          "name": "_tokenId",
          "type": "uint256"
        },
        {
          "indexed": false,
          "internalType": "address",
          "name": "owner",
          "type": "address"
        },
        {
          "indexed": false,
          "internalType": "string",
          "name": "_uri",
          "type": "string"
        }
      ],
      "name": "TokenMetadataURIUpdated",
      "type": "event"
    },
    {
      "anonymous": false,
      "inputs": [
        {
          "indexed": true,
          "internalType": "uint256",
          "name": "_tokenId",
          "type": "uint256"
        },
        {
          "indexed": false,
          "internalType": "address",
          "name": "owner",
          "type": "address"
        },
        {
          "indexed": false,
          "internalType": "string",
          "name": "_uri",
          "type": "string"
        }
      ],
      "name": "TokenURIUpdated",
      "type": "event"
    },
    {
      "anonymous": false,
      "inputs": [
        {
          "indexed": true,
          "internalType": "address",
          "name": "from",
          "type": "address"
        },
        {
          "indexed": true,
          "internalType": "address",
          "name": "to",
          "type": "address"
        },
        {
          "indexed": true,
          "internalType": "uint256",
          "name": "tokenId",
          "type": "uint256"
        }
      ],
      "name": "Transfer",
      "type": "event"
    },
    {
      "inputs": [
        {
          "internalType": "uint256",
          "name": "tokenId",
          "type": "uint256"
        },
        {
          "components": [
            {
              "internalType": "uint256",
              "name": "amount",
              "type": "uint256"
            },
            {
              "internalType": "address",
              "name": "currency",
              "type": "address"
            },
            {
              "internalType": "address",
              "name": "bidder",
              "type": "address"
            },
            {
              "internalType": "address",
              "name": "recipient",
              "type": "address"
            },
            {
              "components": [
                {
                  "internalType": "uint256",
                  "name": "value",
                  "type": "uint256"
                }
              ],
              "internalType": "struct Decimal.D256",
              "name": "sellOnShare",
              "type": "tuple"
            }
          ],
          "internalType": "struct IMarket.Bid",
          "name": "bid",
          "type": "tuple"
        }
      ],
      "name": "acceptBid",
      "outputs": [],
      "stateMutability": "nonpayable",
      "type": "function"
    },
    {
      "inputs": [
        {
          "internalType": "address",
          "name": "to",
          "type": "address"
        },
        {
          "internalType": "uint256",
          "name": "tokenId",
          "type": "uint256"
        }
      ],
      "name": "approve",
      "outputs": [],
      "stateMutability": "nonpayable",
      "type": "function"
    },
    {
      "inputs": [
        {
          "internalType": "uint256",
          "name": "tokenId",
          "type": "uint256"
        },
        {
          "internalType": "address",
          "name": "recipient",
          "type": "address"
        }
      ],
      "name": "auctionTransfer",
      "outputs": [],
      "stateMutability": "nonpayable",
      "type": "function"
    },
    {
      "inputs": [
        {
          "internalType": "address",
          "name": "owner",
          "type": "address"
        }
      ],
      "name": "balanceOf",
      "outputs": [
        {
          "internalType": "uint256",
          "name": "",
          "type": "uint256"
        }
      ],
      "stateMutability": "view",
      "type": "function"
    },
    {
      "inputs": [],
      "name": "baseURI",
      "outputs": [
        {
          "internalType": "string",
          "name": "",
          "type": "string"
        }
      ],
      "stateMutability": "view",
      "type": "function"
    },
    {
      "inputs": [
        {
          "internalType": "uint256",
          "name": "tokenId",
          "type": "uint256"
        }
      ],
      "name": "burn",
      "outputs": [],
      "stateMutability": "nonpayable",
      "type": "function"
    },
    {
      "inputs": [
        {
          "internalType": "uint256",
          "name": "tokenId",
          "type": "uint256"
        }
      ],
      "name": "getApproved",
      "outputs": [
        {
          "internalType": "address",
          "name": "",
          "type": "address"
        }
      ],
      "stateMutability": "view",
      "type": "function"
    },
    {
      "inputs": [
        {
          "internalType": "address",
          "name": "owner",
          "type": "address"
        },
        {
          "internalType": "address",
          "name": "operator",
          "type": "address"
        }
      ],
      "name": "isApprovedForAll",
      "outputs": [
        {
          "internalType": "bool",
          "name": "",
          "type": "bool"
        }
      ],
      "stateMutability": "view",
      "type": "function"
    },
    {
      "inputs": [],
      "name": "marketContract",
      "outputs": [
        {
          "internalType": "address",
          "name": "",
          "type": "address"
        }
      ],
      "stateMutability": "view",
      "type": "function"
    },
    {
      "inputs": [
        {
          "components": [
            {
              "internalType": "string",
              "name": "tokenURI",
              "type": "string"
            },
            {
              "internalType": "string",
              "name": "metadataURI",
              "type": "string"
            },
            {
              "internalType": "bytes32",
              "name": "contentHash",
              "type": "bytes32"
            },
            {
              "internalType": "bytes32",
              "name": "metadataHash",
              "type": "bytes32"
            }
          ],
          "internalType": "struct IClipIt.MediaData",
          "name": "data",
          "type": "tuple"
        },
        {
          "components": [
            {
              "components": [
                {
                  "internalType": "uint256",
                  "name": "value",
                  "type": "uint256"
                }
              ],
              "internalType": "struct Decimal.D256",
              "name": "prevOwner",
              "type": "tuple"
            },
            {
              "components": [
                {
                  "internalType": "uint256",
                  "name": "value",
                  "type": "uint256"
                }
              ],
              "internalType": "struct Decimal.D256",
              "name": "creator",
              "type": "tuple"
            },
            {
              "components": [
                {
                  "internalType": "uint256",
                  "name": "value",
                  "type": "uint256"
                }
              ],
              "internalType": "struct Decimal.D256",
              "name": "owner",
              "type": "tuple"
            }
          ],
          "internalType": "struct IMarket.BidShares",
          "name": "bidShares",
          "type": "tuple"
        },
        {
          "internalType": "uint8",
          "name": "v",
          "type": "uint8"
        },
        {
          "internalType": "bytes32",
          "name": "r",
          "type": "bytes32"
        },
        {
          "internalType": "bytes32",
          "name": "s",
          "type": "bytes32"
        }
      ],
      "name": "mint",
      "outputs": [],
      "stateMutability": "nonpayable",
      "type": "function"
    },
    {
      "inputs": [],
      "name": "name",
      "outputs": [
        {
          "internalType": "string",
          "name": "",
          "type": "string"
        }
      ],
      "stateMutability": "view",
      "type": "function"
    },
    {
      "inputs": [],
      "name": "owner",
      "outputs": [
        {
          "internalType": "address",
          "name": "",
          "type": "address"
        }
      ],
      "stateMutability": "view",
      "type": "function"
    },
    {
      "inputs": [
        {
          "internalType": "uint256",
          "name": "tokenId",
          "type": "uint256"
        }
      ],
      "name": "ownerOf",
      "outputs": [
        {
          "internalType": "address",
          "name": "",
          "type": "address"
        }
      ],
      "stateMutability": "view",
      "type": "function"
    },
    {
      "inputs": [
        {
          "internalType": "uint256",
          "name": "",
          "type": "uint256"
        }
      ],
      "name": "previousTokenOwners",
      "outputs": [
        {
          "internalType": "address",
          "name": "",
          "type": "address"
        }
      ],
      "stateMutability": "view",
      "type": "function"
    },
    {
      "inputs": [
        {
          "internalType": "uint256",
          "name": "tokenId",
          "type": "uint256"
        }
      ],
      "name": "removeAsk",
      "outputs": [],
      "stateMutability": "nonpayable",
      "type": "function"
    },
    {
      "inputs": [
        {
          "internalType": "uint256",
          "name": "tokenId",
          "type": "uint256"
        }
      ],
      "name": "removeBid",
      "outputs": [],
      "stateMutability": "nonpayable",
      "type": "function"
    },
    {
      "inputs": [],
      "name": "renounceOwnership",
      "outputs": [],
      "stateMutability": "nonpayable",
      "type": "function"
    },
    {
      "inputs": [
        {
          "internalType": "uint256",
          "name": "tokenId",
          "type": "uint256"
        }
      ],
      "name": "revokeApproval",
      "outputs": [],
      "stateMutability": "nonpayable",
      "type": "function"
    },
    {
      "inputs": [
        {
          "internalType": "address",
          "name": "from",
          "type": "address"
        },
        {
          "internalType": "address",
          "name": "to",
          "type": "address"
        },
        {
          "internalType": "uint256",
          "name": "tokenId",
          "type": "uint256"
        }
      ],
      "name": "safeTransferFrom",
      "outputs": [],
      "stateMutability": "nonpayable",
      "type": "function"
    },
    {
      "inputs": [
        {
          "internalType": "address",
          "name": "from",
          "type": "address"
        },
        {
          "internalType": "address",
          "name": "to",
          "type": "address"
        },
        {
          "internalType": "uint256",
          "name": "tokenId",
          "type": "uint256"
        },
        {
          "internalType": "bytes",
          "name": "_data",
          "type": "bytes"
        }
      ],
      "name": "safeTransferFrom",
      "outputs": [],
      "stateMutability": "nonpayable",
      "type": "function"
    },
    {
      "inputs": [
        {
          "internalType": "address",
          "name": "operator",
          "type": "address"
        },
        {
          "internalType": "bool",
          "name": "approved",
          "type": "bool"
        }
      ],
      "name": "setApprovalForAll",
      "outputs": [],
      "stateMutability": "nonpayable",
      "type": "function"
    },
    {
      "inputs": [
        {
          "internalType": "uint256",
          "name": "tokenId",
          "type": "uint256"
        },
        {
          "components": [
            {
              "internalType": "uint256",
              "name": "amount",
              "type": "uint256"
            },
            {
              "internalType": "address",
              "name": "currency",
              "type": "address"
            }
          ],
          "internalType": "struct IMarket.Ask",
          "name": "ask",
          "type": "tuple"
        }
      ],
      "name": "setAsk",
      "outputs": [],
      "stateMutability": "nonpayable",
      "type": "function"
    },
    {
      "inputs": [
        {
          "internalType": "uint256",
          "name": "tokenId",
          "type": "uint256"
        },
        {
          "components": [
            {
              "internalType": "uint256",
              "name": "amount",
              "type": "uint256"
            },
            {
              "internalType": "address",
              "name": "currency",
              "type": "address"
            },
            {
              "internalType": "address",
              "name": "bidder",
              "type": "address"
            },
            {
              "internalType": "address",
              "name": "recipient",
              "type": "address"
            },
            {
              "components": [
                {
                  "internalType": "uint256",
                  "name": "value",
                  "type": "uint256"
                }
              ],
              "internalType": "struct Decimal.D256",
              "name": "sellOnShare",
              "type": "tuple"
            }
          ],
          "internalType": "struct IMarket.Bid",
          "name": "bid",
          "type": "tuple"
        }
      ],
      "name": "setBid",
      "outputs": [],
      "stateMutability": "nonpayable",
      "type": "function"
    },
    {
      "inputs": [
        {
          "internalType": "bytes4",
          "name": "interfaceId",
          "type": "bytes4"
        }
      ],
      "name": "supportsInterface",
      "outputs": [
        {
          "internalType": "bool",
          "name": "",
          "type": "bool"
        }
      ],
      "stateMutability": "view",
      "type": "function"
    },
    {
      "inputs": [],
      "name": "symbol",
      "outputs": [
        {
          "internalType": "string",
          "name": "",
          "type": "string"
        }
      ],
      "stateMutability": "view",
      "type": "function"
    },
    {
      "inputs": [
        {
          "internalType": "uint256",
          "name": "index",
          "type": "uint256"
        }
      ],
      "name": "tokenByIndex",
      "outputs": [
        {
          "internalType": "uint256",
          "name": "",
          "type": "uint256"
        }
      ],
      "stateMutability": "view",
      "type": "function"
    },
    {
      "inputs": [
        {
          "internalType": "uint256",
          "name": "",
          "type": "uint256"
        }
      ],
      "name": "tokenContentHashes",
      "outputs": [
        {
          "internalType": "bytes32",
          "name": "",
          "type": "bytes32"
        }
      ],
      "stateMutability": "view",
      "type": "function"
    },
    {
      "inputs": [
        {
          "internalType": "uint256",
          "name": "",
          "type": "uint256"
        }
      ],
      "name": "tokenCreators",
      "outputs": [
        {
          "internalType": "address",
          "name": "",
          "type": "address"
        }
      ],
      "stateMutability": "view",
      "type": "function"
    },
    {
      "inputs": [
        {
          "internalType": "uint256",
          "name": "",
          "type": "uint256"
        }
      ],
      "name": "tokenMetadataHashes",
      "outputs": [
        {
          "internalType": "bytes32",
          "name": "",
          "type": "bytes32"
        }
      ],
      "stateMutability": "view",
      "type": "function"
    },
    {
      "inputs": [
        {
          "internalType": "uint256",
          "name": "tokenId",
          "type": "uint256"
        }
      ],
      "name": "tokenMetadataURI",
      "outputs": [
        {
          "internalType": "string",
          "name": "",
          "type": "string"
        }
      ],
      "stateMutability": "view",
      "type": "function"
    },
    {
      "inputs": [
        {
          "internalType": "address",
          "name": "owner",
          "type": "address"
        },
        {
          "internalType": "uint256",
          "name": "index",
          "type": "uint256"
        }
      ],
      "name": "tokenOfOwnerByIndex",
      "outputs": [
        {
          "internalType": "uint256",
          "name": "",
          "type": "uint256"
        }
      ],
      "stateMutability": "view",
      "type": "function"
    },
    {
      "inputs": [
        {
          "internalType": "uint256",
          "name": "tokenId",
          "type": "uint256"
        }
      ],
      "name": "tokenURI",
      "outputs": [
        {
          "internalType": "string",
          "name": "",
          "type": "string"
        }
      ],
      "stateMutability": "view",
      "type": "function"
    },
    {
      "inputs": [],
      "name": "totalSupply",
      "outputs": [
        {
          "internalType": "uint256",
          "name": "",
          "type": "uint256"
        }
      ],
      "stateMutability": "view",
      "type": "function"
    },
    {
      "inputs": [
        {
          "internalType": "address",
          "name": "from",
          "type": "address"
        },
        {
          "internalType": "address",
          "name": "to",
          "type": "address"
        },
        {
          "internalType": "uint256",
          "name": "tokenId",
          "type": "uint256"
        }
      ],
      "name": "transferFrom",
      "outputs": [],
      "stateMutability": "nonpayable",
      "type": "function"
    },
    {
      "inputs": [
        {
          "internalType": "address",
          "name": "newOwner",
          "type": "address"
        }
      ],
      "name": "transferOwnership",
      "outputs": [],
      "stateMutability": "nonpayable",
      "type": "function"
    },
    {
      "inputs": [
        {
          "internalType": "uint256",
          "name": "tokenId",
          "type": "uint256"
        },
        {
          "internalType": "string",
          "name": "metadataURI",
          "type": "string"
        }
      ],
      "name": "updateTokenMetadataURI",
      "outputs": [],
      "stateMutability": "nonpayable",
      "type": "function"
    },
    {
      "inputs": [
        {
          "internalType": "uint256",
          "name": "tokenId",
          "type": "uint256"
        },
        {
          "internalType": "string",
          "name": "_tokenURI",
          "type": "string"
        }
      ],
      "name": "updateTokenURI",
      "outputs": [],
      "stateMutability": "nonpayable",
      "type": "function"
    },
    {
      "inputs": [
        {
          "internalType": "address",
          "name": "creator",
          "type": "address"
        },
        {
          "components": [
            {
              "internalType": "string",
              "name": "tokenURI",
              "type": "string"
            },
            {
              "internalType": "string",
              "name": "metadataURI",
              "type": "string"
            },
            {
              "internalType": "bytes32",
              "name": "contentHash",
              "type": "bytes32"
            },
            {
              "internalType": "bytes32",
              "name": "metadataHash",
              "type": "bytes32"
            }
          ],
          "internalType": "struct IClipIt.MediaData",
          "name": "data",
          "type": "tuple"
        },
        {
          "components": [
            {
              "components": [
                {
                  "internalType": "uint256",
                  "name": "value",
                  "type": "uint256"
                }
              ],
              "internalType": "struct Decimal.D256",
              "name": "prevOwner",
              "type": "tuple"
            },
            {
              "components": [
                {
                  "internalType": "uint256",
                  "name": "value",
                  "type": "uint256"
                }
              ],
              "internalType": "struct Decimal.D256",
              "name": "creator",
              "type": "tuple"
            },
            {
              "components": [
                {
                  "internalType": "uint256",
                  "name": "value",
                  "type": "uint256"
                }
              ],
              "internalType": "struct Decimal.D256",
              "name": "owner",
              "type": "tuple"
            }
          ],
          "internalType": "struct IMarket.BidShares",
          "name": "bidShares",
          "type": "tuple"
        }
      ],
      "name": "verifiedMint",
      "outputs": [],
      "stateMutability": "nonpayable",
      "type": "function"
    }
  ],
  "bytecode": "0x60806040523480156200001157600080fd5b5060405162003ca038038062003ca0833981016040819052620000349162000299565b604080518082018252600681526510db1a5c125d60d21b602080830191909152825180840190935260048352630434c49560e41b90830152906200007f6301ffc9a760e01b62000164565b815162000094906006906020850190620001ed565b508051620000aa906007906020840190620001ed565b50620000bd6380ac58cd60e01b62000164565b620000cf63780e9d6360e01b62000164565b50506001600a556000620000e2620001e9565b600b80546001600160a01b0319166001600160a01b038316908117909155604051919250906000907f8be0079c531659141344cd1fd0a4f28419497f9722a3daafe3b4186f6b6457e0908290a350600c80546001600160a01b0319166001600160a01b0383161790556200015d632711173360e11b62000164565b50620002c9565b6001600160e01b03198082161415620001c4576040805162461bcd60e51b815260206004820152601c60248201527f4552433136353a20696e76616c696420696e7465726661636520696400000000604482015290519081900360640190fd5b6001600160e01b0319166000908152602081905260409020805460ff19166001179055565b3390565b828054600181600116156101000203166002900490600052602060002090601f01602090048101928262000225576000855562000270565b82601f106200024057805160ff191683800117855562000270565b8280016001018555821562000270579182015b828111156200027057825182559160200191906001019062000253565b506200027e92915062000282565b5090565b5b808211156200027e576000815560010162000283565b600060208284031215620002ab578081fd5b81516001600160a01b0381168114620002c2578182fd5b9392505050565b6139c780620002d96000396000f3fe608060405234801561001057600080fd5b50600436106102325760003560e01c8063715018a611610130578063b1e130fc116100b8578063e0fd045f1161007c578063e0fd045f1461049c578063e985e9c5146104af578063f2fde38b146104c2578063f6b630f0146104d5578063fad32197146104e857610232565b8063b1e130fc1461043d578063b320f45914610450578063b88d4fde14610463578063ba33939914610476578063c87b56dd1461048957610232565b806395d89b41116100ff57806395d89b41146103f45780639c3a24ae146103fc5780639d8e72601461040f578063a1794bcd14610422578063a22cb4651461042a57610232565b8063715018a6146103be57806375682e79146103c65780638da5cb5b146103d957806392044c60146103e157610232565b806328220f35116101be5780635bf62422116101825780635bf624221461036a57806362f24b701461037d5780636352211e146103905780636c0360eb146103a357806370a08231146103ab57610232565b806328220f351461030b5780632f745c591461031e57806342842e0e1461033157806342966c68146103445780634f6ccce71461035757610232565b8063095ea7b311610205578063095ea7b3146102b5578063157c3df9146102ca57806318160ddd146102dd57806318e97fd1146102e557806323b872dd146102f857610232565b806301ddc3b51461023757806301ffc9a71461026057806306fdde0314610280578063081812fc14610295575b600080fd5b61024a610245366004613006565b6104fb565b60405161025791906132b8565b60405180910390f35b61027361026e366004612f68565b61050d565b60405161025791906132ad565b610288610530565b60405161025791906132df565b6102a86102a3366004613006565b6105c6565b6040516102579190613259565b6102c86102c3366004612f3f565b610628565b005b6102886102d8366004613006565b6106fe565b61024a6107d2565b6102c86102f3366004613040565b6107e3565b6102c8610306366004612df4565b610937565b6102c8610319366004613006565b61098e565b61024a61032c366004612f3f565b610a6d565b6102c861033f366004612df4565b610a98565b6102c8610352366004613006565b610ab3565b61024a610365366004613006565b610ba8565b6102c8610378366004613125565b610bbe565b6102c861038b3660046130b7565b610c98565b6102a861039e366004613006565b610d7a565b610288610da2565b61024a6103b9366004612da8565b610e03565b6102c8610e6b565b6102c86103d4366004613040565b610f29565b6102a8611068565b6102c86103ef366004612f90565b611077565b6102886110fb565b6102c861040a366004612ee2565b61115c565b6102a861041d366004613006565b611230565b6102a861124b565b6102c8610438366004612ea8565b61125a565b6102c861044b366004613006565b61135f565b6102c861045e366004613006565b6113f6565b6102c8610471366004612e2f565b6114d7565b6102c8610484366004613125565b611535565b610288610497366004613006565b6115da565b6102a86104aa366004613006565b6116a6565b6102736104bd366004612dc2565b6116c1565b6102c86104d0366004612da8565b6116ef565b6102c86104e336600461301e565b611804565b61024a6104f6366004613006565b61188a565b60106020526000908152604090205481565b6001600160e01b0319811660009081526020819052604090205460ff165b919050565b60068054604080516020601f60026000196101006001881615020190951694909404938401819004810282018101909252828152606093909290918301828280156105bc5780601f10610591576101008083540402835291602001916105bc565b820191906000526020600020905b81548152906001019060200180831161059f57829003601f168201915b5050505050905090565b60006105d18261189c565b61060c5760405162461bcd60e51b815260040180806020018281038252602c8152602001806138bf602c913960400191505060405180910390fd5b506000908152600460205260409020546001600160a01b031690565b600061063382610d7a565b9050806001600160a01b0316836001600160a01b031614156106865760405162461bcd60e51b81526004018080602001828103825260218152602001806139406021913960400191505060405180910390fd5b806001600160a01b03166106986118a9565b6001600160a01b031614806106b457506106b4816104bd6118a9565b6106ef5760405162461bcd60e51b81526004018080602001828103825260388152602001806138126038913960400191505060405180910390fd5b6106f983836118ad565b505050565b6060818061070c601361191b565b116107325760405162461bcd60e51b815260040161072990613332565b60405180910390fd5b60008381526011602090815260409182902080548351601f6002600019610100600186161502019093169290920491820184900484028101840190945280845290918301828280156107c55780601f1061079a576101008083540402835291602001916107c5565b820191906000526020600020905b8154815290600101906020018083116107a857829003601f168201915b5050505050915050919050565b60006107de600261191f565b905090565b6002600a541415610829576040805162461bcd60e51b815260206004820152601f6024820152600080516020613724833981519152604482015290519081900360640190fd5b6002600a55338361083a828261192a565b6108565760405162461bcd60e51b8152600401610729906133f3565b83838080601f016020809104026020016040519081016040528093929190818152602001838380828437600092019190915250508251151591506108ae90505760405162461bcd60e51b8152600401610729906134b2565b6108ee8686868080601f0160208091040260200160405190810160405280939291908181526020018383808284376000920191909152506119ce92505050565b857f702fe2dc2dc0f68023540aa4a1e11811c0f29112f6ebf01e61b90538e4f298103387876040516109229392919061326d565b60405180910390a250506001600a5550505050565b6109486109426118a9565b8261192a565b6109835760405162461bcd60e51b81526004018080602001828103825260318152602001806139616031913960400191505060405180910390fd5b6106f9838383611a31565b6002600a5414156109d4576040805162461bcd60e51b815260206004820152601f6024820152600080516020613724833981519152604482015290519081900360640190fd5b6002600a5533816109e5828261192a565b610a015760405162461bcd60e51b8152600401610729906133f3565b600c546040516328220f3560e01b81526001600160a01b03909116906328220f3590610a319086906004016132b8565b600060405180830381600087803b158015610a4b57600080fd5b505af1158015610a5f573d6000803e3d6000fd5b50506001600a555050505050565b6001600160a01b0382166000908152600160205260408120610a8f9083611a9e565b90505b92915050565b6106f9838383604051806020016040528060008152506114d7565b6002600a541415610af9576040805162461bcd60e51b815260206004820152601f6024820152600080516020613724833981519152604482015290519081900360640190fd5b6002600a5580610b088161189c565b610b245760405162461bcd60e51b815260040161072990613556565b3382610b30828261192a565b610b4c5760405162461bcd60e51b8152600401610729906133f3565b6000610b5785610d7a565b6000868152600e60205260409020549091506001600160a01b03808316911614610b935760405162461bcd60e51b815260040161072990613616565b610b9c85611aaa565b50506001600a55505050565b600080610bb6600284611b94565b509392505050565b6002600a541415610c04576040805162461bcd60e51b815260206004820152601f6024820152600080516020613724833981519152604482015290519081900360640190fd5b6002600a5581610c138161189c565b610c2f5760405162461bcd60e51b815260040161072990613556565b81604001516001600160a01b0316336001600160a01b031614610c645760405162461bcd60e51b81526004016107299061337b565b600c546040516317b6b0d360e31b81526001600160a01b039091169063bdb5869890610a31908690869033906004016136d4565b6002600a541415610cde576040805162461bcd60e51b815260206004820152601f6024820152600080516020613724833981519152604482015290519081900360640190fd5b6002600a553382610cef828261192a565b610d0b5760405162461bcd60e51b8152600401610729906133f3565b600c5460405163062f24b760e41b81526001600160a01b03909116906362f24b7090610d3d9087908790600401613672565b600060405180830381600087803b158015610d5757600080fd5b505af1158015610d6b573d6000803e3d6000fd5b50506001600a55505050505050565b6000610a92826040518060600160405280602981526020016138746029913960029190611bb0565b60098054604080516020601f60026000196101006001881615020190951694909404938401819004810282018101909252828152606093909290918301828280156105bc5780601f10610591576101008083540402835291602001916105bc565b60006001600160a01b038216610e4a5760405162461bcd60e51b815260040180806020018281038252602a81526020018061384a602a913960400191505060405180910390fd5b6001600160a01b0382166000908152600160205260409020610a929061191f565b610e736118a9565b6001600160a01b0316610e84611068565b6001600160a01b031614610edf576040805162461bcd60e51b815260206004820181905260248201527f4f776e61626c653a2063616c6c6572206973206e6f7420746865206f776e6572604482015290519081900360640190fd5b600b546040516000916001600160a01b0316907f8be0079c531659141344cd1fd0a4f28419497f9722a3daafe3b4186f6b6457e0908390a3600b80546001600160a01b0319169055565b6002600a541415610f6f576040805162461bcd60e51b815260206004820152601f6024820152600080516020613724833981519152604482015290519081900360640190fd5b6002600a553383610f80828261192a565b610f9c5760405162461bcd60e51b8152600401610729906133f3565b83838080601f01602080910402602001604051908101604052809392919081815260200183838082843760009201919091525050825115159150610ff490505760405162461bcd60e51b8152600401610729906134b2565b6110348686868080601f016020809104026020016040519081016040528093929190818152602001838380828437600092019190915250611bc792505050565b857fe3df41127db820c79e5b8d541a63e40e3e97b9af96f7a50bded13091b70df9ae3387876040516109229392919061326d565b600b546001600160a01b031690565b6002600a5414156110bd576040805162461bcd60e51b815260206004820152601f6024820152600080516020613724833981519152604482015290519081900360640190fd5b6002600a5560408501516110d49033858585611c0c565b6110f05760405162461bcd60e51b8152600401610729906135d3565b610b9c338686611cdc565b60078054604080516020601f60026000196101006001881615020190951694909404938401819004810282018101909252828152606093909290918301828280156105bc5780601f10610591576101008083540402835291602001916105bc565b6002600a5414156111a2576040805162461bcd60e51b815260206004820152601f6024820152600080516020613724833981519152604482015290519081900360640190fd5b6002600a556111af6118a9565b6001600160a01b03166111c0611068565b6001600160a01b03161461121b576040805162461bcd60e51b815260206004820181905260248201527f4f776e61626c653a2063616c6c6572206973206e6f7420746865206f776e6572604482015290519081900360640190fd5b611226838383611cdc565b50506001600a5550565b600d602052600090815260409020546001600160a01b031681565b600c546001600160a01b031681565b6112626118a9565b6001600160a01b0316826001600160a01b031614156112c8576040805162461bcd60e51b815260206004820152601960248201527f4552433732313a20617070726f766520746f2063616c6c657200000000000000604482015290519081900360640190fd5b80600560006112d56118a9565b6001600160a01b03908116825260208083019390935260409182016000908120918716808252919093529120805460ff1916921515929092179091556113196118a9565b6001600160a01b03167f17307eab39ab6107e8899845ad3d59bd9653f200f220920489ca2b5937696c318360405180821515815260200191505060405180910390a35050565b6002600a5414156113a5576040805162461bcd60e51b815260206004820152601f6024820152600080516020613724833981519152604482015290519081900360640190fd5b6002600a556113b3816105c6565b6001600160a01b0316336001600160a01b0316146113e35760405162461bcd60e51b81526004016107299061342a565b6113ee6000826118ad565b506001600a55565b6002600a54141561143c576040805162461bcd60e51b815260206004820152601f6024820152600080516020613724833981519152604482015290519081900360640190fd5b6002600a55808061144d601361191b565b1161146a5760405162461bcd60e51b815260040161072990613332565b600c5460405163776a083560e01b81526001600160a01b039091169063776a08359061149c908590339060040161365b565b600060405180830381600087803b1580156114b657600080fd5b505af11580156114ca573d6000803e3d6000fd5b50506001600a5550505050565b6114e86114e26118a9565b8361192a565b6115235760405162461bcd60e51b81526004018080602001828103825260318152602001806139616031913960400191505060405180910390fd5b61152f84848484611ea9565b50505050565b6002600a54141561157b576040805162461bcd60e51b815260206004820152601f6024820152600080516020613724833981519152604482015290519081900360640190fd5b6002600a55338261158c828261192a565b6115a85760405162461bcd60e51b8152600401610729906133f3565b600c5460405163ba33939960e01b81526001600160a01b039091169063ba33939990610d3d90879087906004016136c0565b606081806115e8601361191b565b116116055760405162461bcd60e51b815260040161072990613332565b60008381526008602090815260408083208054825160026001831615610100026000190190921691909104601f8101859004850282018501909352828152929091908301828280156116985780601f1061166d57610100808354040283529160200191611698565b820191906000526020600020905b81548152906001019060200180831161167b57829003601f168201915b509398975050505050505050565b600e602052600090815260409020546001600160a01b031681565b6001600160a01b03918216600090815260056020908152604080832093909416825291909152205460ff1690565b6116f76118a9565b6001600160a01b0316611708611068565b6001600160a01b031614611763576040805162461bcd60e51b815260206004820181905260248201527f4f776e61626c653a2063616c6c6572206973206e6f7420746865206f776e6572604482015290519081900360640190fd5b6001600160a01b0381166117a85760405162461bcd60e51b81526004018080602001828103825260268152602001806137766026913960400191505060405180910390fd5b600b546040516001600160a01b038084169216907f8be0079c531659141344cd1fd0a4f28419497f9722a3daafe3b4186f6b6457e090600090a3600b80546001600160a01b0319166001600160a01b0392909216919091179055565b600c546001600160a01b0316331461182e5760405162461bcd60e51b8152600401610729906133bc565b61183782610d7a565b6000838152600d6020526040902080546001600160a01b0319166001600160a01b039290921691909117905561188661186f83610d7a565b828460405180602001604052806000815250611ea9565b5050565b600f6020526000908152604090205481565b6000610a92600283611efb565b3390565b600081815260046020526040902080546001600160a01b0319166001600160a01b03841690811790915581906118e282610d7a565b6001600160a01b03167f8c5be1e5ebec7d5bd14f71427d1e84f3dd0314c0f7b2291e5b200ac8c7c3b92560405160405180910390a45050565b5490565b6000610a928261191b565b60006119358261189c565b6119705760405162461bcd60e51b815260040180806020018281038252602c8152602001806137e6602c913960400191505060405180910390fd5b600061197b83610d7a565b9050806001600160a01b0316846001600160a01b031614806119b65750836001600160a01b03166119ab846105c6565b6001600160a01b0316145b806119c657506119c681856116c1565b949350505050565b6119d78261189c565b611a125760405162461bcd60e51b815260040180806020018281038252602c8152602001806138eb602c913960400191505060405180910390fd5b600082815260086020908152604090912082516106f992840190612ae9565b600c546040516328220f3560e01b81526001600160a01b03909116906328220f3590611a619084906004016132b8565b600060405180830381600087803b158015611a7b57600080fd5b505af1158015611a8f573d6000803e3d6000fd5b505050506106f9838383611f07565b6000610a8f8383612053565b60008181526008602090815260408083208054825160026001831615610100026000190190921691909104601f810185900485028201850190935282815292909190830182828015611b3d5780601f10611b1257610100808354040283529160200191611b3d565b820191906000526020600020905b815481529060010190602001808311611b2057829003601f168201915b50505050509050611b4d826120b7565b805115611b755760008281526008602090815260409091208251611b7392840190612ae9565b505b506000908152600d6020526040902080546001600160a01b0319169055565b6000808080611ba38686612184565b9097909650945050505050565b6000611bbd8484846121ff565b90505b9392505050565b81611bd18161189c565b611bed5760405162461bcd60e51b815260040161072990613556565b6000838152601160209081526040909120835161152f92850190612ae9565b6000808686604051602001611c22929190613208565b604051602081830303815290604052805190602001209050600081604051602001611c4d9190613228565b604051602081830303815290604052805190602001209050611c6d611068565b6001600160a01b031660018288888860405160008152602001604052604051611c9994939291906132c1565b6020604051602081039080840390855afa158015611cbb573d6000803e3d6000fd5b505050602060405103516001600160a01b0316149250505095945050505050565b81518051611cfc5760405162461bcd60e51b8152600401610729906134b2565b60208301518051611d1f5760405162461bcd60e51b8152600401610729906134b2565b6040840151611d405760405162461bcd60e51b81526004016107299061346d565b60408085015160009081526012602052205460ff1615611d725760405162461bcd60e51b8152600401610729906134f9565b6060840151611d935760405162461bcd60e51b81526004016107299061358d565b6000611d9f601361191b565b9050611dab86826122c9565b611db560136122e3565b611dc38186604001516122ec565b611dd1818660600151612325565b611ddf818660200151611bc7565b611ded8186600001516119ce565b604080860151600090815260126020908152828220805460ff19166001179055838252600e815282822080546001600160a01b03808c166001600160a01b03199283168117909355600d90935292849020805490931617909155600c5491516375aab41d60e11b815291169063eb55683a90611e6f9084908890600401613696565b600060405180830381600087803b158015611e8957600080fd5b505af1158015611e9d573d6000803e3d6000fd5b50505050505050505050565b611eb4848484611a31565b611ec08484848461235e565b61152f5760405162461bcd60e51b81526004018080602001828103825260328152602001806137446032913960400191505060405180910390fd5b6000610a8f83836124c6565b826001600160a01b0316611f1a82610d7a565b6001600160a01b031614611f5f5760405162461bcd60e51b81526004018080602001828103825260298152602001806139176029913960400191505060405180910390fd5b6001600160a01b038216611fa45760405162461bcd60e51b815260040180806020018281038252602481526020018061379c6024913960400191505060405180910390fd5b611faf8383836106f9565b611fba6000826118ad565b6001600160a01b0383166000908152600160205260409020611fdc90826124de565b506001600160a01b0382166000908152600160205260409020611fff90826124ea565b5061200c600282846124f6565b5080826001600160a01b0316846001600160a01b03167fddf252ad1be2c89b69c2b068fc378daa952ba7f163c4a11628f55a4df523b3ef60405160405180910390a4505050565b815460009082106120955760405162461bcd60e51b81526004018080602001828103825260228152602001806137026022913960400191505060405180910390fd5b8260000182815481106120a457fe5b9060005260206000200154905092915050565b60006120c282610d7a565b90506120d0816000846106f9565b6120db6000836118ad565b600082815260086020526040902054600260001961010060018416150201909116041561211957600082815260086020526040812061211991612b75565b6001600160a01b038116600090815260016020526040902061213b90836124de565b5061214760028361250c565b5060405182906000906001600160a01b038416907fddf252ad1be2c89b69c2b068fc378daa952ba7f163c4a11628f55a4df523b3ef908390a45050565b8154600090819083106121c85760405162461bcd60e51b815260040180806020018281038252602281526020018061389d6022913960400191505060405180910390fd5b60008460000184815481106121d957fe5b906000526020600020906002020190508060000154816001015492509250509250929050565b6000828152600184016020526040812054828161229a5760405162461bcd60e51b81526004018080602001828103825283818151815260200191508051906020019080838360005b8381101561225f578181015183820152602001612247565b50505050905090810190601f16801561228c5780820380516001836020036101000a031916815260200191505b509250505060405180910390fd5b508460000160018203815481106122ad57fe5b9060005260206000209060020201600101549150509392505050565b611886828260405180602001604052806000815250612518565b80546001019055565b816122f68161189c565b6123125760405162461bcd60e51b815260040161072990613556565b506000918252600f602052604090912055565b8161232f8161189c565b61234b5760405162461bcd60e51b815260040161072990613556565b5060009182526010602052604090912055565b6000612372846001600160a01b031661256a565b61237e575060016119c6565b600061248c630a85bd0160e11b6123936118a9565b88878760405160240180856001600160a01b03168152602001846001600160a01b0316815260200183815260200180602001828103825283818151815260200191508051906020019080838360005b838110156123fa5781810151838201526020016123e2565b50505050905090810190601f1680156124275780820380516001836020036101000a031916815260200191505b5095505050505050604051602081830303815290604052906001600160e01b0319166020820180516001600160e01b038381831617835250505050604051806060016040528060328152602001613744603291396001600160a01b0388169190612570565b905060008180602001905160208110156124a557600080fd5b50516001600160e01b031916630a85bd0160e11b1492505050949350505050565b60009081526001919091016020526040902054151590565b6000610a8f838361257f565b6000610a8f8383612645565b6000611bbd84846001600160a01b03851661268f565b6000610a8f8383612726565b61252283836127fa565b61252f600084848461235e565b6106f95760405162461bcd60e51b81526004018080602001828103825260328152602001806137446032913960400191505060405180910390fd5b3b151590565b6060611bbd8484600085612928565b6000818152600183016020526040812054801561263b57835460001980830191908101906000908790839081106125b257fe5b90600052602060002001549050808760000184815481106125cf57fe5b6000918252602080832090910192909255828152600189810190925260409020908401905586548790806125ff57fe5b60019003818190600052602060002001600090559055866001016000878152602001908152602001600020600090556001945050505050610a92565b6000915050610a92565b600061265183836124c6565b61268757508154600181810184556000848152602080822090930184905584548482528286019093526040902091909155610a92565b506000610a92565b6000828152600184016020526040812054806126f4575050604080518082018252838152602080820184815286546001818101895560008981528481209551600290930290950191825591519082015586548684528188019092529290912055611bc0565b8285600001600183038154811061270757fe5b9060005260206000209060020201600101819055506000915050611bc0565b6000818152600183016020526040812054801561263b578354600019808301919081019060009087908390811061275957fe5b906000526020600020906002020190508087600001848154811061277957fe5b6000918252602080832084546002909302019182556001938401549184019190915583548252898301905260409020908401905586548790806127b857fe5b6000828152602080822060026000199094019384020182815560019081018390559290935588815289820190925260408220919091559450610a929350505050565b6001600160a01b038216612855576040805162461bcd60e51b815260206004820181905260248201527f4552433732313a206d696e7420746f20746865207a65726f2061646472657373604482015290519081900360640190fd5b61285e8161189c565b156128b0576040805162461bcd60e51b815260206004820152601c60248201527f4552433732313a20746f6b656e20616c7265616479206d696e74656400000000604482015290519081900360640190fd5b6128bc600083836106f9565b6001600160a01b03821660009081526001602052604090206128de90826124ea565b506128eb600282846124f6565b5060405181906001600160a01b038416906000907fddf252ad1be2c89b69c2b068fc378daa952ba7f163c4a11628f55a4df523b3ef908290a45050565b6060824710156129695760405162461bcd60e51b81526004018080602001828103825260268152602001806137c06026913960400191505060405180910390fd5b6129728561256a565b6129c3576040805162461bcd60e51b815260206004820152601d60248201527f416464726573733a2063616c6c20746f206e6f6e2d636f6e7472616374000000604482015290519081900360640190fd5b600080866001600160a01b031685876040518082805190602001908083835b60208310612a015780518252601f1990920191602091820191016129e2565b6001836020036101000a03801982511681845116808217855250505050505090500191505060006040518083038185875af1925050503d8060008114612a63576040519150601f19603f3d011682016040523d82523d6000602084013e612a68565b606091505b5091509150612a78828286612a83565b979650505050505050565b60608315612a92575081611bc0565b825115612aa25782518084602001fd5b60405162461bcd60e51b815260206004820181815284516024840152845185939192839260440191908501908083836000831561225f578181015183820152602001612247565b828054600181600116156101000203166002900490600052602060002090601f016020900481019282612b1f5760008555612b65565b82601f10612b3857805160ff1916838001178555612b65565b82800160010185558215612b65579182015b82811115612b65578251825591602001919060010190612b4a565b50612b71929150612bbc565b5090565b50805460018160011615610100020316600290046000825580601f10612b9b5750612bb9565b601f016020900490600052602060002090810190612bb99190612bbc565b50565b5b80821115612b715760008155600101612bbd565b600067ffffffffffffffff80841115612be657fe5b604051601f8501601f191681016020018281118282101715612c0457fe5b604052848152915081838501861015612c1c57600080fd5b8484602083013760006020868301015250509392505050565b80356001600160a01b038116811461052b57600080fd5b600082601f830112612c5c578081fd5b610a8f83833560208501612bd1565b600060608284031215612c7c578081fd5b6040516060810181811067ffffffffffffffff82111715612c9957fe5b604052905080612ca98484612cd6565b8152612cb88460208501612cd6565b6020820152612cca8460408501612cd6565b60408201525092915050565b600060208284031215612ce7578081fd5b6040516020810181811067ffffffffffffffff82111715612d0457fe5b6040529135825250919050565b600060808284031215612d22578081fd5b6040516080810167ffffffffffffffff8282108183111715612d4057fe5b816040528293508435915080821115612d5857600080fd5b612d6486838701612c4c565b83526020850135915080821115612d7a57600080fd5b50612d8785828601612c4c565b60208301525060408301356040820152606083013560608201525092915050565b600060208284031215612db9578081fd5b610a8f82612c35565b60008060408385031215612dd4578081fd5b612ddd83612c35565b9150612deb60208401612c35565b90509250929050565b600080600060608486031215612e08578081fd5b612e1184612c35565b9250612e1f60208501612c35565b9150604084013590509250925092565b60008060008060808587031215612e44578081fd5b612e4d85612c35565b9350612e5b60208601612c35565b925060408501359150606085013567ffffffffffffffff811115612e7d578182fd5b8501601f81018713612e8d578182fd5b612e9c87823560208401612bd1565b91505092959194509250565b60008060408385031215612eba578182fd5b612ec383612c35565b915060208301358015158114612ed7578182fd5b809150509250929050565b600080600060a08486031215612ef6578283fd5b612eff84612c35565b9250602084013567ffffffffffffffff811115612f1a578283fd5b612f2686828701612d11565b925050612f368560408601612c6b565b90509250925092565b60008060408385031215612f51578182fd5b612f5a83612c35565b946020939093013593505050565b600060208284031215612f79578081fd5b81356001600160e01b031981168114611bc0578182fd5b600080600080600060e08688031215612fa7578283fd5b853567ffffffffffffffff811115612fbd578384fd5b612fc988828901612d11565b955050612fd98760208801612c6b565b9350608086013560ff81168114612fee578384fd5b9497939650939460a0810135945060c0013592915050565b600060208284031215613017578081fd5b5035919050565b60008060408385031215613030578182fd5b82359150612deb60208401612c35565b600080600060408486031215613054578081fd5b83359250602084013567ffffffffffffffff80821115613072578283fd5b818601915086601f830112613085578283fd5b813581811115613093578384fd5b8760208285010111156130a4578384fd5b6020830194508093505050509250925092565b60008082840360608112156130ca578283fd5b833592506040601f19820112156130df578182fd5b506040516040810181811067ffffffffffffffff821117156130fd57fe5b80604052506020840135815261311560408501612c35565b6020820152809150509250929050565b60008082840360c0811215613138578283fd5b8335925060a0601f198201121561314d578182fd5b5060405160a0810181811067ffffffffffffffff8211171561316b57fe5b80604052506020840135815261318360408501612c35565b602082015261319460608501612c35565b60408201526131a560808501612c35565b60608201526131b78560a08601612cd6565b6080820152809150509250929050565b805182526020808201516001600160a01b03908116918401919091526040808301518216908401526060808301519091169083015260809081015151910152565b91825260601b6bffffffffffffffffffffffff1916602082015260340190565b7f19457468657265756d205369676e6564204d6573736167653a0a3332000000008152601c810191909152603c0190565b6001600160a01b0391909116815260200190565b6001600160a01b03841681526040602082018190528101829052600082846060840137818301606090810191909152601f909201601f1916010192915050565b901515815260200190565b90815260200190565b93845260ff9290921660208401526040830152606082015260800190565b6000602080835283518082850152825b8181101561330b578581018301518582016040015282016132ef565b8181111561331c5783604083870101525b50601f01601f1916929092016040019392505050565b60208082526029908201527f436c697049743a20746f6b656e2077697468207468617420696420646f6573206040820152681b9bdd08195e1a5cdd60ba1b606082015260800190565b60208082526021908201527f4d61726b65743a20426964646572206d757374206265206d73672073656e64656040820152603960f91b606082015260800190565b6020808252601c908201527f436c697049743a206f6e6c79206d61726b657420636f6e747261637400000000604082015260600190565b6020808252601e908201527f436c697049743a204f6e6c7920617070726f766564206f72206f776e65720000604082015260600190565b60208082526023908201527f436c697049743a2063616c6c6572206e6f7420617070726f766564206164647260408201526265737360e81b606082015260800190565b60208082526025908201527f436c697049743a20636f6e74656e742068617368206d757374206265206e6f6e6040820152642d7a65726f60d81b606082015260800190565b60208082526027908201527f436c697049743a2073706563696669656420757269206d757374206265206e6f6040820152666e2d656d70747960c81b606082015260800190565b6020808252603f908201527f436c697049743a206120746f6b656e2068617320616c7265616479206265656e60408201527f20637265617465642077697468207468697320636f6e74656e74206861736800606082015260800190565b60208082526019908201527f436c697049743a206e6f6e6578697374656e7420746f6b656e00000000000000604082015260600190565b60208082526026908201527f436c697049743a206d657461646174612068617368206d757374206265206e6f6040820152656e2d7a65726f60d01b606082015260800190565b60208082526023908201527f436c697049743a2061646472657373206e6f7420616c6c6f77656420746f206d6040820152621a5b9d60ea1b606082015260800190565b60208082526025908201527f436c697049743a206f776e6572206973206e6f742063726561746f72206f66206040820152646d6564696160d81b606082015260800190565b9182526001600160a01b0316602082015260400190565b918252805160208084019190915201516001600160a01b0316604082015260600190565b91825280515160208084019190915281015151604080840191909152015151606082015260800190565b82815260c08101611bc060208301846131c7565b83815260e081016136e860208301856131c7565b6001600160a01b039290921660c091909101529291505056fe456e756d657261626c655365743a20696e646578206f7574206f6620626f756e64735265656e7472616e637947756172643a207265656e7472616e742063616c6c004552433732313a207472616e7366657220746f206e6f6e20455243373231526563656976657220696d706c656d656e7465724f776e61626c653a206e6577206f776e657220697320746865207a65726f20616464726573734552433732313a207472616e7366657220746f20746865207a65726f2061646472657373416464726573733a20696e73756666696369656e742062616c616e636520666f722063616c6c4552433732313a206f70657261746f7220717565727920666f72206e6f6e6578697374656e7420746f6b656e4552433732313a20617070726f76652063616c6c6572206973206e6f74206f776e6572206e6f7220617070726f76656420666f7220616c6c4552433732313a2062616c616e636520717565727920666f7220746865207a65726f20616464726573734552433732313a206f776e657220717565727920666f72206e6f6e6578697374656e7420746f6b656e456e756d657261626c654d61703a20696e646578206f7574206f6620626f756e64734552433732313a20617070726f76656420717565727920666f72206e6f6e6578697374656e7420746f6b656e4552433732314d657461646174613a2055524920736574206f66206e6f6e6578697374656e7420746f6b656e4552433732313a207472616e73666572206f6620746f6b656e2074686174206973206e6f74206f776e4552433732313a20617070726f76616c20746f2063757272656e74206f776e65724552433732313a207472616e736665722063616c6c6572206973206e6f74206f776e6572206e6f7220617070726f766564a2646970667358221220046a7d61e6b0576eb230015e3c79089e4af40e6d717b5678aa3791a6e5e990e664736f6c63430007060033",
  "linkReferences": {},
  "deployedLinkReferences": {}
}