{
  "_format": "hh-sol-artifact-1",
  "contractName": "ClipIt",
  "sourceName": "contracts/ClipIt.sol",
  "abi": [
    {
      "inputs": [
        {
          "internalType": "address",
          "name": "marketContractAddr",
          "type": "address"
        }
      ],
      "stateMutability": "nonpayable",
      "type": "constructor"
    },
    {
      "anonymous": false,
      "inputs": [
        {
          "indexed": true,
          "internalType": "address",
          "name": "owner",
          "type": "address"
        },
        {
          "indexed": true,
          "internalType": "address",
          "name": "approved",
          "type": "address"
        },
        {
          "indexed": true,
          "internalType": "uint256",
          "name": "tokenId",
          "type": "uint256"
        }
      ],
      "name": "Approval",
      "type": "event"
    },
    {
      "anonymous": false,
      "inputs": [
        {
          "indexed": true,
          "internalType": "address",
          "name": "owner",
          "type": "address"
        },
        {
          "indexed": true,
          "internalType": "address",
          "name": "operator",
          "type": "address"
        },
        {
          "indexed": false,
          "internalType": "bool",
          "name": "approved",
          "type": "bool"
        }
      ],
      "name": "ApprovalForAll",
      "type": "event"
    },
    {
      "anonymous": false,
      "inputs": [
        {
          "indexed": true,
          "internalType": "address",
          "name": "previousOwner",
          "type": "address"
        },
        {
          "indexed": true,
          "internalType": "address",
          "name": "newOwner",
          "type": "address"
        }
      ],
      "name": "OwnershipTransferred",
      "type": "event"
    },
    {
      "anonymous": false,
      "inputs": [
        {
          "indexed": true,
          "internalType": "uint256",
          "name": "_tokenId",
          "type": "uint256"
        },
        {
          "indexed": false,
          "internalType": "address",
          "name": "owner",
          "type": "address"
        },
        {
          "indexed": false,
          "internalType": "string",
          "name": "_uri",
          "type": "string"
        }
      ],
      "name": "TokenMetadataURIUpdated",
      "type": "event"
    },
    {
      "anonymous": false,
      "inputs": [
        {
          "indexed": true,
          "internalType": "uint256",
          "name": "_tokenId",
          "type": "uint256"
        },
        {
          "indexed": false,
          "internalType": "address",
          "name": "owner",
          "type": "address"
        },
        {
          "indexed": false,
          "internalType": "string",
          "name": "_uri",
          "type": "string"
        }
      ],
      "name": "TokenURIUpdated",
      "type": "event"
    },
    {
      "anonymous": false,
      "inputs": [
        {
          "indexed": true,
          "internalType": "address",
          "name": "from",
          "type": "address"
        },
        {
          "indexed": true,
          "internalType": "address",
          "name": "to",
          "type": "address"
        },
        {
          "indexed": true,
          "internalType": "uint256",
          "name": "tokenId",
          "type": "uint256"
        }
      ],
      "name": "Transfer",
      "type": "event"
    },
    {
      "inputs": [
        {
          "internalType": "uint256",
          "name": "tokenId",
          "type": "uint256"
        },
        {
          "components": [
            {
              "internalType": "uint256",
              "name": "amount",
              "type": "uint256"
            },
            {
              "internalType": "address",
              "name": "currency",
              "type": "address"
            },
            {
              "internalType": "address",
              "name": "bidder",
              "type": "address"
            },
            {
              "internalType": "address",
              "name": "recipient",
              "type": "address"
            },
            {
              "components": [
                {
                  "internalType": "uint256",
                  "name": "value",
                  "type": "uint256"
                }
              ],
              "internalType": "struct Decimal.D256",
              "name": "sellOnShare",
              "type": "tuple"
            }
          ],
          "internalType": "struct IMarket.Bid",
          "name": "bid",
          "type": "tuple"
        }
      ],
      "name": "acceptBid",
      "outputs": [],
      "stateMutability": "nonpayable",
      "type": "function"
    },
    {
      "inputs": [
        {
          "internalType": "address",
          "name": "to",
          "type": "address"
        },
        {
          "internalType": "uint256",
          "name": "tokenId",
          "type": "uint256"
        }
      ],
      "name": "approve",
      "outputs": [],
      "stateMutability": "nonpayable",
      "type": "function"
    },
    {
      "inputs": [
        {
          "internalType": "uint256",
          "name": "tokenId",
          "type": "uint256"
        },
        {
          "internalType": "address",
          "name": "recipient",
          "type": "address"
        }
      ],
      "name": "auctionTransfer",
      "outputs": [],
      "stateMutability": "nonpayable",
      "type": "function"
    },
    {
      "inputs": [
        {
          "internalType": "address",
          "name": "owner",
          "type": "address"
        }
      ],
      "name": "balanceOf",
      "outputs": [
        {
          "internalType": "uint256",
          "name": "",
          "type": "uint256"
        }
      ],
      "stateMutability": "view",
      "type": "function"
    },
    {
      "inputs": [],
      "name": "baseURI",
      "outputs": [
        {
          "internalType": "string",
          "name": "",
          "type": "string"
        }
      ],
      "stateMutability": "view",
      "type": "function"
    },
    {
      "inputs": [
        {
          "internalType": "uint256",
          "name": "tokenId",
          "type": "uint256"
        }
      ],
      "name": "burn",
      "outputs": [],
      "stateMutability": "nonpayable",
      "type": "function"
    },
    {
      "inputs": [
        {
          "internalType": "uint256",
          "name": "tokenId",
          "type": "uint256"
        }
      ],
      "name": "getApproved",
      "outputs": [
        {
          "internalType": "address",
          "name": "",
          "type": "address"
        }
      ],
      "stateMutability": "view",
      "type": "function"
    },
    {
      "inputs": [
        {
          "internalType": "address",
          "name": "owner",
          "type": "address"
        },
        {
          "internalType": "address",
          "name": "operator",
          "type": "address"
        }
      ],
      "name": "isApprovedForAll",
      "outputs": [
        {
          "internalType": "bool",
          "name": "",
          "type": "bool"
        }
      ],
      "stateMutability": "view",
      "type": "function"
    },
    {
      "inputs": [],
      "name": "marketContract",
      "outputs": [
        {
          "internalType": "address",
          "name": "",
          "type": "address"
        }
      ],
      "stateMutability": "view",
      "type": "function"
    },
    {
      "inputs": [
        {
          "components": [
            {
              "internalType": "string",
              "name": "tokenURI",
              "type": "string"
            },
            {
              "internalType": "string",
              "name": "metadataURI",
              "type": "string"
            },
            {
              "internalType": "bytes32",
              "name": "contentHash",
              "type": "bytes32"
            },
            {
              "internalType": "bytes32",
              "name": "metadataHash",
              "type": "bytes32"
            }
          ],
          "internalType": "struct IClipIt.MediaData",
          "name": "data",
          "type": "tuple"
        },
        {
          "components": [
            {
              "components": [
                {
                  "internalType": "uint256",
                  "name": "value",
                  "type": "uint256"
                }
              ],
              "internalType": "struct Decimal.D256",
              "name": "prevOwner",
              "type": "tuple"
            },
            {
              "components": [
                {
                  "internalType": "uint256",
                  "name": "value",
                  "type": "uint256"
                }
              ],
              "internalType": "struct Decimal.D256",
              "name": "creator",
              "type": "tuple"
            },
            {
              "components": [
                {
                  "internalType": "uint256",
                  "name": "value",
                  "type": "uint256"
                }
              ],
              "internalType": "struct Decimal.D256",
              "name": "owner",
              "type": "tuple"
            }
          ],
          "internalType": "struct IMarket.BidShares",
          "name": "bidShares",
          "type": "tuple"
        },
        {
          "internalType": "uint8",
          "name": "v",
          "type": "uint8"
        },
        {
          "internalType": "bytes32",
          "name": "r",
          "type": "bytes32"
        },
        {
          "internalType": "bytes32",
          "name": "s",
          "type": "bytes32"
        }
      ],
      "name": "mint",
      "outputs": [],
      "stateMutability": "nonpayable",
      "type": "function"
    },
    {
      "inputs": [],
      "name": "name",
      "outputs": [
        {
          "internalType": "string",
          "name": "",
          "type": "string"
        }
      ],
      "stateMutability": "view",
      "type": "function"
    },
    {
      "inputs": [],
      "name": "owner",
      "outputs": [
        {
          "internalType": "address",
          "name": "",
          "type": "address"
        }
      ],
      "stateMutability": "view",
      "type": "function"
    },
    {
      "inputs": [
        {
          "internalType": "uint256",
          "name": "tokenId",
          "type": "uint256"
        }
      ],
      "name": "ownerOf",
      "outputs": [
        {
          "internalType": "address",
          "name": "",
          "type": "address"
        }
      ],
      "stateMutability": "view",
      "type": "function"
    },
    {
      "inputs": [
        {
          "internalType": "uint256",
          "name": "",
          "type": "uint256"
        }
      ],
      "name": "previousTokenOwners",
      "outputs": [
        {
          "internalType": "address",
          "name": "",
          "type": "address"
        }
      ],
      "stateMutability": "view",
      "type": "function"
    },
    {
      "inputs": [
        {
          "internalType": "uint256",
          "name": "tokenId",
          "type": "uint256"
        }
      ],
      "name": "removeAsk",
      "outputs": [],
      "stateMutability": "nonpayable",
      "type": "function"
    },
    {
      "inputs": [
        {
          "internalType": "uint256",
          "name": "tokenId",
          "type": "uint256"
        }
      ],
      "name": "removeBid",
      "outputs": [],
      "stateMutability": "nonpayable",
      "type": "function"
    },
    {
      "inputs": [],
      "name": "renounceOwnership",
      "outputs": [],
      "stateMutability": "nonpayable",
      "type": "function"
    },
    {
      "inputs": [
        {
          "internalType": "uint256",
          "name": "tokenId",
          "type": "uint256"
        }
      ],
      "name": "revokeApproval",
      "outputs": [],
      "stateMutability": "nonpayable",
      "type": "function"
    },
    {
      "inputs": [
        {
          "internalType": "address",
          "name": "from",
          "type": "address"
        },
        {
          "internalType": "address",
          "name": "to",
          "type": "address"
        },
        {
          "internalType": "uint256",
          "name": "tokenId",
          "type": "uint256"
        }
      ],
      "name": "safeTransferFrom",
      "outputs": [],
      "stateMutability": "nonpayable",
      "type": "function"
    },
    {
      "inputs": [
        {
          "internalType": "address",
          "name": "from",
          "type": "address"
        },
        {
          "internalType": "address",
          "name": "to",
          "type": "address"
        },
        {
          "internalType": "uint256",
          "name": "tokenId",
          "type": "uint256"
        },
        {
          "internalType": "bytes",
          "name": "_data",
          "type": "bytes"
        }
      ],
      "name": "safeTransferFrom",
      "outputs": [],
      "stateMutability": "nonpayable",
      "type": "function"
    },
    {
      "inputs": [
        {
          "internalType": "address",
          "name": "operator",
          "type": "address"
        },
        {
          "internalType": "bool",
          "name": "approved",
          "type": "bool"
        }
      ],
      "name": "setApprovalForAll",
      "outputs": [],
      "stateMutability": "nonpayable",
      "type": "function"
    },
    {
      "inputs": [
        {
          "internalType": "uint256",
          "name": "tokenId",
          "type": "uint256"
        },
        {
          "components": [
            {
              "internalType": "uint256",
              "name": "amount",
              "type": "uint256"
            },
            {
              "internalType": "address",
              "name": "currency",
              "type": "address"
            }
          ],
          "internalType": "struct IMarket.Ask",
          "name": "ask",
          "type": "tuple"
        }
      ],
      "name": "setAsk",
      "outputs": [],
      "stateMutability": "nonpayable",
      "type": "function"
    },
    {
      "inputs": [
        {
          "internalType": "uint256",
          "name": "tokenId",
          "type": "uint256"
        },
        {
          "components": [
            {
              "internalType": "uint256",
              "name": "amount",
              "type": "uint256"
            },
            {
              "internalType": "address",
              "name": "currency",
              "type": "address"
            },
            {
              "internalType": "address",
              "name": "bidder",
              "type": "address"
            },
            {
              "internalType": "address",
              "name": "recipient",
              "type": "address"
            },
            {
              "components": [
                {
                  "internalType": "uint256",
                  "name": "value",
                  "type": "uint256"
                }
              ],
              "internalType": "struct Decimal.D256",
              "name": "sellOnShare",
              "type": "tuple"
            }
          ],
          "internalType": "struct IMarket.Bid",
          "name": "bid",
          "type": "tuple"
        }
      ],
      "name": "setBid",
      "outputs": [],
      "stateMutability": "nonpayable",
      "type": "function"
    },
    {
      "inputs": [
        {
          "internalType": "bytes4",
          "name": "interfaceId",
          "type": "bytes4"
        }
      ],
      "name": "supportsInterface",
      "outputs": [
        {
          "internalType": "bool",
          "name": "",
          "type": "bool"
        }
      ],
      "stateMutability": "view",
      "type": "function"
    },
    {
      "inputs": [],
      "name": "symbol",
      "outputs": [
        {
          "internalType": "string",
          "name": "",
          "type": "string"
        }
      ],
      "stateMutability": "view",
      "type": "function"
    },
    {
      "inputs": [
        {
          "internalType": "uint256",
          "name": "index",
          "type": "uint256"
        }
      ],
      "name": "tokenByIndex",
      "outputs": [
        {
          "internalType": "uint256",
          "name": "",
          "type": "uint256"
        }
      ],
      "stateMutability": "view",
      "type": "function"
    },
    {
      "inputs": [
        {
          "internalType": "uint256",
          "name": "",
          "type": "uint256"
        }
      ],
      "name": "tokenContentHashes",
      "outputs": [
        {
          "internalType": "bytes32",
          "name": "",
          "type": "bytes32"
        }
      ],
      "stateMutability": "view",
      "type": "function"
    },
    {
      "inputs": [
        {
          "internalType": "uint256",
          "name": "",
          "type": "uint256"
        }
      ],
      "name": "tokenCreators",
      "outputs": [
        {
          "internalType": "address",
          "name": "",
          "type": "address"
        }
      ],
      "stateMutability": "view",
      "type": "function"
    },
    {
      "inputs": [
        {
          "internalType": "uint256",
          "name": "",
          "type": "uint256"
        }
      ],
      "name": "tokenMetadataHashes",
      "outputs": [
        {
          "internalType": "bytes32",
          "name": "",
          "type": "bytes32"
        }
      ],
      "stateMutability": "view",
      "type": "function"
    },
    {
      "inputs": [
        {
          "internalType": "uint256",
          "name": "tokenId",
          "type": "uint256"
        }
      ],
      "name": "tokenMetadataURI",
      "outputs": [
        {
          "internalType": "string",
          "name": "",
          "type": "string"
        }
      ],
      "stateMutability": "view",
      "type": "function"
    },
    {
      "inputs": [
        {
          "internalType": "address",
          "name": "owner",
          "type": "address"
        },
        {
          "internalType": "uint256",
          "name": "index",
          "type": "uint256"
        }
      ],
      "name": "tokenOfOwnerByIndex",
      "outputs": [
        {
          "internalType": "uint256",
          "name": "",
          "type": "uint256"
        }
      ],
      "stateMutability": "view",
      "type": "function"
    },
    {
      "inputs": [
        {
          "internalType": "uint256",
          "name": "tokenId",
          "type": "uint256"
        }
      ],
      "name": "tokenURI",
      "outputs": [
        {
          "internalType": "string",
          "name": "",
          "type": "string"
        }
      ],
      "stateMutability": "view",
      "type": "function"
    },
    {
      "inputs": [],
      "name": "totalSupply",
      "outputs": [
        {
          "internalType": "uint256",
          "name": "",
          "type": "uint256"
        }
      ],
      "stateMutability": "view",
      "type": "function"
    },
    {
      "inputs": [
        {
          "internalType": "address",
          "name": "from",
          "type": "address"
        },
        {
          "internalType": "address",
          "name": "to",
          "type": "address"
        },
        {
          "internalType": "uint256",
          "name": "tokenId",
          "type": "uint256"
        }
      ],
      "name": "transferFrom",
      "outputs": [],
      "stateMutability": "nonpayable",
      "type": "function"
    },
    {
      "inputs": [
        {
          "internalType": "address",
          "name": "newOwner",
          "type": "address"
        }
      ],
      "name": "transferOwnership",
      "outputs": [],
      "stateMutability": "nonpayable",
      "type": "function"
    },
    {
      "inputs": [
        {
          "internalType": "uint256",
          "name": "tokenId",
          "type": "uint256"
        },
        {
          "internalType": "string",
          "name": "metadataURI",
          "type": "string"
        }
      ],
      "name": "updateTokenMetadataURI",
      "outputs": [],
      "stateMutability": "nonpayable",
      "type": "function"
    },
    {
      "inputs": [
        {
          "internalType": "uint256",
          "name": "tokenId",
          "type": "uint256"
        },
        {
          "internalType": "string",
          "name": "_tokenURI",
          "type": "string"
        }
      ],
      "name": "updateTokenURI",
      "outputs": [],
      "stateMutability": "nonpayable",
      "type": "function"
    }
  ],
  "bytecode": "0x60806040523480156200001157600080fd5b5060405162003b3b38038062003b3b833981016040819052620000349162000299565b604080518082018252600681526510db1a5c125d60d21b602080830191909152825180840190935260048352630434c49560e41b90830152906200007f6301ffc9a760e01b62000164565b815162000094906006906020850190620001ed565b508051620000aa906007906020840190620001ed565b50620000bd6380ac58cd60e01b62000164565b620000cf63780e9d6360e01b62000164565b50506001600a556000620000e2620001e9565b600b80546001600160a01b0319166001600160a01b038316908117909155604051919250906000907f8be0079c531659141344cd1fd0a4f28419497f9722a3daafe3b4186f6b6457e0908290a350600c80546001600160a01b0319166001600160a01b0383161790556200015d632711173360e11b62000164565b50620002c9565b6001600160e01b03198082161415620001c4576040805162461bcd60e51b815260206004820152601c60248201527f4552433136353a20696e76616c696420696e7465726661636520696400000000604482015290519081900360640190fd5b6001600160e01b0319166000908152602081905260409020805460ff19166001179055565b3390565b828054600181600116156101000203166002900490600052602060002090601f01602090048101928262000225576000855562000270565b82601f106200024057805160ff191683800117855562000270565b8280016001018555821562000270579182015b828111156200027057825182559160200191906001019062000253565b506200027e92915062000282565b5090565b5b808211156200027e576000815560010162000283565b600060208284031215620002ab578081fd5b81516001600160a01b0381168114620002c2578182fd5b9392505050565b61386280620002d96000396000f3fe608060405234801561001057600080fd5b50600436106102275760003560e01c806370a0823111610130578063b1e130fc116100b8578063e0fd045f1161007c578063e0fd045f1461047e578063e985e9c514610491578063f2fde38b146104a4578063f6b630f0146104b7578063fad32197146104ca57610227565b8063b1e130fc1461041f578063b320f45914610432578063b88d4fde14610445578063ba33939914610458578063c87b56dd1461046b57610227565b806392044c60116100ff57806392044c60146103d657806395d89b41146103e95780639d8e7260146103f1578063a1794bcd14610404578063a22cb4651461040c57610227565b806370a08231146103a0578063715018a6146103b357806375682e79146103bb5780638da5cb5b146103ce57610227565b806328220f35116101b35780634f6ccce7116101825780634f6ccce71461034c5780635bf624221461035f57806362f24b70146103725780636352211e146103855780636c0360eb1461039857610227565b806328220f35146103005780632f745c591461031357806342842e0e1461032657806342966c681461033957610227565b8063095ea7b3116101fa578063095ea7b3146102aa578063157c3df9146102bf57806318160ddd146102d257806318e97fd1146102da57806323b872dd146102ed57610227565b806301ddc3b51461022c57806301ffc9a71461025557806306fdde0314610275578063081812fc1461028a575b600080fd5b61023f61023a366004612ea1565b6104dd565b60405161024c9190613153565b60405180910390f35b610268610263366004612d93565b6104ef565b60405161024c9190613148565b61027d610512565b60405161024c919061317a565b61029d610298366004612ea1565b6105a8565b60405161024c91906130f4565b6102bd6102b8366004612d6a565b61060a565b005b61027d6102cd366004612ea1565b6106e0565b61023f6107b4565b6102bd6102e8366004612edb565b6107c5565b6102bd6102fb366004612c7c565b610919565b6102bd61030e366004612ea1565b610970565b61023f610321366004612d6a565b610a4f565b6102bd610334366004612c7c565b610a7a565b6102bd610347366004612ea1565b610a95565b61023f61035a366004612ea1565b610b8a565b6102bd61036d366004612fc0565b610ba0565b6102bd610380366004612f52565b610c7a565b61029d610393366004612ea1565b610d5c565b61027d610d84565b61023f6103ae366004612c30565b610de5565b6102bd610e4d565b6102bd6103c9366004612edb565b610f0b565b61029d61104a565b6102bd6103e4366004612dbb565b611059565b61027d6110dd565b61029d6103ff366004612ea1565b61113e565b61029d611159565b6102bd61041a366004612d30565b611168565b6102bd61042d366004612ea1565b61126d565b6102bd610440366004612ea1565b611304565b6102bd610453366004612cb7565b6113e5565b6102bd610466366004612fc0565b611443565b61027d610479366004612ea1565b6114e8565b61029d61048c366004612ea1565b6115b4565b61026861049f366004612c4a565b6115cf565b6102bd6104b2366004612c30565b6115fd565b6102bd6104c5366004612eb9565b611712565b61023f6104d8366004612ea1565b611798565b60106020526000908152604090205481565b6001600160e01b0319811660009081526020819052604090205460ff165b919050565b60068054604080516020601f600260001961010060018816150201909516949094049384018190048102820181019092528281526060939092909183018282801561059e5780601f106105735761010080835404028352916020019161059e565b820191906000526020600020905b81548152906001019060200180831161058157829003601f168201915b5050505050905090565b60006105b3826117aa565b6105ee5760405162461bcd60e51b815260040180806020018281038252602c81526020018061375a602c913960400191505060405180910390fd5b506000908152600460205260409020546001600160a01b031690565b600061061582610d5c565b9050806001600160a01b0316836001600160a01b031614156106685760405162461bcd60e51b81526004018080602001828103825260218152602001806137db6021913960400191505060405180910390fd5b806001600160a01b031661067a6117b7565b6001600160a01b0316148061069657506106968161049f6117b7565b6106d15760405162461bcd60e51b81526004018080602001828103825260388152602001806136ad6038913960400191505060405180910390fd5b6106db83836117bb565b505050565b606081806106ee6013611829565b116107145760405162461bcd60e51b815260040161070b906131cd565b60405180910390fd5b60008381526011602090815260409182902080548351601f6002600019610100600186161502019093169290920491820184900484028101840190945280845290918301828280156107a75780601f1061077c576101008083540402835291602001916107a7565b820191906000526020600020905b81548152906001019060200180831161078a57829003601f168201915b5050505050915050919050565b60006107c0600261182d565b905090565b6002600a54141561080b576040805162461bcd60e51b815260206004820152601f60248201526000805160206135bf833981519152604482015290519081900360640190fd5b6002600a55338361081c8282611838565b6108385760405162461bcd60e51b815260040161070b9061328e565b83838080601f0160208091040260200160405190810160405280939291908181526020018383808284376000920191909152505082511515915061089090505760405162461bcd60e51b815260040161070b9061334d565b6108d08686868080601f0160208091040260200160405190810160405280939291908181526020018383808284376000920191909152506118dc92505050565b857f702fe2dc2dc0f68023540aa4a1e11811c0f29112f6ebf01e61b90538e4f2981033878760405161090493929190613108565b60405180910390a250506001600a5550505050565b61092a6109246117b7565b82611838565b6109655760405162461bcd60e51b81526004018080602001828103825260318152602001806137fc6031913960400191505060405180910390fd5b6106db83838361193f565b6002600a5414156109b6576040805162461bcd60e51b815260206004820152601f60248201526000805160206135bf833981519152604482015290519081900360640190fd5b6002600a5533816109c78282611838565b6109e35760405162461bcd60e51b815260040161070b9061328e565b600c546040516328220f3560e01b81526001600160a01b03909116906328220f3590610a13908690600401613153565b600060405180830381600087803b158015610a2d57600080fd5b505af1158015610a41573d6000803e3d6000fd5b50506001600a555050505050565b6001600160a01b0382166000908152600160205260408120610a7190836119ac565b90505b92915050565b6106db838383604051806020016040528060008152506113e5565b6002600a541415610adb576040805162461bcd60e51b815260206004820152601f60248201526000805160206135bf833981519152604482015290519081900360640190fd5b6002600a5580610aea816117aa565b610b065760405162461bcd60e51b815260040161070b906133f1565b3382610b128282611838565b610b2e5760405162461bcd60e51b815260040161070b9061328e565b6000610b3985610d5c565b6000868152600e60205260409020549091506001600160a01b03808316911614610b755760405162461bcd60e51b815260040161070b906134b1565b610b7e856119b8565b50506001600a55505050565b600080610b98600284611aa2565b509392505050565b6002600a541415610be6576040805162461bcd60e51b815260206004820152601f60248201526000805160206135bf833981519152604482015290519081900360640190fd5b6002600a5581610bf5816117aa565b610c115760405162461bcd60e51b815260040161070b906133f1565b81604001516001600160a01b0316336001600160a01b031614610c465760405162461bcd60e51b815260040161070b90613216565b600c546040516317b6b0d360e31b81526001600160a01b039091169063bdb5869890610a139086908690339060040161356f565b6002600a541415610cc0576040805162461bcd60e51b815260206004820152601f60248201526000805160206135bf833981519152604482015290519081900360640190fd5b6002600a553382610cd18282611838565b610ced5760405162461bcd60e51b815260040161070b9061328e565b600c5460405163062f24b760e41b81526001600160a01b03909116906362f24b7090610d1f908790879060040161350d565b600060405180830381600087803b158015610d3957600080fd5b505af1158015610d4d573d6000803e3d6000fd5b50506001600a55505050505050565b6000610a748260405180606001604052806029815260200161370f6029913960029190611abe565b60098054604080516020601f600260001961010060018816150201909516949094049384018190048102820181019092528281526060939092909183018282801561059e5780601f106105735761010080835404028352916020019161059e565b60006001600160a01b038216610e2c5760405162461bcd60e51b815260040180806020018281038252602a8152602001806136e5602a913960400191505060405180910390fd5b6001600160a01b0382166000908152600160205260409020610a749061182d565b610e556117b7565b6001600160a01b0316610e6661104a565b6001600160a01b031614610ec1576040805162461bcd60e51b815260206004820181905260248201527f4f776e61626c653a2063616c6c6572206973206e6f7420746865206f776e6572604482015290519081900360640190fd5b600b546040516000916001600160a01b0316907f8be0079c531659141344cd1fd0a4f28419497f9722a3daafe3b4186f6b6457e0908390a3600b80546001600160a01b0319169055565b6002600a541415610f51576040805162461bcd60e51b815260206004820152601f60248201526000805160206135bf833981519152604482015290519081900360640190fd5b6002600a553383610f628282611838565b610f7e5760405162461bcd60e51b815260040161070b9061328e565b83838080601f01602080910402602001604051908101604052809392919081815260200183838082843760009201919091525050825115159150610fd690505760405162461bcd60e51b815260040161070b9061334d565b6110168686868080601f016020809104026020016040519081016040528093929190818152602001838380828437600092019190915250611ad592505050565b857fe3df41127db820c79e5b8d541a63e40e3e97b9af96f7a50bded13091b70df9ae33878760405161090493929190613108565b600b546001600160a01b031690565b6002600a54141561109f576040805162461bcd60e51b815260206004820152601f60248201526000805160206135bf833981519152604482015290519081900360640190fd5b6002600a5560408501516110b69033858585611b1a565b6110d25760405162461bcd60e51b815260040161070b9061346e565b610b7e338686611bea565b60078054604080516020601f600260001961010060018816150201909516949094049384018190048102820181019092528281526060939092909183018282801561059e5780601f106105735761010080835404028352916020019161059e565b600d602052600090815260409020546001600160a01b031681565b600c546001600160a01b031681565b6111706117b7565b6001600160a01b0316826001600160a01b031614156111d6576040805162461bcd60e51b815260206004820152601960248201527f4552433732313a20617070726f766520746f2063616c6c657200000000000000604482015290519081900360640190fd5b80600560006111e36117b7565b6001600160a01b03908116825260208083019390935260409182016000908120918716808252919093529120805460ff1916921515929092179091556112276117b7565b6001600160a01b03167f17307eab39ab6107e8899845ad3d59bd9653f200f220920489ca2b5937696c318360405180821515815260200191505060405180910390a35050565b6002600a5414156112b3576040805162461bcd60e51b815260206004820152601f60248201526000805160206135bf833981519152604482015290519081900360640190fd5b6002600a556112c1816105a8565b6001600160a01b0316336001600160a01b0316146112f15760405162461bcd60e51b815260040161070b906132c5565b6112fc6000826117bb565b506001600a55565b6002600a54141561134a576040805162461bcd60e51b815260206004820152601f60248201526000805160206135bf833981519152604482015290519081900360640190fd5b6002600a55808061135b6013611829565b116113785760405162461bcd60e51b815260040161070b906131cd565b600c5460405163776a083560e01b81526001600160a01b039091169063776a0835906113aa90859033906004016134f6565b600060405180830381600087803b1580156113c457600080fd5b505af11580156113d8573d6000803e3d6000fd5b50506001600a5550505050565b6113f66113f06117b7565b83611838565b6114315760405162461bcd60e51b81526004018080602001828103825260318152602001806137fc6031913960400191505060405180910390fd5b61143d84848484611db7565b50505050565b6002600a541415611489576040805162461bcd60e51b815260206004820152601f60248201526000805160206135bf833981519152604482015290519081900360640190fd5b6002600a55338261149a8282611838565b6114b65760405162461bcd60e51b815260040161070b9061328e565b600c5460405163ba33939960e01b81526001600160a01b039091169063ba33939990610d1f908790879060040161355b565b606081806114f66013611829565b116115135760405162461bcd60e51b815260040161070b906131cd565b60008381526008602090815260408083208054825160026001831615610100026000190190921691909104601f8101859004850282018501909352828152929091908301828280156115a65780601f1061157b576101008083540402835291602001916115a6565b820191906000526020600020905b81548152906001019060200180831161158957829003601f168201915b509398975050505050505050565b600e602052600090815260409020546001600160a01b031681565b6001600160a01b03918216600090815260056020908152604080832093909416825291909152205460ff1690565b6116056117b7565b6001600160a01b031661161661104a565b6001600160a01b031614611671576040805162461bcd60e51b815260206004820181905260248201527f4f776e61626c653a2063616c6c6572206973206e6f7420746865206f776e6572604482015290519081900360640190fd5b6001600160a01b0381166116b65760405162461bcd60e51b81526004018080602001828103825260268152602001806136116026913960400191505060405180910390fd5b600b546040516001600160a01b038084169216907f8be0079c531659141344cd1fd0a4f28419497f9722a3daafe3b4186f6b6457e090600090a3600b80546001600160a01b0319166001600160a01b0392909216919091179055565b600c546001600160a01b0316331461173c5760405162461bcd60e51b815260040161070b90613257565b61174582610d5c565b6000838152600d6020526040902080546001600160a01b0319166001600160a01b039290921691909117905561179461177d83610d5c565b828460405180602001604052806000815250611db7565b5050565b600f6020526000908152604090205481565b6000610a74600283611e09565b3390565b600081815260046020526040902080546001600160a01b0319166001600160a01b03841690811790915581906117f082610d5c565b6001600160a01b03167f8c5be1e5ebec7d5bd14f71427d1e84f3dd0314c0f7b2291e5b200ac8c7c3b92560405160405180910390a45050565b5490565b6000610a7482611829565b6000611843826117aa565b61187e5760405162461bcd60e51b815260040180806020018281038252602c815260200180613681602c913960400191505060405180910390fd5b600061188983610d5c565b9050806001600160a01b0316846001600160a01b031614806118c45750836001600160a01b03166118b9846105a8565b6001600160a01b0316145b806118d457506118d481856115cf565b949350505050565b6118e5826117aa565b6119205760405162461bcd60e51b815260040180806020018281038252602c815260200180613786602c913960400191505060405180910390fd5b600082815260086020908152604090912082516106db928401906129f7565b600c546040516328220f3560e01b81526001600160a01b03909116906328220f359061196f908490600401613153565b600060405180830381600087803b15801561198957600080fd5b505af115801561199d573d6000803e3d6000fd5b505050506106db838383611e15565b6000610a718383611f61565b60008181526008602090815260408083208054825160026001831615610100026000190190921691909104601f810185900485028201850190935282815292909190830182828015611a4b5780601f10611a2057610100808354040283529160200191611a4b565b820191906000526020600020905b815481529060010190602001808311611a2e57829003601f168201915b50505050509050611a5b82611fc5565b805115611a835760008281526008602090815260409091208251611a81928401906129f7565b505b506000908152600d6020526040902080546001600160a01b0319169055565b6000808080611ab18686612092565b9097909650945050505050565b6000611acb84848461210d565b90505b9392505050565b81611adf816117aa565b611afb5760405162461bcd60e51b815260040161070b906133f1565b6000838152601160209081526040909120835161143d928501906129f7565b6000808686604051602001611b309291906130a3565b604051602081830303815290604052805190602001209050600081604051602001611b5b91906130c3565b604051602081830303815290604052805190602001209050611b7b61104a565b6001600160a01b031660018288888860405160008152602001604052604051611ba7949392919061315c565b6020604051602081039080840390855afa158015611bc9573d6000803e3d6000fd5b505050602060405103516001600160a01b0316149250505095945050505050565b81518051611c0a5760405162461bcd60e51b815260040161070b9061334d565b60208301518051611c2d5760405162461bcd60e51b815260040161070b9061334d565b6040840151611c4e5760405162461bcd60e51b815260040161070b90613308565b60408085015160009081526012602052205460ff1615611c805760405162461bcd60e51b815260040161070b90613394565b6060840151611ca15760405162461bcd60e51b815260040161070b90613428565b6000611cad6013611829565b9050611cb986826121d7565b611cc360136121f1565b611cd18186604001516121fa565b611cdf818660600151612233565b611ced818660200151611ad5565b611cfb8186600001516118dc565b604080860151600090815260126020908152828220805460ff19166001179055838252600e815282822080546001600160a01b03808c166001600160a01b03199283168117909355600d90935292849020805490931617909155600c5491516375aab41d60e11b815291169063eb55683a90611d7d9084908890600401613531565b600060405180830381600087803b158015611d9757600080fd5b505af1158015611dab573d6000803e3d6000fd5b50505050505050505050565b611dc284848461193f565b611dce8484848461226c565b61143d5760405162461bcd60e51b81526004018080602001828103825260328152602001806135df6032913960400191505060405180910390fd5b6000610a7183836123d4565b826001600160a01b0316611e2882610d5c565b6001600160a01b031614611e6d5760405162461bcd60e51b81526004018080602001828103825260298152602001806137b26029913960400191505060405180910390fd5b6001600160a01b038216611eb25760405162461bcd60e51b81526004018080602001828103825260248152602001806136376024913960400191505060405180910390fd5b611ebd8383836106db565b611ec86000826117bb565b6001600160a01b0383166000908152600160205260409020611eea90826123ec565b506001600160a01b0382166000908152600160205260409020611f0d90826123f8565b50611f1a60028284612404565b5080826001600160a01b0316846001600160a01b03167fddf252ad1be2c89b69c2b068fc378daa952ba7f163c4a11628f55a4df523b3ef60405160405180910390a4505050565b81546000908210611fa35760405162461bcd60e51b815260040180806020018281038252602281526020018061359d6022913960400191505060405180910390fd5b826000018281548110611fb257fe5b9060005260206000200154905092915050565b6000611fd082610d5c565b9050611fde816000846106db565b611fe96000836117bb565b600082815260086020526040902054600260001961010060018416150201909116041561202757600082815260086020526040812061202791612a83565b6001600160a01b038116600090815260016020526040902061204990836123ec565b5061205560028361241a565b5060405182906000906001600160a01b038416907fddf252ad1be2c89b69c2b068fc378daa952ba7f163c4a11628f55a4df523b3ef908390a45050565b8154600090819083106120d65760405162461bcd60e51b81526004018080602001828103825260228152602001806137386022913960400191505060405180910390fd5b60008460000184815481106120e757fe5b906000526020600020906002020190508060000154816001015492509250509250929050565b600082815260018401602052604081205482816121a85760405162461bcd60e51b81526004018080602001828103825283818151815260200191508051906020019080838360005b8381101561216d578181015183820152602001612155565b50505050905090810190601f16801561219a5780820380516001836020036101000a031916815260200191505b509250505060405180910390fd5b508460000160018203815481106121bb57fe5b9060005260206000209060020201600101549150509392505050565b611794828260405180602001604052806000815250612426565b80546001019055565b81612204816117aa565b6122205760405162461bcd60e51b815260040161070b906133f1565b506000918252600f602052604090912055565b8161223d816117aa565b6122595760405162461bcd60e51b815260040161070b906133f1565b5060009182526010602052604090912055565b6000612280846001600160a01b0316612478565b61228c575060016118d4565b600061239a630a85bd0160e11b6122a16117b7565b88878760405160240180856001600160a01b03168152602001846001600160a01b0316815260200183815260200180602001828103825283818151815260200191508051906020019080838360005b838110156123085781810151838201526020016122f0565b50505050905090810190601f1680156123355780820380516001836020036101000a031916815260200191505b5095505050505050604051602081830303815290604052906001600160e01b0319166020820180516001600160e01b0383818316178352505050506040518060600160405280603281526020016135df603291396001600160a01b038816919061247e565b905060008180602001905160208110156123b357600080fd5b50516001600160e01b031916630a85bd0160e11b1492505050949350505050565b60009081526001919091016020526040902054151590565b6000610a71838361248d565b6000610a718383612553565b6000611acb84846001600160a01b03851661259d565b6000610a718383612634565b6124308383612708565b61243d600084848461226c565b6106db5760405162461bcd60e51b81526004018080602001828103825260328152602001806135df6032913960400191505060405180910390fd5b3b151590565b6060611acb8484600085612836565b6000818152600183016020526040812054801561254957835460001980830191908101906000908790839081106124c057fe5b90600052602060002001549050808760000184815481106124dd57fe5b60009182526020808320909101929092558281526001898101909252604090209084019055865487908061250d57fe5b60019003818190600052602060002001600090559055866001016000878152602001908152602001600020600090556001945050505050610a74565b6000915050610a74565b600061255f83836123d4565b61259557508154600181810184556000848152602080822090930184905584548482528286019093526040902091909155610a74565b506000610a74565b600082815260018401602052604081205480612602575050604080518082018252838152602080820184815286546001818101895560008981528481209551600290930290950191825591519082015586548684528188019092529290912055611ace565b8285600001600183038154811061261557fe5b9060005260206000209060020201600101819055506000915050611ace565b60008181526001830160205260408120548015612549578354600019808301919081019060009087908390811061266757fe5b906000526020600020906002020190508087600001848154811061268757fe5b6000918252602080832084546002909302019182556001938401549184019190915583548252898301905260409020908401905586548790806126c657fe5b6000828152602080822060026000199094019384020182815560019081018390559290935588815289820190925260408220919091559450610a749350505050565b6001600160a01b038216612763576040805162461bcd60e51b815260206004820181905260248201527f4552433732313a206d696e7420746f20746865207a65726f2061646472657373604482015290519081900360640190fd5b61276c816117aa565b156127be576040805162461bcd60e51b815260206004820152601c60248201527f4552433732313a20746f6b656e20616c7265616479206d696e74656400000000604482015290519081900360640190fd5b6127ca600083836106db565b6001600160a01b03821660009081526001602052604090206127ec90826123f8565b506127f960028284612404565b5060405181906001600160a01b038416906000907fddf252ad1be2c89b69c2b068fc378daa952ba7f163c4a11628f55a4df523b3ef908290a45050565b6060824710156128775760405162461bcd60e51b815260040180806020018281038252602681526020018061365b6026913960400191505060405180910390fd5b61288085612478565b6128d1576040805162461bcd60e51b815260206004820152601d60248201527f416464726573733a2063616c6c20746f206e6f6e2d636f6e7472616374000000604482015290519081900360640190fd5b600080866001600160a01b031685876040518082805190602001908083835b6020831061290f5780518252601f1990920191602091820191016128f0565b6001836020036101000a03801982511681845116808217855250505050505090500191505060006040518083038185875af1925050503d8060008114612971576040519150601f19603f3d011682016040523d82523d6000602084013e612976565b606091505b5091509150612986828286612991565b979650505050505050565b606083156129a0575081611ace565b8251156129b05782518084602001fd5b60405162461bcd60e51b815260206004820181815284516024840152845185939192839260440191908501908083836000831561216d578181015183820152602001612155565b828054600181600116156101000203166002900490600052602060002090601f016020900481019282612a2d5760008555612a73565b82601f10612a4657805160ff1916838001178555612a73565b82800160010185558215612a73579182015b82811115612a73578251825591602001919060010190612a58565b50612a7f929150612aca565b5090565b50805460018160011615610100020316600290046000825580601f10612aa95750612ac7565b601f016020900490600052602060002090810190612ac79190612aca565b50565b5b80821115612a7f5760008155600101612acb565b600067ffffffffffffffff80841115612af457fe5b604051601f8501601f191681016020018281118282101715612b1257fe5b604052848152915081838501861015612b2a57600080fd5b8484602083013760006020868301015250509392505050565b80356001600160a01b038116811461050d57600080fd5b600082601f830112612b6a578081fd5b610a7183833560208501612adf565b600060608284031215612b8a578081fd5b6040516060810181811067ffffffffffffffff82111715612ba757fe5b604052905080612bb78484612be4565b8152612bc68460208501612be4565b6020820152612bd88460408501612be4565b60408201525092915050565b600060208284031215612bf5578081fd5b6040516020810181811067ffffffffffffffff82111715612c1257fe5b6040529135825250919050565b803560ff8116811461050d57600080fd5b600060208284031215612c41578081fd5b610a7182612b43565b60008060408385031215612c5c578081fd5b612c6583612b43565b9150612c7360208401612b43565b90509250929050565b600080600060608486031215612c90578081fd5b612c9984612b43565b9250612ca760208501612b43565b9150604084013590509250925092565b60008060008060808587031215612ccc578081fd5b612cd585612b43565b9350612ce360208601612b43565b925060408501359150606085013567ffffffffffffffff811115612d05578182fd5b8501601f81018713612d15578182fd5b612d2487823560208401612adf565b91505092959194509250565b60008060408385031215612d42578182fd5b612d4b83612b43565b915060208301358015158114612d5f578182fd5b809150509250929050565b60008060408385031215612d7c578182fd5b612d8583612b43565b946020939093013593505050565b600060208284031215612da4578081fd5b81356001600160e01b031981168114611ace578182fd5b600080600080600060e08688031215612dd2578283fd5b853567ffffffffffffffff80821115612de9578485fd5b908701906080828a031215612dfc578485fd5b604051608081018181108382111715612e1157fe5b604052823582811115612e22578687fd5b612e2e8b828601612b5a565b825250602083013582811115612e42578687fd5b612e4e8b828601612b5a565b6020830152506040830135604082015260608301356060820152809750505050612e7b8760208801612b79565b9350612e8960808701612c1f565b9497939650939460a0810135945060c0013592915050565b600060208284031215612eb2578081fd5b5035919050565b60008060408385031215612ecb578182fd5b82359150612c7360208401612b43565b600080600060408486031215612eef578081fd5b83359250602084013567ffffffffffffffff80821115612f0d578283fd5b818601915086601f830112612f20578283fd5b813581811115612f2e578384fd5b876020828501011115612f3f578384fd5b6020830194508093505050509250925092565b6000808284036060811215612f65578283fd5b833592506040601f1982011215612f7a578182fd5b506040516040810181811067ffffffffffffffff82111715612f9857fe5b806040525060208401358152612fb060408501612b43565b6020820152809150509250929050565b60008082840360c0811215612fd3578283fd5b8335925060a0601f1982011215612fe8578182fd5b5060405160a0810181811067ffffffffffffffff8211171561300657fe5b80604052506020840135815261301e60408501612b43565b602082015261302f60608501612b43565b604082015261304060808501612b43565b60608201526130528560a08601612be4565b6080820152809150509250929050565b805182526020808201516001600160a01b03908116918401919091526040808301518216908401526060808301519091169083015260809081015151910152565b91825260601b6bffffffffffffffffffffffff1916602082015260340190565b7f19457468657265756d205369676e6564204d6573736167653a0a3332000000008152601c810191909152603c0190565b6001600160a01b0391909116815260200190565b6001600160a01b03841681526040602082018190528101829052600082846060840137818301606090810191909152601f909201601f1916010192915050565b901515815260200190565b90815260200190565b93845260ff9290921660208401526040830152606082015260800190565b6000602080835283518082850152825b818110156131a65785810183015185820160400152820161318a565b818111156131b75783604083870101525b50601f01601f1916929092016040019392505050565b60208082526029908201527f436c697049743a20746f6b656e2077697468207468617420696420646f6573206040820152681b9bdd08195e1a5cdd60ba1b606082015260800190565b60208082526021908201527f4d61726b65743a20426964646572206d757374206265206d73672073656e64656040820152603960f91b606082015260800190565b6020808252601c908201527f436c697049743a206f6e6c79206d61726b657420636f6e747261637400000000604082015260600190565b6020808252601e908201527f436c697049743a204f6e6c7920617070726f766564206f72206f776e65720000604082015260600190565b60208082526023908201527f436c697049743a2063616c6c6572206e6f7420617070726f766564206164647260408201526265737360e81b606082015260800190565b60208082526025908201527f436c697049743a20636f6e74656e742068617368206d757374206265206e6f6e6040820152642d7a65726f60d81b606082015260800190565b60208082526027908201527f436c697049743a2073706563696669656420757269206d757374206265206e6f6040820152666e2d656d70747960c81b606082015260800190565b6020808252603f908201527f436c697049743a206120746f6b656e2068617320616c7265616479206265656e60408201527f20637265617465642077697468207468697320636f6e74656e74206861736800606082015260800190565b60208082526019908201527f436c697049743a206e6f6e6578697374656e7420746f6b656e00000000000000604082015260600190565b60208082526026908201527f436c697049743a206d657461646174612068617368206d757374206265206e6f6040820152656e2d7a65726f60d01b606082015260800190565b60208082526023908201527f436c697049743a2061646472657373206e6f7420616c6c6f77656420746f206d6040820152621a5b9d60ea1b606082015260800190565b60208082526025908201527f436c697049743a206f776e6572206973206e6f742063726561746f72206f66206040820152646d6564696160d81b606082015260800190565b9182526001600160a01b0316602082015260400190565b918252805160208084019190915201516001600160a01b0316604082015260600190565b91825280515160208084019190915281015151604080840191909152015151606082015260800190565b82815260c08101611ace6020830184613062565b83815260e081016135836020830185613062565b6001600160a01b039290921660c091909101529291505056fe456e756d657261626c655365743a20696e646578206f7574206f6620626f756e64735265656e7472616e637947756172643a207265656e7472616e742063616c6c004552433732313a207472616e7366657220746f206e6f6e20455243373231526563656976657220696d706c656d656e7465724f776e61626c653a206e6577206f776e657220697320746865207a65726f20616464726573734552433732313a207472616e7366657220746f20746865207a65726f2061646472657373416464726573733a20696e73756666696369656e742062616c616e636520666f722063616c6c4552433732313a206f70657261746f7220717565727920666f72206e6f6e6578697374656e7420746f6b656e4552433732313a20617070726f76652063616c6c6572206973206e6f74206f776e6572206e6f7220617070726f76656420666f7220616c6c4552433732313a2062616c616e636520717565727920666f7220746865207a65726f20616464726573734552433732313a206f776e657220717565727920666f72206e6f6e6578697374656e7420746f6b656e456e756d657261626c654d61703a20696e646578206f7574206f6620626f756e64734552433732313a20617070726f76656420717565727920666f72206e6f6e6578697374656e7420746f6b656e4552433732314d657461646174613a2055524920736574206f66206e6f6e6578697374656e7420746f6b656e4552433732313a207472616e73666572206f6620746f6b656e2074686174206973206e6f74206f776e4552433732313a20617070726f76616c20746f2063757272656e74206f776e65724552433732313a207472616e736665722063616c6c6572206973206e6f74206f776e6572206e6f7220617070726f766564a2646970667358221220ad07fc937fa82ee127f792945c123f4cee9e57e284a6ad8db57e4f46b8cfa80064736f6c63430007060033",
  "linkReferences": {},
  "deployedLinkReferences": {}
}