{
  "_format": "hh-sol-artifact-1",
  "contractName": "ZoraMedia",
  "sourceName": "contracts/zora/Media.sol",
  "abi": [
    {
      "inputs": [
        {
          "internalType": "address",
          "name": "marketContractAddr",
          "type": "address"
        }
      ],
      "stateMutability": "nonpayable",
      "type": "constructor"
    },
    {
      "anonymous": false,
      "inputs": [
        {
          "indexed": true,
          "internalType": "address",
          "name": "owner",
          "type": "address"
        },
        {
          "indexed": true,
          "internalType": "address",
          "name": "approved",
          "type": "address"
        },
        {
          "indexed": true,
          "internalType": "uint256",
          "name": "tokenId",
          "type": "uint256"
        }
      ],
      "name": "Approval",
      "type": "event"
    },
    {
      "anonymous": false,
      "inputs": [
        {
          "indexed": true,
          "internalType": "address",
          "name": "owner",
          "type": "address"
        },
        {
          "indexed": true,
          "internalType": "address",
          "name": "operator",
          "type": "address"
        },
        {
          "indexed": false,
          "internalType": "bool",
          "name": "approved",
          "type": "bool"
        }
      ],
      "name": "ApprovalForAll",
      "type": "event"
    },
    {
      "anonymous": false,
      "inputs": [
        {
          "indexed": true,
          "internalType": "uint256",
          "name": "_tokenId",
          "type": "uint256"
        },
        {
          "indexed": false,
          "internalType": "address",
          "name": "owner",
          "type": "address"
        },
        {
          "indexed": false,
          "internalType": "string",
          "name": "_uri",
          "type": "string"
        }
      ],
      "name": "TokenMetadataURIUpdated",
      "type": "event"
    },
    {
      "anonymous": false,
      "inputs": [
        {
          "indexed": true,
          "internalType": "uint256",
          "name": "_tokenId",
          "type": "uint256"
        },
        {
          "indexed": false,
          "internalType": "address",
          "name": "owner",
          "type": "address"
        },
        {
          "indexed": false,
          "internalType": "string",
          "name": "_uri",
          "type": "string"
        }
      ],
      "name": "TokenURIUpdated",
      "type": "event"
    },
    {
      "anonymous": false,
      "inputs": [
        {
          "indexed": true,
          "internalType": "address",
          "name": "from",
          "type": "address"
        },
        {
          "indexed": true,
          "internalType": "address",
          "name": "to",
          "type": "address"
        },
        {
          "indexed": true,
          "internalType": "uint256",
          "name": "tokenId",
          "type": "uint256"
        }
      ],
      "name": "Transfer",
      "type": "event"
    },
    {
      "inputs": [],
      "name": "MINT_WITH_SIG_TYPEHASH",
      "outputs": [
        {
          "internalType": "bytes32",
          "name": "",
          "type": "bytes32"
        }
      ],
      "stateMutability": "view",
      "type": "function"
    },
    {
      "inputs": [],
      "name": "PERMIT_TYPEHASH",
      "outputs": [
        {
          "internalType": "bytes32",
          "name": "",
          "type": "bytes32"
        }
      ],
      "stateMutability": "view",
      "type": "function"
    },
    {
      "inputs": [
        {
          "internalType": "uint256",
          "name": "tokenId",
          "type": "uint256"
        },
        {
          "components": [
            {
              "internalType": "uint256",
              "name": "amount",
              "type": "uint256"
            },
            {
              "internalType": "address",
              "name": "currency",
              "type": "address"
            },
            {
              "internalType": "address",
              "name": "bidder",
              "type": "address"
            },
            {
              "internalType": "address",
              "name": "recipient",
              "type": "address"
            },
            {
              "components": [
                {
                  "internalType": "uint256",
                  "name": "value",
                  "type": "uint256"
                }
              ],
              "internalType": "struct Decimal.D256",
              "name": "sellOnShare",
              "type": "tuple"
            }
          ],
          "internalType": "struct IMarket.Bid",
          "name": "bid",
          "type": "tuple"
        }
      ],
      "name": "acceptBid",
      "outputs": [],
      "stateMutability": "nonpayable",
      "type": "function"
    },
    {
      "inputs": [
        {
          "internalType": "address",
          "name": "to",
          "type": "address"
        },
        {
          "internalType": "uint256",
          "name": "tokenId",
          "type": "uint256"
        }
      ],
      "name": "approve",
      "outputs": [],
      "stateMutability": "nonpayable",
      "type": "function"
    },
    {
      "inputs": [
        {
          "internalType": "uint256",
          "name": "tokenId",
          "type": "uint256"
        },
        {
          "internalType": "address",
          "name": "recipient",
          "type": "address"
        }
      ],
      "name": "auctionTransfer",
      "outputs": [],
      "stateMutability": "nonpayable",
      "type": "function"
    },
    {
      "inputs": [
        {
          "internalType": "address",
          "name": "owner",
          "type": "address"
        }
      ],
      "name": "balanceOf",
      "outputs": [
        {
          "internalType": "uint256",
          "name": "",
          "type": "uint256"
        }
      ],
      "stateMutability": "view",
      "type": "function"
    },
    {
      "inputs": [],
      "name": "baseURI",
      "outputs": [
        {
          "internalType": "string",
          "name": "",
          "type": "string"
        }
      ],
      "stateMutability": "view",
      "type": "function"
    },
    {
      "inputs": [
        {
          "internalType": "uint256",
          "name": "tokenId",
          "type": "uint256"
        }
      ],
      "name": "burn",
      "outputs": [],
      "stateMutability": "nonpayable",
      "type": "function"
    },
    {
      "inputs": [
        {
          "internalType": "uint256",
          "name": "tokenId",
          "type": "uint256"
        }
      ],
      "name": "getApproved",
      "outputs": [
        {
          "internalType": "address",
          "name": "",
          "type": "address"
        }
      ],
      "stateMutability": "view",
      "type": "function"
    },
    {
      "inputs": [
        {
          "internalType": "address",
          "name": "owner",
          "type": "address"
        },
        {
          "internalType": "address",
          "name": "operator",
          "type": "address"
        }
      ],
      "name": "isApprovedForAll",
      "outputs": [
        {
          "internalType": "bool",
          "name": "",
          "type": "bool"
        }
      ],
      "stateMutability": "view",
      "type": "function"
    },
    {
      "inputs": [],
      "name": "marketContract",
      "outputs": [
        {
          "internalType": "address",
          "name": "",
          "type": "address"
        }
      ],
      "stateMutability": "view",
      "type": "function"
    },
    {
      "inputs": [
        {
          "components": [
            {
              "internalType": "string",
              "name": "tokenURI",
              "type": "string"
            },
            {
              "internalType": "string",
              "name": "metadataURI",
              "type": "string"
            },
            {
              "internalType": "bytes32",
              "name": "contentHash",
              "type": "bytes32"
            },
            {
              "internalType": "bytes32",
              "name": "metadataHash",
              "type": "bytes32"
            }
          ],
          "internalType": "struct IMedia.MediaData",
          "name": "data",
          "type": "tuple"
        },
        {
          "components": [
            {
              "components": [
                {
                  "internalType": "uint256",
                  "name": "value",
                  "type": "uint256"
                }
              ],
              "internalType": "struct Decimal.D256",
              "name": "prevOwner",
              "type": "tuple"
            },
            {
              "components": [
                {
                  "internalType": "uint256",
                  "name": "value",
                  "type": "uint256"
                }
              ],
              "internalType": "struct Decimal.D256",
              "name": "creator",
              "type": "tuple"
            },
            {
              "components": [
                {
                  "internalType": "uint256",
                  "name": "value",
                  "type": "uint256"
                }
              ],
              "internalType": "struct Decimal.D256",
              "name": "owner",
              "type": "tuple"
            }
          ],
          "internalType": "struct IMarket.BidShares",
          "name": "bidShares",
          "type": "tuple"
        }
      ],
      "name": "mint",
      "outputs": [],
      "stateMutability": "nonpayable",
      "type": "function"
    },
    {
      "inputs": [
        {
          "internalType": "address",
          "name": "creator",
          "type": "address"
        },
        {
          "components": [
            {
              "internalType": "string",
              "name": "tokenURI",
              "type": "string"
            },
            {
              "internalType": "string",
              "name": "metadataURI",
              "type": "string"
            },
            {
              "internalType": "bytes32",
              "name": "contentHash",
              "type": "bytes32"
            },
            {
              "internalType": "bytes32",
              "name": "metadataHash",
              "type": "bytes32"
            }
          ],
          "internalType": "struct IMedia.MediaData",
          "name": "data",
          "type": "tuple"
        },
        {
          "components": [
            {
              "components": [
                {
                  "internalType": "uint256",
                  "name": "value",
                  "type": "uint256"
                }
              ],
              "internalType": "struct Decimal.D256",
              "name": "prevOwner",
              "type": "tuple"
            },
            {
              "components": [
                {
                  "internalType": "uint256",
                  "name": "value",
                  "type": "uint256"
                }
              ],
              "internalType": "struct Decimal.D256",
              "name": "creator",
              "type": "tuple"
            },
            {
              "components": [
                {
                  "internalType": "uint256",
                  "name": "value",
                  "type": "uint256"
                }
              ],
              "internalType": "struct Decimal.D256",
              "name": "owner",
              "type": "tuple"
            }
          ],
          "internalType": "struct IMarket.BidShares",
          "name": "bidShares",
          "type": "tuple"
        },
        {
          "components": [
            {
              "internalType": "uint256",
              "name": "deadline",
              "type": "uint256"
            },
            {
              "internalType": "uint8",
              "name": "v",
              "type": "uint8"
            },
            {
              "internalType": "bytes32",
              "name": "r",
              "type": "bytes32"
            },
            {
              "internalType": "bytes32",
              "name": "s",
              "type": "bytes32"
            }
          ],
          "internalType": "struct IMedia.EIP712Signature",
          "name": "sig",
          "type": "tuple"
        }
      ],
      "name": "mintWithSig",
      "outputs": [],
      "stateMutability": "nonpayable",
      "type": "function"
    },
    {
      "inputs": [
        {
          "internalType": "address",
          "name": "",
          "type": "address"
        }
      ],
      "name": "mintWithSigNonces",
      "outputs": [
        {
          "internalType": "uint256",
          "name": "",
          "type": "uint256"
        }
      ],
      "stateMutability": "view",
      "type": "function"
    },
    {
      "inputs": [],
      "name": "name",
      "outputs": [
        {
          "internalType": "string",
          "name": "",
          "type": "string"
        }
      ],
      "stateMutability": "view",
      "type": "function"
    },
    {
      "inputs": [
        {
          "internalType": "uint256",
          "name": "tokenId",
          "type": "uint256"
        }
      ],
      "name": "ownerOf",
      "outputs": [
        {
          "internalType": "address",
          "name": "",
          "type": "address"
        }
      ],
      "stateMutability": "view",
      "type": "function"
    },
    {
      "inputs": [
        {
          "internalType": "address",
          "name": "spender",
          "type": "address"
        },
        {
          "internalType": "uint256",
          "name": "tokenId",
          "type": "uint256"
        },
        {
          "components": [
            {
              "internalType": "uint256",
              "name": "deadline",
              "type": "uint256"
            },
            {
              "internalType": "uint8",
              "name": "v",
              "type": "uint8"
            },
            {
              "internalType": "bytes32",
              "name": "r",
              "type": "bytes32"
            },
            {
              "internalType": "bytes32",
              "name": "s",
              "type": "bytes32"
            }
          ],
          "internalType": "struct IMedia.EIP712Signature",
          "name": "sig",
          "type": "tuple"
        }
      ],
      "name": "permit",
      "outputs": [],
      "stateMutability": "nonpayable",
      "type": "function"
    },
    {
      "inputs": [
        {
          "internalType": "address",
          "name": "",
          "type": "address"
        },
        {
          "internalType": "uint256",
          "name": "",
          "type": "uint256"
        }
      ],
      "name": "permitNonces",
      "outputs": [
        {
          "internalType": "uint256",
          "name": "",
          "type": "uint256"
        }
      ],
      "stateMutability": "view",
      "type": "function"
    },
    {
      "inputs": [
        {
          "internalType": "uint256",
          "name": "",
          "type": "uint256"
        }
      ],
      "name": "previousTokenOwners",
      "outputs": [
        {
          "internalType": "address",
          "name": "",
          "type": "address"
        }
      ],
      "stateMutability": "view",
      "type": "function"
    },
    {
      "inputs": [
        {
          "internalType": "uint256",
          "name": "tokenId",
          "type": "uint256"
        }
      ],
      "name": "removeAsk",
      "outputs": [],
      "stateMutability": "nonpayable",
      "type": "function"
    },
    {
      "inputs": [
        {
          "internalType": "uint256",
          "name": "tokenId",
          "type": "uint256"
        }
      ],
      "name": "removeBid",
      "outputs": [],
      "stateMutability": "nonpayable",
      "type": "function"
    },
    {
      "inputs": [
        {
          "internalType": "uint256",
          "name": "tokenId",
          "type": "uint256"
        }
      ],
      "name": "revokeApproval",
      "outputs": [],
      "stateMutability": "nonpayable",
      "type": "function"
    },
    {
      "inputs": [
        {
          "internalType": "address",
          "name": "from",
          "type": "address"
        },
        {
          "internalType": "address",
          "name": "to",
          "type": "address"
        },
        {
          "internalType": "uint256",
          "name": "tokenId",
          "type": "uint256"
        }
      ],
      "name": "safeTransferFrom",
      "outputs": [],
      "stateMutability": "nonpayable",
      "type": "function"
    },
    {
      "inputs": [
        {
          "internalType": "address",
          "name": "from",
          "type": "address"
        },
        {
          "internalType": "address",
          "name": "to",
          "type": "address"
        },
        {
          "internalType": "uint256",
          "name": "tokenId",
          "type": "uint256"
        },
        {
          "internalType": "bytes",
          "name": "_data",
          "type": "bytes"
        }
      ],
      "name": "safeTransferFrom",
      "outputs": [],
      "stateMutability": "nonpayable",
      "type": "function"
    },
    {
      "inputs": [
        {
          "internalType": "address",
          "name": "operator",
          "type": "address"
        },
        {
          "internalType": "bool",
          "name": "approved",
          "type": "bool"
        }
      ],
      "name": "setApprovalForAll",
      "outputs": [],
      "stateMutability": "nonpayable",
      "type": "function"
    },
    {
      "inputs": [
        {
          "internalType": "uint256",
          "name": "tokenId",
          "type": "uint256"
        },
        {
          "components": [
            {
              "internalType": "uint256",
              "name": "amount",
              "type": "uint256"
            },
            {
              "internalType": "address",
              "name": "currency",
              "type": "address"
            }
          ],
          "internalType": "struct IMarket.Ask",
          "name": "ask",
          "type": "tuple"
        }
      ],
      "name": "setAsk",
      "outputs": [],
      "stateMutability": "nonpayable",
      "type": "function"
    },
    {
      "inputs": [
        {
          "internalType": "uint256",
          "name": "tokenId",
          "type": "uint256"
        },
        {
          "components": [
            {
              "internalType": "uint256",
              "name": "amount",
              "type": "uint256"
            },
            {
              "internalType": "address",
              "name": "currency",
              "type": "address"
            },
            {
              "internalType": "address",
              "name": "bidder",
              "type": "address"
            },
            {
              "internalType": "address",
              "name": "recipient",
              "type": "address"
            },
            {
              "components": [
                {
                  "internalType": "uint256",
                  "name": "value",
                  "type": "uint256"
                }
              ],
              "internalType": "struct Decimal.D256",
              "name": "sellOnShare",
              "type": "tuple"
            }
          ],
          "internalType": "struct IMarket.Bid",
          "name": "bid",
          "type": "tuple"
        }
      ],
      "name": "setBid",
      "outputs": [],
      "stateMutability": "nonpayable",
      "type": "function"
    },
    {
      "inputs": [
        {
          "internalType": "bytes4",
          "name": "interfaceId",
          "type": "bytes4"
        }
      ],
      "name": "supportsInterface",
      "outputs": [
        {
          "internalType": "bool",
          "name": "",
          "type": "bool"
        }
      ],
      "stateMutability": "view",
      "type": "function"
    },
    {
      "inputs": [],
      "name": "symbol",
      "outputs": [
        {
          "internalType": "string",
          "name": "",
          "type": "string"
        }
      ],
      "stateMutability": "view",
      "type": "function"
    },
    {
      "inputs": [
        {
          "internalType": "uint256",
          "name": "index",
          "type": "uint256"
        }
      ],
      "name": "tokenByIndex",
      "outputs": [
        {
          "internalType": "uint256",
          "name": "",
          "type": "uint256"
        }
      ],
      "stateMutability": "view",
      "type": "function"
    },
    {
      "inputs": [
        {
          "internalType": "uint256",
          "name": "",
          "type": "uint256"
        }
      ],
      "name": "tokenContentHashes",
      "outputs": [
        {
          "internalType": "bytes32",
          "name": "",
          "type": "bytes32"
        }
      ],
      "stateMutability": "view",
      "type": "function"
    },
    {
      "inputs": [
        {
          "internalType": "uint256",
          "name": "",
          "type": "uint256"
        }
      ],
      "name": "tokenCreators",
      "outputs": [
        {
          "internalType": "address",
          "name": "",
          "type": "address"
        }
      ],
      "stateMutability": "view",
      "type": "function"
    },
    {
      "inputs": [
        {
          "internalType": "uint256",
          "name": "",
          "type": "uint256"
        }
      ],
      "name": "tokenMetadataHashes",
      "outputs": [
        {
          "internalType": "bytes32",
          "name": "",
          "type": "bytes32"
        }
      ],
      "stateMutability": "view",
      "type": "function"
    },
    {
      "inputs": [
        {
          "internalType": "uint256",
          "name": "tokenId",
          "type": "uint256"
        }
      ],
      "name": "tokenMetadataURI",
      "outputs": [
        {
          "internalType": "string",
          "name": "",
          "type": "string"
        }
      ],
      "stateMutability": "view",
      "type": "function"
    },
    {
      "inputs": [
        {
          "internalType": "address",
          "name": "owner",
          "type": "address"
        },
        {
          "internalType": "uint256",
          "name": "index",
          "type": "uint256"
        }
      ],
      "name": "tokenOfOwnerByIndex",
      "outputs": [
        {
          "internalType": "uint256",
          "name": "",
          "type": "uint256"
        }
      ],
      "stateMutability": "view",
      "type": "function"
    },
    {
      "inputs": [
        {
          "internalType": "uint256",
          "name": "tokenId",
          "type": "uint256"
        }
      ],
      "name": "tokenURI",
      "outputs": [
        {
          "internalType": "string",
          "name": "",
          "type": "string"
        }
      ],
      "stateMutability": "view",
      "type": "function"
    },
    {
      "inputs": [],
      "name": "totalSupply",
      "outputs": [
        {
          "internalType": "uint256",
          "name": "",
          "type": "uint256"
        }
      ],
      "stateMutability": "view",
      "type": "function"
    },
    {
      "inputs": [
        {
          "internalType": "address",
          "name": "from",
          "type": "address"
        },
        {
          "internalType": "address",
          "name": "to",
          "type": "address"
        },
        {
          "internalType": "uint256",
          "name": "tokenId",
          "type": "uint256"
        }
      ],
      "name": "transferFrom",
      "outputs": [],
      "stateMutability": "nonpayable",
      "type": "function"
    },
    {
      "inputs": [
        {
          "internalType": "uint256",
          "name": "tokenId",
          "type": "uint256"
        },
        {
          "internalType": "string",
          "name": "metadataURI",
          "type": "string"
        }
      ],
      "name": "updateTokenMetadataURI",
      "outputs": [],
      "stateMutability": "nonpayable",
      "type": "function"
    },
    {
      "inputs": [
        {
          "internalType": "uint256",
          "name": "tokenId",
          "type": "uint256"
        },
        {
          "internalType": "string",
          "name": "tokenURI",
          "type": "string"
        }
      ],
      "name": "updateTokenURI",
      "outputs": [],
      "stateMutability": "nonpayable",
      "type": "function"
    }
  ],
  "bytecode": "0x60806040523480156200001157600080fd5b506040516200406338038062004063833981016040819052620000349162000242565b604051806040016040528060048152602001635a6f726160e01b815250604051806040016040528060048152602001635a4f524160e01b815250620000866301ffc9a760e01b6200011160201b60201c565b81516200009b90600690602085019062000196565b508051620000b190600790602084019062000196565b50620000c46380ac58cd60e01b62000111565b620000d663780e9d6360e01b62000111565b50506001600a55600b80546001600160a01b0319166001600160a01b0383161790556200010a632711173360e11b62000111565b5062000272565b6001600160e01b0319808216141562000171576040805162461bcd60e51b815260206004820152601c60248201527f4552433136353a20696e76616c696420696e7465726661636520696400000000604482015290519081900360640190fd5b6001600160e01b0319166000908152602081905260409020805460ff19166001179055565b828054600181600116156101000203166002900490600052602060002090601f016020900481019282620001ce576000855562000219565b82601f10620001e957805160ff191683800117855562000219565b8280016001018555821562000219579182015b8281111562000219578251825591602001919060010190620001fc565b50620002279291506200022b565b5090565b5b808211156200022757600081556001016200022c565b60006020828403121562000254578081fd5b81516001600160a01b03811681146200026b578182fd5b9392505050565b613de180620002826000396000f3fe608060405234801561001057600080fd5b50600436106102485760003560e01c80636352211e1161013b578063b320f459116100b8578063e0fd045f1161007c578063e0fd045f146104d8578063e985e9c5146104eb578063f6b630f0146104fe578063f8ccd5de14610511578063fad321971461052457610248565b8063b320f45914610484578063b88d4fde14610497578063ba339399146104aa578063c87b56dd146104bd578063de5236fb146104d057610248565b806395d89b41116100ff57806395d89b411461043b5780639d8e726014610443578063a1794bcd14610456578063a22cb4651461045e578063b1e130fc1461047157610248565b80636352211e146103e75780636c0360eb146103fa57806370a082311461040257806375682e79146104155780637a7a12021461042857610248565b806323b872dd116101c957806342842e0e1161018d57806342842e0e1461038857806342966c681461039b5780634f6ccce7146103ae5780635bf62422146103c157806362f24b70146103d457610248565b806323b872dd1461033457806328220f35146103475780632cca32371461035a5780632f745c591461036d57806330adf81f1461038057610248565b80630bcd899b116102105780630bcd899b146102e05780630e2a1778146102f3578063157c3df91461030657806318160ddd1461031957806318e97fd11461032157610248565b806301ddc3b51461024d57806301ffc9a71461027657806306fdde0314610296578063081812fc146102ab578063095ea7b3146102cb575b600080fd5b61026061025b3660046132d0565b610537565b60405161026d919061354c565b60405180910390f35b610289610284366004613264565b610549565b60405161026d9190613541565b61029e61056c565b60405161026d91906135f3565b6102be6102b93660046132d0565b610602565b60405161026d91906134ed565b6102de6102d93660046131ff565b610664565b005b6102606102ee366004613055565b61073a565b6102de610301366004613228565b61074c565b61029e6103143660046132d0565b61099c565b610260610a67565b6102de61032f36600461330a565b610a78565b6102de6103423660046130a1565b610bfa565b6102de6103553660046132d0565b610c51565b6102de61036836600461328c565b610d22565b61026061037b3660046131ff565b610d81565b610260610dac565b6102de6103963660046130a1565b610dd0565b6102de6103a93660046132d0565b610deb565b6102606103bc3660046132d0565b610ee0565b6102de6103cf3660046133ef565b610ef6565b6102de6103e2366004613381565b610fd0565b6102be6103f53660046132d0565b6110b2565b61029e6110da565b610260610410366004613055565b61113b565b6102de61042336600461330a565b6111a3565b6102de61043636600461318f565b61130f565b61029e6114ec565b6102be6104513660046132d0565b61154d565b6102be611568565b6102de61046c366004613155565b611577565b6102de61047f3660046132d0565b61167c565b6102de6104923660046132d0565b611713565b6102de6104a53660046130dc565b6117f4565b6102de6104b83660046133ef565b611852565b61029e6104cb3660046132d0565b6118f7565b6102606119c3565b6102be6104e63660046132d0565b6119e7565b6102896104f936600461306f565b611a02565b6102de61050c3660046132e8565b611a30565b61026061051f3660046131ff565b611ab6565b6102606105323660046132d0565b611ad3565b600f6020526000908152604090205481565b6001600160e01b0319811660009081526020819052604090205460ff165b919050565b60068054604080516020601f60026000196101006001881615020190951694909404938401819004810282018101909252828152606093909290918301828280156105f85780601f106105cd576101008083540402835291602001916105f8565b820191906000526020600020905b8154815290600101906020018083116105db57829003601f168201915b5050505050905090565b600061060d82611ae5565b6106485760405162461bcd60e51b815260040180806020018281038252602c815260200180613cd9602c913960400191505060405180910390fd5b506000908152600460205260409020546001600160a01b031690565b600061066f826110b2565b9050806001600160a01b0316836001600160a01b031614156106c25760405162461bcd60e51b8152600401808060200182810382526021815260200180613d5a6021913960400191505060405180910390fd5b806001600160a01b03166106d4611af2565b6001600160a01b031614806106f057506106f0816104f9611af2565b61072b5760405162461bcd60e51b8152600401808060200182810382526038815260200180613c2c6038913960400191505060405180910390fd5b6107358383611af6565b505050565b60136020526000908152604090205481565b6002600a541415610792576040805162461bcd60e51b815260206004820152601f6024820152600080516020613b64833981519152604482015290519081900360640190fd5b6002600a55816107a181611ae5565b6107c65760405162461bcd60e51b81526004016107bd90613a1e565b60405180910390fd5b815115806107d5575081514211155b6107f15760405162461bcd60e51b81526004016107bd906137db565b6001600160a01b0384166108175760405162461bcd60e51b81526004016107bd9061368e565b6000610821611b64565b90506000817f49ecf333e5b8c95c40fdafc95c1ad136e8914a8fb55e9dc8bb01eaa83a2df9ad8787601285610855836110b2565b6001600160a01b03168152602080820192909252604090810160009081208c825283528190208054600181019091558a5191516108989695949391929101613555565b604051602081830303815290604052805190602001206040516020016108bf9291906134d2565b60405160208183030381529060405280519060200120905060006001828660200151876040015188606001516040516000815260200160405260405161090894939291906135d5565b6020604051602081039080840390855afa15801561092a573d6000803e3d6000fd5b5050604051601f1901519150506001600160a01b038116158015906109685750806001600160a01b031661095d876110b2565b6001600160a01b0316145b6109845760405162461bcd60e51b81526004016107bd906139e7565b61098e8787611af6565b50506001600a555050505050565b606081806109aa6014611c2a565b116109c75760405162461bcd60e51b81526004016107bd90613646565b60008381526010602090815260409182902080548351601f600260001961010060018616150201909316929092049182018490048402810184019094528084529091830182828015610a5a5780601f10610a2f57610100808354040283529160200191610a5a565b820191906000526020600020905b815481529060010190602001808311610a3d57829003601f168201915b5050505050915050919050565b6000610a736002611c2e565b905090565b6002600a541415610abe576040805162461bcd60e51b815260206004820152601f6024820152600080516020613b64833981519152604482015290519081900360640190fd5b6002600a553383610acf8282611c39565b610aeb5760405162461bcd60e51b81526004016107bd906138e2565b6000858152600e60205260409020548590610b185760405162461bcd60e51b81526004016107bd90613919565b84848080601f01602080910402602001604051908101604052809392919081815260200183838082843760009201919091525050825115159150610b7090505760405162461bcd60e51b81526004016107bd90613a55565b610bb08787878080601f016020809104026020016040519081016040528093929190818152602001838380828437600092019190915250611cdd92505050565b867f702fe2dc2dc0f68023540aa4a1e11811c0f29112f6ebf01e61b90538e4f29810338888604051610be493929190613501565b60405180910390a250506001600a555050505050565b610c0b610c05611af2565b82611c39565b610c465760405162461bcd60e51b8152600401808060200182810382526031815260200180613d7b6031913960400191505060405180910390fd5b610735838383611d40565b6002600a541415610c97576040805162461bcd60e51b815260206004820152601f6024820152600080516020613b64833981519152604482015290519081900360640190fd5b6002600a553381610ca88282611c39565b610cc45760405162461bcd60e51b81526004016107bd906138e2565b600b546040516328220f3560e01b81526001600160a01b03909116906328220f3590610cf490869060040161354c565b600060405180830381600087803b158015610d0e57600080fd5b505af115801561098e573d6000803e3d6000fd5b6002600a541415610d68576040805162461bcd60e51b815260206004820152601f6024820152600080516020613b64833981519152604482015290519081900360640190fd5b6002600a55610d78338383611dad565b50506001600a55565b6001600160a01b0382166000908152600160205260408120610da39083611f7a565b90505b92915050565b7f49ecf333e5b8c95c40fdafc95c1ad136e8914a8fb55e9dc8bb01eaa83a2df9ad81565b610735838383604051806020016040528060008152506117f4565b6002600a541415610e31576040805162461bcd60e51b815260206004820152601f6024820152600080516020613b64833981519152604482015290519081900360640190fd5b6002600a5580610e4081611ae5565b610e5c5760405162461bcd60e51b81526004016107bd90613a1e565b3382610e688282611c39565b610e845760405162461bcd60e51b81526004016107bd906138e2565b6000610e8f856110b2565b6000868152600d60205260409020549091506001600160a01b03808316911614610ecb5760405162461bcd60e51b81526004016107bd9061389e565b610ed485611f86565b50506001600a55505050565b600080610eee600284612070565b509392505050565b6002600a541415610f3c576040805162461bcd60e51b815260206004820152601f6024820152600080516020613b64833981519152604482015290519081900360640190fd5b6002600a5581610f4b81611ae5565b610f675760405162461bcd60e51b81526004016107bd90613a1e565b81604001516001600160a01b0316336001600160a01b031614610f9c5760405162461bcd60e51b81526004016107bd906136c5565b600b546040516317b6b0d360e31b81526001600160a01b039091169063bdb5869890610cf490869086903390600401613b14565b6002600a541415611016576040805162461bcd60e51b815260206004820152601f6024820152600080516020613b64833981519152604482015290519081900360640190fd5b6002600a5533826110278282611c39565b6110435760405162461bcd60e51b81526004016107bd906138e2565b600b5460405163062f24b760e41b81526001600160a01b03909116906362f24b70906110759087908790600401613ab2565b600060405180830381600087803b15801561108f57600080fd5b505af11580156110a3573d6000803e3d6000fd5b50506001600a55505050505050565b6000610da682604051806060016040528060298152602001613c8e602991396002919061208c565b60098054604080516020601f60026000196101006001881615020190951694909404938401819004810282018101909252828152606093909290918301828280156105f85780601f106105cd576101008083540402835291602001916105f8565b60006001600160a01b0382166111825760405162461bcd60e51b815260040180806020018281038252602a815260200180613c64602a913960400191505060405180910390fd5b6001600160a01b0382166000908152600160205260409020610da690611c2e565b6002600a5414156111e9576040805162461bcd60e51b815260206004820152601f6024820152600080516020613b64833981519152604482015290519081900360640190fd5b6002600a5533836111fa8282611c39565b6112165760405162461bcd60e51b81526004016107bd906138e2565b6000858152600f602052604090205485906112435760405162461bcd60e51b81526004016107bd90613748565b84848080601f0160208091040260200160405190810160405280939291908181526020018383808284376000920191909152505082511515915061129b90505760405162461bcd60e51b81526004016107bd90613a55565b6112db8787878080601f0160208091040260200160405190810160405280939291908181526020018383808284376000920191909152506120a392505050565b867fe3df41127db820c79e5b8d541a63e40e3e97b9af96f7a50bded13091b70df9ae338888604051610be493929190613501565b6002600a541415611355576040805162461bcd60e51b815260206004820152601f6024820152600080516020613b64833981519152604482015290519081900360640190fd5b6002600a5580511580611369575080514211155b6113855760405162461bcd60e51b81526004016107bd906139b0565b600061138f611b64565b6040808601516060870151602080880151516001600160a01b038b1660009081526013835285812080546001810190915589519651979850909688966113fd967f2952e482b8e2b192305f87374d7af45dc2eafafe4f50d26a0c02e90f2fdbe14b96909590949392016135ad565b604051602081830303815290604052805190602001206040516020016114249291906134d2565b60405160208183030381529060405280519060200120905060006001828560200151866040015187606001516040516000815260200160405260405161146d94939291906135d5565b6020604051602081039080840390855afa15801561148f573d6000803e3d6000fd5b5050604051601f1901519150506001600160a01b038116158015906114c55750806001600160a01b0316876001600160a01b0316145b6114e15760405162461bcd60e51b81526004016107bd906139e7565b61098e818787611dad565b60078054604080516020601f60026000196101006001881615020190951694909404938401819004810282018101909252828152606093909290918301828280156105f85780601f106105cd576101008083540402835291602001916105f8565b600c602052600090815260409020546001600160a01b031681565b600b546001600160a01b031681565b61157f611af2565b6001600160a01b0316826001600160a01b031614156115e5576040805162461bcd60e51b815260206004820152601960248201527f4552433732313a20617070726f766520746f2063616c6c657200000000000000604482015290519081900360640190fd5b80600560006115f2611af2565b6001600160a01b03908116825260208083019390935260409182016000908120918716808252919093529120805460ff191692151592909217909155611636611af2565b6001600160a01b03167f17307eab39ab6107e8899845ad3d59bd9653f200f220920489ca2b5937696c318360405180821515815260200191505060405180910390a35050565b6002600a5414156116c2576040805162461bcd60e51b815260206004820152601f6024820152600080516020613b64833981519152604482015290519081900360640190fd5b6002600a556116d081610602565b6001600160a01b0316336001600160a01b0316146117005760405162461bcd60e51b81526004016107bd90613706565b61170b600082611af6565b506001600a55565b6002600a541415611759576040805162461bcd60e51b815260206004820152601f6024820152600080516020613b64833981519152604482015290519081900360640190fd5b6002600a55808061176a6014611c2a565b116117875760405162461bcd60e51b81526004016107bd90613646565b600b5460405163776a083560e01b81526001600160a01b039091169063776a0835906117b99085903390600401613a9b565b600060405180830381600087803b1580156117d357600080fd5b505af11580156117e7573d6000803e3d6000fd5b50506001600a5550505050565b6118056117ff611af2565b83611c39565b6118405760405162461bcd60e51b8152600401808060200182810382526031815260200180613d7b6031913960400191505060405180910390fd5b61184c848484846120e8565b50505050565b6002600a541415611898576040805162461bcd60e51b815260206004820152601f6024820152600080516020613b64833981519152604482015290519081900360640190fd5b6002600a5533826118a98282611c39565b6118c55760405162461bcd60e51b81526004016107bd906138e2565b600b5460405163ba33939960e01b81526001600160a01b039091169063ba339399906110759087908790600401613b00565b606081806119056014611c2a565b116119225760405162461bcd60e51b81526004016107bd90613646565b60008381526008602090815260408083208054825160026001831615610100026000190190921691909104601f8101859004850282018501909352828152929091908301828280156119b55780601f1061198a576101008083540402835291602001916119b5565b820191906000526020600020905b81548152906001019060200180831161199857829003601f168201915b509398975050505050505050565b7f2952e482b8e2b192305f87374d7af45dc2eafafe4f50d26a0c02e90f2fdbe14b81565b600d602052600090815260409020546001600160a01b031681565b6001600160a01b03918216600090815260056020908152604080832093909416825291909152205460ff1690565b600b546001600160a01b03163314611a5a5760405162461bcd60e51b81526004016107bd90613867565b611a63826110b2565b6000838152600c6020526040902080546001600160a01b0319166001600160a01b0392909216919091179055611ab2611a9b836110b2565b8284604051806020016040528060008152506120e8565b5050565b601260209081526000928352604080842090915290825290205481565b600e6020526000908152604090205481565b6000610da660028361213a565b3390565b600081815260046020526040902080546001600160a01b0319166001600160a01b0384169081179091558190611b2b826110b2565b6001600160a01b03167f8c5be1e5ebec7d5bd14f71427d1e84f3dd0314c0f7b2291e5b200ac8c7c3b92560405160405180910390a45050565b60408051808201825260048152635a6f726160e01b6020918201528151808301835260018152603160f81b9082015290516000914691611c0e917f8b73c3c69bb8fe3d512ecc4cf759cc79239f7b179b0ffacaa9a75d522b39400f917f91beda2a71cae260ce24b7d0ba9253f7212b59cbe39b0f303ac34fac7c00047d917fc89efdaa54c0f20c7adf612882df0950f5a951637e0307cdcb4c672f298b8bc6918691309101613581565b6040516020818303038152906040528051906020012091505090565b5490565b6000610da682611c2a565b6000611c4482611ae5565b611c7f5760405162461bcd60e51b815260040180806020018281038252602c815260200180613c00602c913960400191505060405180910390fd5b6000611c8a836110b2565b9050806001600160a01b0316846001600160a01b03161480611cc55750836001600160a01b0316611cba84610602565b6001600160a01b0316145b80611cd55750611cd58185611a02565b949350505050565b611ce682611ae5565b611d215760405162461bcd60e51b815260040180806020018281038252602c815260200180613d05602c913960400191505060405180910390fd5b6000828152600860209081526040909120825161073592840190612d28565b600b546040516328220f3560e01b81526001600160a01b03909116906328220f3590611d7090849060040161354c565b600060405180830381600087803b158015611d8a57600080fd5b505af1158015611d9e573d6000803e3d6000fd5b50505050610735838383612146565b81518051611dcd5760405162461bcd60e51b81526004016107bd90613a55565b60208301518051611df05760405162461bcd60e51b81526004016107bd90613a55565b6040840151611e115760405162461bcd60e51b81526004016107bd90613797565b60408085015160009081526011602052205460ff1615611e435760405162461bcd60e51b81526004016107bd9061380a565b6060840151611e645760405162461bcd60e51b81526004016107bd9061396b565b6000611e706014611c2a565b9050611e7c8682612292565b611e8660146122ac565b611e948186604001516122b5565b611ea28186606001516122ee565b611eb08186602001516120a3565b611ebe818660000151611cdd565b604080860151600090815260116020908152828220805460ff19166001179055838252600d815282822080546001600160a01b03808c166001600160a01b03199283168117909355600c90935292849020805490931617909155600b5491516375aab41d60e11b815291169063eb55683a90611f409084908890600401613ad6565b600060405180830381600087803b158015611f5a57600080fd5b505af1158015611f6e573d6000803e3d6000fd5b50505050505050505050565b6000610da38383612327565b60008181526008602090815260408083208054825160026001831615610100026000190190921691909104601f8101859004850282018501909352828152929091908301828280156120195780601f10611fee57610100808354040283529160200191612019565b820191906000526020600020905b815481529060010190602001808311611ffc57829003601f168201915b505050505090506120298261238b565b805115612051576000828152600860209081526040909120825161204f92840190612d28565b505b506000908152600c6020526040902080546001600160a01b0319169055565b600080808061207f8686612458565b9097909650945050505050565b60006120998484846124d3565b90505b9392505050565b816120ad81611ae5565b6120c95760405162461bcd60e51b81526004016107bd90613a1e565b6000838152601060209081526040909120835161184c92850190612d28565b6120f3848484611d40565b6120ff8484848461259d565b61184c5760405162461bcd60e51b8152600401808060200182810382526032815260200180613b846032913960400191505060405180910390fd5b6000610da38383612705565b826001600160a01b0316612159826110b2565b6001600160a01b03161461219e5760405162461bcd60e51b8152600401808060200182810382526029815260200180613d316029913960400191505060405180910390fd5b6001600160a01b0382166121e35760405162461bcd60e51b8152600401808060200182810382526024815260200180613bb66024913960400191505060405180910390fd5b6121ee838383610735565b6121f9600082611af6565b6001600160a01b038316600090815260016020526040902061221b908261271d565b506001600160a01b038216600090815260016020526040902061223e9082612729565b5061224b60028284612735565b5080826001600160a01b0316846001600160a01b03167fddf252ad1be2c89b69c2b068fc378daa952ba7f163c4a11628f55a4df523b3ef60405160405180910390a4505050565b611ab282826040518060200160405280600081525061274b565b80546001019055565b816122bf81611ae5565b6122db5760405162461bcd60e51b81526004016107bd90613a1e565b506000918252600e602052604090912055565b816122f881611ae5565b6123145760405162461bcd60e51b81526004016107bd90613a1e565b506000918252600f602052604090912055565b815460009082106123695760405162461bcd60e51b8152600401808060200182810382526022815260200180613b426022913960400191505060405180910390fd5b82600001828154811061237857fe5b9060005260206000200154905092915050565b6000612396826110b2565b90506123a481600084610735565b6123af600083611af6565b60008281526008602052604090205460026000196101006001841615020190911604156123ed5760008281526008602052604081206123ed91612db4565b6001600160a01b038116600090815260016020526040902061240f908361271d565b5061241b60028361279d565b5060405182906000906001600160a01b038416907fddf252ad1be2c89b69c2b068fc378daa952ba7f163c4a11628f55a4df523b3ef908390a45050565b81546000908190831061249c5760405162461bcd60e51b8152600401808060200182810382526022815260200180613cb76022913960400191505060405180910390fd5b60008460000184815481106124ad57fe5b906000526020600020906002020190508060000154816001015492509250509250929050565b6000828152600184016020526040812054828161256e5760405162461bcd60e51b81526004018080602001828103825283818151815260200191508051906020019080838360005b8381101561253357818101518382015260200161251b565b50505050905090810190601f1680156125605780820380516001836020036101000a031916815260200191505b509250505060405180910390fd5b5084600001600182038154811061258157fe5b9060005260206000209060020201600101549150509392505050565b60006125b1846001600160a01b03166127a9565b6125bd57506001611cd5565b60006126cb630a85bd0160e11b6125d2611af2565b88878760405160240180856001600160a01b03168152602001846001600160a01b0316815260200183815260200180602001828103825283818151815260200191508051906020019080838360005b83811015612639578181015183820152602001612621565b50505050905090810190601f1680156126665780820380516001836020036101000a031916815260200191505b5095505050505050604051602081830303815290604052906001600160e01b0319166020820180516001600160e01b038381831617835250505050604051806060016040528060328152602001613b84603291396001600160a01b03881691906127af565b905060008180602001905160208110156126e457600080fd5b50516001600160e01b031916630a85bd0160e11b1492505050949350505050565b60009081526001919091016020526040902054151590565b6000610da383836127be565b6000610da38383612884565b600061209984846001600160a01b0385166128ce565b6127558383612965565b612762600084848461259d565b6107355760405162461bcd60e51b8152600401808060200182810382526032815260200180613b846032913960400191505060405180910390fd5b6000610da38383612a93565b3b151590565b60606120998484600085612b67565b6000818152600183016020526040812054801561287a57835460001980830191908101906000908790839081106127f157fe5b906000526020600020015490508087600001848154811061280e57fe5b60009182526020808320909101929092558281526001898101909252604090209084019055865487908061283e57fe5b60019003818190600052602060002001600090559055866001016000878152602001908152602001600020600090556001945050505050610da6565b6000915050610da6565b60006128908383612705565b6128c657508154600181810184556000848152602080822090930184905584548482528286019093526040902091909155610da6565b506000610da6565b60008281526001840160205260408120548061293357505060408051808201825283815260208082018481528654600181810189556000898152848120955160029093029095019182559151908201558654868452818801909252929091205561209c565b8285600001600183038154811061294657fe5b906000526020600020906002020160010181905550600091505061209c565b6001600160a01b0382166129c0576040805162461bcd60e51b815260206004820181905260248201527f4552433732313a206d696e7420746f20746865207a65726f2061646472657373604482015290519081900360640190fd5b6129c981611ae5565b15612a1b576040805162461bcd60e51b815260206004820152601c60248201527f4552433732313a20746f6b656e20616c7265616479206d696e74656400000000604482015290519081900360640190fd5b612a2760008383610735565b6001600160a01b0382166000908152600160205260409020612a499082612729565b50612a5660028284612735565b5060405181906001600160a01b038416906000907fddf252ad1be2c89b69c2b068fc378daa952ba7f163c4a11628f55a4df523b3ef908290a45050565b6000818152600183016020526040812054801561287a5783546000198083019190810190600090879083908110612ac657fe5b9060005260206000209060020201905080876000018481548110612ae657fe5b600091825260208083208454600290930201918255600193840154918401919091558354825289830190526040902090840190558654879080612b2557fe5b6000828152602080822060026000199094019384020182815560019081018390559290935588815289820190925260408220919091559450610da69350505050565b606082471015612ba85760405162461bcd60e51b8152600401808060200182810382526026815260200180613bda6026913960400191505060405180910390fd5b612bb1856127a9565b612c02576040805162461bcd60e51b815260206004820152601d60248201527f416464726573733a2063616c6c20746f206e6f6e2d636f6e7472616374000000604482015290519081900360640190fd5b600080866001600160a01b031685876040518082805190602001908083835b60208310612c405780518252601f199092019160209182019101612c21565b6001836020036101000a03801982511681845116808217855250505050505090500191505060006040518083038185875af1925050503d8060008114612ca2576040519150601f19603f3d011682016040523d82523d6000602084013e612ca7565b606091505b5091509150612cb7828286612cc2565b979650505050505050565b60608315612cd157508161209c565b825115612ce15782518084602001fd5b60405162461bcd60e51b815260206004820181815284516024840152845185939192839260440191908501908083836000831561253357818101518382015260200161251b565b828054600181600116156101000203166002900490600052602060002090601f016020900481019282612d5e5760008555612da4565b82601f10612d7757805160ff1916838001178555612da4565b82800160010185558215612da4579182015b82811115612da4578251825591602001919060010190612d89565b50612db0929150612dfb565b5090565b50805460018160011615610100020316600290046000825580601f10612dda5750612df8565b601f016020900490600052602060002090810190612df89190612dfb565b50565b5b80821115612db05760008155600101612dfc565b600067ffffffffffffffff80841115612e2557fe5b604051601f8501601f191681016020018281118282101715612e4357fe5b604052848152915081838501861015612e5b57600080fd5b8484602083013760006020868301015250509392505050565b80356001600160a01b038116811461056757600080fd5b600082601f830112612e9b578081fd5b610da383833560208501612e10565b600060608284031215612ebb578081fd5b6040516060810181811067ffffffffffffffff82111715612ed857fe5b604052905080612ee88484612f15565b8152612ef78460208501612f15565b6020820152612f098460408501612f15565b60408201525092915050565b600060208284031215612f26578081fd5b6040516020810181811067ffffffffffffffff82111715612f4357fe5b6040529135825250919050565b600060808284031215612f61578081fd5b6040516080810181811067ffffffffffffffff82111715612f7e57fe5b60405282358152905080602083013560ff81168114612f9c57600080fd5b8060208301525060408301356040820152606083013560608201525092915050565b600060808284031215612fcf578081fd5b6040516080810167ffffffffffffffff8282108183111715612fed57fe5b81604052829350843591508082111561300557600080fd5b61301186838701612e8b565b8352602085013591508082111561302757600080fd5b5061303485828601612e8b565b60208301525060408301356040820152606083013560608201525092915050565b600060208284031215613066578081fd5b610da382612e74565b60008060408385031215613081578081fd5b61308a83612e74565b915061309860208401612e74565b90509250929050565b6000806000606084860312156130b5578081fd5b6130be84612e74565b92506130cc60208501612e74565b9150604084013590509250925092565b600080600080608085870312156130f1578081fd5b6130fa85612e74565b935061310860208601612e74565b925060408501359150606085013567ffffffffffffffff81111561312a578182fd5b8501601f8101871361313a578182fd5b61314987823560208401612e10565b91505092959194509250565b60008060408385031215613167578182fd5b61317083612e74565b915060208301358015158114613184578182fd5b809150509250929050565b60008060008061012085870312156131a5578182fd5b6131ae85612e74565b9350602085013567ffffffffffffffff8111156131c9578283fd5b6131d587828801612fbe565b9350506131e58660408701612eaa565b91506131f48660a08701612f50565b905092959194509250565b60008060408385031215613211578182fd5b61321a83612e74565b946020939093013593505050565b600080600060c0848603121561323c578081fd5b61324584612e74565b92506020840135915061325b8560408601612f50565b90509250925092565b600060208284031215613275578081fd5b81356001600160e01b03198116811461209c578182fd5b6000806080838503121561329e578182fd5b823567ffffffffffffffff8111156132b4578283fd5b6132c085828601612fbe565b9250506130988460208501612eaa565b6000602082840312156132e1578081fd5b5035919050565b600080604083850312156132fa578182fd5b8235915061309860208401612e74565b60008060006040848603121561331e578081fd5b83359250602084013567ffffffffffffffff8082111561333c578283fd5b818601915086601f83011261334f578283fd5b81358181111561335d578384fd5b87602082850101111561336e578384fd5b6020830194508093505050509250925092565b6000808284036060811215613394578283fd5b833592506040601f19820112156133a9578182fd5b506040516040810181811067ffffffffffffffff821117156133c757fe5b8060405250602084013581526133df60408501612e74565b6020820152809150509250929050565b60008082840360c0811215613402578283fd5b8335925060a0601f1982011215613417578182fd5b5060405160a0810181811067ffffffffffffffff8211171561343557fe5b80604052506020840135815261344d60408501612e74565b602082015261345e60608501612e74565b604082015261346f60808501612e74565b60608201526134818560a08601612f15565b6080820152809150509250929050565b805182526020808201516001600160a01b03908116918401919091526040808301518216908401526060808301519091169083015260809081015151910152565b61190160f01b81526002810192909252602282015260420190565b6001600160a01b0391909116815260200190565b6001600160a01b03841681526040602082018190528101829052600082846060840137818301606090810191909152601f909201601f1916010192915050565b901515815260200190565b90815260200190565b9485526001600160a01b0393909316602085015260408401919091526060830152608082015260a00190565b9485526020850193909352604084019190915260608301526001600160a01b0316608082015260a00190565b958652602086019490945260408501929092526060840152608083015260a082015260c00190565b93845260ff9290921660208401526040830152606082015260800190565b6000602080835283518082850152825b8181101561361f57858101830151858201604001528201613603565b818111156136305783604083870101525b50601f01601f1916929092016040019392505050565b60208082526028908201527f4d656469613a20746f6b656e2077697468207468617420696420646f6573206e6040820152671bdd08195e1a5cdd60c21b606082015260800190565b6020808252601c908201527f4d656469613a207370656e6465722063616e6e6f742062652030783000000000604082015260600190565b60208082526021908201527f4d61726b65743a20426964646572206d757374206265206d73672073656e64656040820152603960f91b606082015260800190565b60208082526022908201527f4d656469613a2063616c6c6572206e6f7420617070726f766564206164647265604082015261737360f01b606082015260800190565b6020808252602f908201527f4d656469613a20746f6b656e20646f6573206e6f74206861766520686173682060408201526e6f6620697473206d6574616461746160881b606082015260800190565b60208082526024908201527f4d656469613a20636f6e74656e742068617368206d757374206265206e6f6e2d6040820152637a65726f60e01b606082015260800190565b6020808252601590820152741359591a584e8814195c9b5a5d08195e1c1a5c9959605a1b604082015260600190565b6020808252603e908201527f4d656469613a206120746f6b656e2068617320616c7265616479206265656e2060408201527f637265617465642077697468207468697320636f6e74656e7420686173680000606082015260800190565b6020808252601b908201527f4d656469613a206f6e6c79206d61726b657420636f6e74726163740000000000604082015260600190565b60208082526024908201527f4d656469613a206f776e6572206973206e6f742063726561746f72206f66206d6040820152636564696160e01b606082015260800190565b6020808252601d908201527f4d656469613a204f6e6c7920617070726f766564206f72206f776e6572000000604082015260600190565b60208082526032908201527f4d656469613a20746f6b656e20646f6573206e6f7420686176652068617368206040820152711bd98818dc99585d19590818dbdb9d195b9d60721b606082015260800190565b60208082526025908201527f4d656469613a206d657461646174612068617368206d757374206265206e6f6e6040820152642d7a65726f60d81b606082015260800190565b6020808252601a908201527f4d656469613a206d696e74576974685369672065787069726564000000000000604082015260600190565b60208082526018908201527f4d656469613a205369676e617475726520696e76616c69640000000000000000604082015260600190565b60208082526018908201527f4d656469613a206e6f6e6578697374656e7420746f6b656e0000000000000000604082015260600190565b60208082526026908201527f4d656469613a2073706563696669656420757269206d757374206265206e6f6e6040820152652d656d70747960d01b606082015260800190565b9182526001600160a01b0316602082015260400190565b918252805160208084019190915201516001600160a01b0316604082015260600190565b91825280515160208084019190915281015151604080840191909152015151606082015260800190565b82815260c0810161209c6020830184613491565b83815260e08101613b286020830185613491565b6001600160a01b039290921660c091909101529291505056fe456e756d657261626c655365743a20696e646578206f7574206f6620626f756e64735265656e7472616e637947756172643a207265656e7472616e742063616c6c004552433732313a207472616e7366657220746f206e6f6e20455243373231526563656976657220696d706c656d656e7465724552433732313a207472616e7366657220746f20746865207a65726f2061646472657373416464726573733a20696e73756666696369656e742062616c616e636520666f722063616c6c4552433732313a206f70657261746f7220717565727920666f72206e6f6e6578697374656e7420746f6b656e4552433732313a20617070726f76652063616c6c6572206973206e6f74206f776e6572206e6f7220617070726f76656420666f7220616c6c4552433732313a2062616c616e636520717565727920666f7220746865207a65726f20616464726573734552433732313a206f776e657220717565727920666f72206e6f6e6578697374656e7420746f6b656e456e756d657261626c654d61703a20696e646578206f7574206f6620626f756e64734552433732313a20617070726f76656420717565727920666f72206e6f6e6578697374656e7420746f6b656e4552433732314d657461646174613a2055524920736574206f66206e6f6e6578697374656e7420746f6b656e4552433732313a207472616e73666572206f6620746f6b656e2074686174206973206e6f74206f776e4552433732313a20617070726f76616c20746f2063757272656e74206f776e65724552433732313a207472616e736665722063616c6c6572206973206e6f74206f776e6572206e6f7220617070726f766564a2646970667358221220ace2fb30d9f5d10f3b0e44f1d9b8ae478264f41bf250eeaec2bf9f7a53c4f9d764736f6c63430007060033",
  "linkReferences": {},
  "deployedLinkReferences": {}
}