{
  "_format": "hh-sol-artifact-1",
  "contractName": "ZoraMarket",
  "sourceName": "contracts/zora/Market.sol",
  "abi": [
    {
      "inputs": [],
      "stateMutability": "nonpayable",
      "type": "constructor"
    },
    {
      "anonymous": false,
      "inputs": [
        {
          "indexed": true,
          "internalType": "uint256",
          "name": "tokenId",
          "type": "uint256"
        },
        {
          "components": [
            {
              "internalType": "uint256",
              "name": "amount",
              "type": "uint256"
            },
            {
              "internalType": "address",
              "name": "currency",
              "type": "address"
            }
          ],
          "indexed": false,
          "internalType": "struct IMarket.Ask",
          "name": "ask",
          "type": "tuple"
        }
      ],
      "name": "AskCreated",
      "type": "event"
    },
    {
      "anonymous": false,
      "inputs": [
        {
          "indexed": true,
          "internalType": "uint256",
          "name": "tokenId",
          "type": "uint256"
        },
        {
          "components": [
            {
              "internalType": "uint256",
              "name": "amount",
              "type": "uint256"
            },
            {
              "internalType": "address",
              "name": "currency",
              "type": "address"
            }
          ],
          "indexed": false,
          "internalType": "struct IMarket.Ask",
          "name": "ask",
          "type": "tuple"
        }
      ],
      "name": "AskRemoved",
      "type": "event"
    },
    {
      "anonymous": false,
      "inputs": [
        {
          "indexed": true,
          "internalType": "uint256",
          "name": "tokenId",
          "type": "uint256"
        },
        {
          "components": [
            {
              "internalType": "uint256",
              "name": "amount",
              "type": "uint256"
            },
            {
              "internalType": "address",
              "name": "currency",
              "type": "address"
            },
            {
              "internalType": "address",
              "name": "bidder",
              "type": "address"
            },
            {
              "internalType": "address",
              "name": "recipient",
              "type": "address"
            },
            {
              "components": [
                {
                  "internalType": "uint256",
                  "name": "value",
                  "type": "uint256"
                }
              ],
              "internalType": "struct Decimal.D256",
              "name": "sellOnShare",
              "type": "tuple"
            }
          ],
          "indexed": false,
          "internalType": "struct IMarket.Bid",
          "name": "bid",
          "type": "tuple"
        }
      ],
      "name": "BidCreated",
      "type": "event"
    },
    {
      "anonymous": false,
      "inputs": [
        {
          "indexed": true,
          "internalType": "uint256",
          "name": "tokenId",
          "type": "uint256"
        },
        {
          "components": [
            {
              "internalType": "uint256",
              "name": "amount",
              "type": "uint256"
            },
            {
              "internalType": "address",
              "name": "currency",
              "type": "address"
            },
            {
              "internalType": "address",
              "name": "bidder",
              "type": "address"
            },
            {
              "internalType": "address",
              "name": "recipient",
              "type": "address"
            },
            {
              "components": [
                {
                  "internalType": "uint256",
                  "name": "value",
                  "type": "uint256"
                }
              ],
              "internalType": "struct Decimal.D256",
              "name": "sellOnShare",
              "type": "tuple"
            }
          ],
          "indexed": false,
          "internalType": "struct IMarket.Bid",
          "name": "bid",
          "type": "tuple"
        }
      ],
      "name": "BidFinalized",
      "type": "event"
    },
    {
      "anonymous": false,
      "inputs": [
        {
          "indexed": true,
          "internalType": "uint256",
          "name": "tokenId",
          "type": "uint256"
        },
        {
          "components": [
            {
              "internalType": "uint256",
              "name": "amount",
              "type": "uint256"
            },
            {
              "internalType": "address",
              "name": "currency",
              "type": "address"
            },
            {
              "internalType": "address",
              "name": "bidder",
              "type": "address"
            },
            {
              "internalType": "address",
              "name": "recipient",
              "type": "address"
            },
            {
              "components": [
                {
                  "internalType": "uint256",
                  "name": "value",
                  "type": "uint256"
                }
              ],
              "internalType": "struct Decimal.D256",
              "name": "sellOnShare",
              "type": "tuple"
            }
          ],
          "indexed": false,
          "internalType": "struct IMarket.Bid",
          "name": "bid",
          "type": "tuple"
        }
      ],
      "name": "BidRemoved",
      "type": "event"
    },
    {
      "anonymous": false,
      "inputs": [
        {
          "indexed": true,
          "internalType": "uint256",
          "name": "tokenId",
          "type": "uint256"
        },
        {
          "components": [
            {
              "components": [
                {
                  "internalType": "uint256",
                  "name": "value",
                  "type": "uint256"
                }
              ],
              "internalType": "struct Decimal.D256",
              "name": "prevOwner",
              "type": "tuple"
            },
            {
              "components": [
                {
                  "internalType": "uint256",
                  "name": "value",
                  "type": "uint256"
                }
              ],
              "internalType": "struct Decimal.D256",
              "name": "creator",
              "type": "tuple"
            },
            {
              "components": [
                {
                  "internalType": "uint256",
                  "name": "value",
                  "type": "uint256"
                }
              ],
              "internalType": "struct Decimal.D256",
              "name": "owner",
              "type": "tuple"
            }
          ],
          "indexed": false,
          "internalType": "struct IMarket.BidShares",
          "name": "bidShares",
          "type": "tuple"
        }
      ],
      "name": "BidShareUpdated",
      "type": "event"
    },
    {
      "inputs": [
        {
          "internalType": "uint256",
          "name": "tokenId",
          "type": "uint256"
        },
        {
          "components": [
            {
              "internalType": "uint256",
              "name": "amount",
              "type": "uint256"
            },
            {
              "internalType": "address",
              "name": "currency",
              "type": "address"
            },
            {
              "internalType": "address",
              "name": "bidder",
              "type": "address"
            },
            {
              "internalType": "address",
              "name": "recipient",
              "type": "address"
            },
            {
              "components": [
                {
                  "internalType": "uint256",
                  "name": "value",
                  "type": "uint256"
                }
              ],
              "internalType": "struct Decimal.D256",
              "name": "sellOnShare",
              "type": "tuple"
            }
          ],
          "internalType": "struct IMarket.Bid",
          "name": "expectedBid",
          "type": "tuple"
        }
      ],
      "name": "acceptBid",
      "outputs": [],
      "stateMutability": "nonpayable",
      "type": "function"
    },
    {
      "inputs": [
        {
          "internalType": "uint256",
          "name": "tokenId",
          "type": "uint256"
        },
        {
          "internalType": "address",
          "name": "bidder",
          "type": "address"
        }
      ],
      "name": "bidForTokenBidder",
      "outputs": [
        {
          "components": [
            {
              "internalType": "uint256",
              "name": "amount",
              "type": "uint256"
            },
            {
              "internalType": "address",
              "name": "currency",
              "type": "address"
            },
            {
              "internalType": "address",
              "name": "bidder",
              "type": "address"
            },
            {
              "internalType": "address",
              "name": "recipient",
              "type": "address"
            },
            {
              "components": [
                {
                  "internalType": "uint256",
                  "name": "value",
                  "type": "uint256"
                }
              ],
              "internalType": "struct Decimal.D256",
              "name": "sellOnShare",
              "type": "tuple"
            }
          ],
          "internalType": "struct IMarket.Bid",
          "name": "",
          "type": "tuple"
        }
      ],
      "stateMutability": "view",
      "type": "function"
    },
    {
      "inputs": [
        {
          "internalType": "uint256",
          "name": "tokenId",
          "type": "uint256"
        }
      ],
      "name": "bidSharesForToken",
      "outputs": [
        {
          "components": [
            {
              "components": [
                {
                  "internalType": "uint256",
                  "name": "value",
                  "type": "uint256"
                }
              ],
              "internalType": "struct Decimal.D256",
              "name": "prevOwner",
              "type": "tuple"
            },
            {
              "components": [
                {
                  "internalType": "uint256",
                  "name": "value",
                  "type": "uint256"
                }
              ],
              "internalType": "struct Decimal.D256",
              "name": "creator",
              "type": "tuple"
            },
            {
              "components": [
                {
                  "internalType": "uint256",
                  "name": "value",
                  "type": "uint256"
                }
              ],
              "internalType": "struct Decimal.D256",
              "name": "owner",
              "type": "tuple"
            }
          ],
          "internalType": "struct IMarket.BidShares",
          "name": "",
          "type": "tuple"
        }
      ],
      "stateMutability": "view",
      "type": "function"
    },
    {
      "inputs": [
        {
          "internalType": "address",
          "name": "mediaContractAddress",
          "type": "address"
        }
      ],
      "name": "configure",
      "outputs": [],
      "stateMutability": "nonpayable",
      "type": "function"
    },
    {
      "inputs": [
        {
          "internalType": "uint256",
          "name": "tokenId",
          "type": "uint256"
        }
      ],
      "name": "currentAskForToken",
      "outputs": [
        {
          "components": [
            {
              "internalType": "uint256",
              "name": "amount",
              "type": "uint256"
            },
            {
              "internalType": "address",
              "name": "currency",
              "type": "address"
            }
          ],
          "internalType": "struct IMarket.Ask",
          "name": "",
          "type": "tuple"
        }
      ],
      "stateMutability": "view",
      "type": "function"
    },
    {
      "inputs": [
        {
          "internalType": "uint256",
          "name": "tokenId",
          "type": "uint256"
        },
        {
          "internalType": "uint256",
          "name": "bidAmount",
          "type": "uint256"
        }
      ],
      "name": "isValidBid",
      "outputs": [
        {
          "internalType": "bool",
          "name": "",
          "type": "bool"
        }
      ],
      "stateMutability": "view",
      "type": "function"
    },
    {
      "inputs": [
        {
          "components": [
            {
              "components": [
                {
                  "internalType": "uint256",
                  "name": "value",
                  "type": "uint256"
                }
              ],
              "internalType": "struct Decimal.D256",
              "name": "prevOwner",
              "type": "tuple"
            },
            {
              "components": [
                {
                  "internalType": "uint256",
                  "name": "value",
                  "type": "uint256"
                }
              ],
              "internalType": "struct Decimal.D256",
              "name": "creator",
              "type": "tuple"
            },
            {
              "components": [
                {
                  "internalType": "uint256",
                  "name": "value",
                  "type": "uint256"
                }
              ],
              "internalType": "struct Decimal.D256",
              "name": "owner",
              "type": "tuple"
            }
          ],
          "internalType": "struct IMarket.BidShares",
          "name": "bidShares",
          "type": "tuple"
        }
      ],
      "name": "isValidBidShares",
      "outputs": [
        {
          "internalType": "bool",
          "name": "",
          "type": "bool"
        }
      ],
      "stateMutability": "pure",
      "type": "function"
    },
    {
      "inputs": [],
      "name": "mediaContract",
      "outputs": [
        {
          "internalType": "address",
          "name": "",
          "type": "address"
        }
      ],
      "stateMutability": "view",
      "type": "function"
    },
    {
      "inputs": [
        {
          "internalType": "uint256",
          "name": "tokenId",
          "type": "uint256"
        }
      ],
      "name": "removeAsk",
      "outputs": [],
      "stateMutability": "nonpayable",
      "type": "function"
    },
    {
      "inputs": [
        {
          "internalType": "uint256",
          "name": "tokenId",
          "type": "uint256"
        },
        {
          "internalType": "address",
          "name": "bidder",
          "type": "address"
        }
      ],
      "name": "removeBid",
      "outputs": [],
      "stateMutability": "nonpayable",
      "type": "function"
    },
    {
      "inputs": [
        {
          "internalType": "uint256",
          "name": "tokenId",
          "type": "uint256"
        },
        {
          "components": [
            {
              "internalType": "uint256",
              "name": "amount",
              "type": "uint256"
            },
            {
              "internalType": "address",
              "name": "currency",
              "type": "address"
            }
          ],
          "internalType": "struct IMarket.Ask",
          "name": "ask",
          "type": "tuple"
        }
      ],
      "name": "setAsk",
      "outputs": [],
      "stateMutability": "nonpayable",
      "type": "function"
    },
    {
      "inputs": [
        {
          "internalType": "uint256",
          "name": "tokenId",
          "type": "uint256"
        },
        {
          "components": [
            {
              "internalType": "uint256",
              "name": "amount",
              "type": "uint256"
            },
            {
              "internalType": "address",
              "name": "currency",
              "type": "address"
            },
            {
              "internalType": "address",
              "name": "bidder",
              "type": "address"
            },
            {
              "internalType": "address",
              "name": "recipient",
              "type": "address"
            },
            {
              "components": [
                {
                  "internalType": "uint256",
                  "name": "value",
                  "type": "uint256"
                }
              ],
              "internalType": "struct Decimal.D256",
              "name": "sellOnShare",
              "type": "tuple"
            }
          ],
          "internalType": "struct IMarket.Bid",
          "name": "bid",
          "type": "tuple"
        },
        {
          "internalType": "address",
          "name": "spender",
          "type": "address"
        }
      ],
      "name": "setBid",
      "outputs": [],
      "stateMutability": "nonpayable",
      "type": "function"
    },
    {
      "inputs": [
        {
          "internalType": "uint256",
          "name": "tokenId",
          "type": "uint256"
        },
        {
          "components": [
            {
              "components": [
                {
                  "internalType": "uint256",
                  "name": "value",
                  "type": "uint256"
                }
              ],
              "internalType": "struct Decimal.D256",
              "name": "prevOwner",
              "type": "tuple"
            },
            {
              "components": [
                {
                  "internalType": "uint256",
                  "name": "value",
                  "type": "uint256"
                }
              ],
              "internalType": "struct Decimal.D256",
              "name": "creator",
              "type": "tuple"
            },
            {
              "components": [
                {
                  "internalType": "uint256",
                  "name": "value",
                  "type": "uint256"
                }
              ],
              "internalType": "struct Decimal.D256",
              "name": "owner",
              "type": "tuple"
            }
          ],
          "internalType": "struct IMarket.BidShares",
          "name": "bidShares",
          "type": "tuple"
        }
      ],
      "name": "setBidShares",
      "outputs": [],
      "stateMutability": "nonpayable",
      "type": "function"
    },
    {
      "inputs": [
        {
          "components": [
            {
              "internalType": "uint256",
              "name": "value",
              "type": "uint256"
            }
          ],
          "internalType": "struct Decimal.D256",
          "name": "sharePercentage",
          "type": "tuple"
        },
        {
          "internalType": "uint256",
          "name": "amount",
          "type": "uint256"
        }
      ],
      "name": "splitShare",
      "outputs": [
        {
          "internalType": "uint256",
          "name": "",
          "type": "uint256"
        }
      ],
      "stateMutability": "pure",
      "type": "function"
    }
  ],
  "bytecode": "0x608060405234801561001057600080fd5b50600180546001600160a01b0319163317905561206f806100326000396000f3fe608060405234801561001057600080fd5b50600436106100ea5760003560e01c8063776a08351161008c578063ba33939911610066578063ba339399146101ee578063bdb5869814610201578063eb55683a14610214578063f9ce058214610227576100ea565b8063776a08351461019b578063ad827dc4146101ae578063b920c123146101ce576100ea565b80634e21f9c0116100c85780634e21f9c014610140578063578064f61461015557806362f24b701461017557806375cb267214610188576100ea565b806302e8fe13146100ef57806328220f3514610118578063360636eb1461012d575b600080fd5b6101026100fd366004611a57565b610247565b60405161010f9190611a8c565b60405180910390f35b61012b610126366004611876565b6102d0565b005b61010261013b366004611831565b610368565b6101486103a4565b60405161010f9190611a78565b610168610163366004611876565b6103b3565b60405161010f9190611eab565b61012b6101833660046118d5565b6103ee565b61012b6101963660046117f9565b6104ba565b61012b6101a93660046118a6565b610555565b6101c16101bc3660046118a6565b610675565b60405161010f9190611f2c565b6101e16101dc36600461184c565b6106eb565b60405161010f9190611fb6565b61012b6101fc36600461196f565b610709565b61012b61020f3660046119a5565b6108ad565b61012b610222366004611943565b610ce4565b61023a610235366004611876565b610d8f565b60405161010f9190611ee9565b60008061025384610d8f565b905061025e81610368565b6102835760405162461bcd60e51b815260040161027a90611d96565b60405180910390fd5b82158015906102c657506102c361029e8260400151856106eb565b6102bd6102af8460000151876106eb565b6102bd8560200151886106eb565b90610de5565b83145b9150505b92915050565b6000546001600160a01b031633146102fa5760405162461bcd60e51b815260040161027a90611d10565b807fbf58f6d6c7d7c6efc69e7444efa93ed26d7cdc0e82e12a37df96f36a367561df6004600084815260200190815260200160002060405161033c9190611ecb565b60405180910390a2600090815260046020526040812090815560010180546001600160a01b0319169055565b600061037d6064670de0b6b3a7640000610e3f565b82515160408401515160208501515161039b92916102bd9190610de5565b1490505b919050565b6000546001600160a01b031681565b6103bb6116a6565b50600090815260046020908152604091829020825180840190935280548352600101546001600160a01b03169082015290565b6000546001600160a01b031633146104185760405162461bcd60e51b815260040161027a90611d10565b610426828260000151610247565b6104425760405162461bcd60e51b815260040161027a90611bb3565b6000828152600460209081526040918290208351815590830151600190910180546001600160a01b0319166001600160a01b039092169190911790555182907ff7347cb9e91d8cbe995b51920ba5f92cbf84a9e09cbed3cd7a739fef4d1d07cf906104ae908490611eab565b60405180910390a25050565b6001546001600160a01b031633146104e45760405162461bcd60e51b815260040161027a90611cad565b6000546001600160a01b03161561050d5760405162461bcd60e51b815260040161027a90611dda565b6001600160a01b0381166105335760405162461bcd60e51b815260040161027a90611e5a565b600080546001600160a01b0319166001600160a01b0392909216919091179055565b6000546001600160a01b0316331461057f5760405162461bcd60e51b815260040161027a90611d10565b60008281526002602090815260408083206001600160a01b0380861685529252909120805460018201549192909116816105cb5760405162461bcd60e51b815260040161027a90611bfa565b6000819050857fcbebd567b8a5c57f63ec61dc46746aab28daff6bdd1f4a6a0a305c17fa5465c9856040516106009190611f75565b60405180910390a260008681526002602081815260408084206001600160a01b03808b168652925283208381556001810180546001600160a01b031990811690915592810180548416905560038101805490931690925560049091019190915561066d9082168685610e98565b505050505050565b61067d6116bd565b5060009182526002602081815260408085206001600160a01b039485168652825293849020845160a081018652815481526001820154851681840152928101548416838601526003810154909316606083015283519081019093526004909101548252608081019190915290565b600061070260646106fc8486610eea565b90610f03565b9392505050565b6000546001600160a01b031633146107335760405162461bcd60e51b815260040161027a90611d10565b60008281526002602052604080822090829061075590606086019086016117f9565b6001600160a01b0390811682526020808301939093526040918201600020825160a08101845281548152600182015483168186015260028201548316818501526003820154909216606083015282519384019092526004909101548252608081019190915280519091506107db5760405162461bcd60e51b815260040161027a90611c76565b8051823514801561081057506107f760408301602084016117f9565b6001600160a01b031681602001516001600160a01b0316145b801561082457506080818101515190830135145b8015610854575061083b60808301606084016117f9565b6001600160a01b031681606001516001600160a01b0316145b6108705760405162461bcd60e51b815260040161027a90611cd9565b61087e838260000151610247565b61089a5760405162461bcd60e51b815260040161027a90611b2a565b6108a8838260400151610f6a565b505050565b6000546001600160a01b031633146108d75760405162461bcd60e51b815260040161027a90611d10565b60008381526003602090815260409182902082516080810184528154606082019081528152835180840185526001830154815281840152835192830184526002909101548252918201526109346064670de0b6b3a7640000610e3f565b60808401515160208301515161094991610de5565b11156109675760405162461bcd60e51b815260040161027a90611d47565b60408301516001600160a01b03166109915760405162461bcd60e51b815260040161027a90611b71565b82516109af5760405162461bcd60e51b815260040161027a90611c3f565b60208301516001600160a01b03166109d95760405162461bcd60e51b815260040161027a90611ae2565b60608301516001600160a01b0316610a035760405162461bcd60e51b815260040161027a90611e11565b6000848152600260209081526040808320868201516001600160a01b031684529091529020805415610a3d57610a3d858560400151610555565b60208401516040516370a0823160e01b81526000906001600160a01b038316906370a0823190610a71903090600401611a78565b60206040518083038186803b158015610a8957600080fd5b505afa158015610a9d573d6000803e3d6000fd5b505050506040513d601f19601f82011682018060405250810190610ac1919061188e565b8651909150610ade906001600160a01b0384169087903090611351565b6040516370a0823160e01b81526000906001600160a01b038416906370a0823190610b0d903090600401611a78565b60206040518083038186803b158015610b2557600080fd5b505afa158015610b39573d6000803e3d6000fd5b505050506040513d601f19601f82011682018060405250810190610b5d919061188e565b90506040518060a00160405280610b7d84846113b190919063ffffffff16565b81526020898101516001600160a01b03908116828401526040808c0180518316828601526060808e01518416818701526080808f01519681019690965260008f8152600280875284822093518616825292865283902087518155948701516001860180549186166001600160a01b031992831617905587840151928601805493861693821693909317909255860151600385018054919094169116179091559290910151516004909101555188907f327bc9021bfbee403a11b13dd6c819999006aff090cc129f07e9f2840af38dd590610c58908a90611f2c565b60405180910390a26000888152600460205260409020600101546001600160a01b031615801590610cac5750600088815260046020908152604090912060010154908801516001600160a01b039081169116145b8015610cc75750600088815260046020526040902054875110155b15610cda57610cda888860400151610f6a565b5050505050505050565b6000546001600160a01b03163314610d0e5760405162461bcd60e51b815260040161027a90611d10565b610d1781610368565b610d335760405162461bcd60e51b815260040161027a90611a97565b60008281526003602090815260409182902083515181559083015151600182015581830151516002909101555182907fdb88d4e96cb8697aaee5e575ee5f460817709a1dfcfbf7ba15192e90b5c86f9f906104ae908490611ee9565b610d9761170c565b50600090815260036020908152604091829020825160808101845281546060820190815281528351808401855260018301548152818401528351928301845260029091015482529182015290565b600082820183811015610702576040805162461bcd60e51b815260206004820152601b60248201527f536166654d6174683a206164646974696f6e206f766572666c6f770000000000604482015290519081900360640190fd5b600082610e4e575060006102ca565b82820282848281610e5b57fe5b04146107025760405162461bcd60e51b8152600401808060200182810382526021815260200180611fef6021913960400191505060405180910390fd5b604080516001600160a01b038416602482015260448082018490528251808303909101815260649091019091526020810180516001600160e01b031663a9059cbb60e01b1790526108a890849061140e565b8051600090610702908490670de0b6b3a76400006114bf565b6000808211610f59576040805162461bcd60e51b815260206004820152601a60248201527f536166654d6174683a206469766973696f6e206279207a65726f000000000000604482015290519081900360640190fd5b818381610f6257fe5b049392505050565b60008281526002602081815260408084206001600160a01b038087168652908352818520825160a0810184528154815260018201548316818601908152958201548316818501526003808301548416606083015284518087018652600493840154815260808301528988529094528286209451955492516331a9108f60e11b81529395936110879390921691636352211e91611008918a9101611fb6565b60206040518083038186803b15801561102057600080fd5b505afa158015611034573d6000803e3d6000fd5b505050506040513d601f19601f820116820180604052508101906110589190611815565b604080516020810190915260028501548152855161107691906106eb565b6001600160a01b0384169190610e98565b60005460405163e0fd045f60e01b8152611127916001600160a01b03169063e0fd045f906110b9908990600401611fb6565b60206040518083038186803b1580156110d157600080fd5b505afa1580156110e5573d6000803e3d6000fd5b505050506040513d601f19601f820116820180604052508101906111099190611815565b604080516020810190915260018501548152855161107691906106eb565b6000546040516304ec739360e51b81526111c4916001600160a01b031690639d8e726090611159908990600401611fb6565b60206040518083038186803b15801561117157600080fd5b505afa158015611185573d6000803e3d6000fd5b505050506040513d601f19601f820116820180604052508101906111a99190611815565b604080516020810190915284548152855161107691906106eb565b6000546060840151604051630f6b630f60e41b81526001600160a01b039092169163f6b630f0916111fa91899190600401611fbf565b600060405180830381600087803b15801561121457600080fd5b505af1158015611228573d6000803e3d6000fd5b5050604080516020808201835260808801515160008b8152600390925292902060010154909350839250611272919061126c90816064670de0b6b3a7640000610e3f565b906113b1565b90525160028084019190915560808401515183556000868152602082815260408083206001600160a01b03891684529091528082208281556001810180546001600160a01b03199081169091559381018054851690556003810180549094169093556004909201555185907fdb88d4e96cb8697aaee5e575ee5f460817709a1dfcfbf7ba15192e90b5c86f9f9061130a908590611f0d565b60405180910390a2847fb6ef177c7a6f32b283a49b5e0463a39240cdaa278028dfb219480d050e8ee54c846040516113429190611f2c565b60405180910390a25050505050565b604080516001600160a01b0380861660248301528416604482015260648082018490528251808303909101815260849091019091526020810180516001600160e01b03166323b872dd60e01b1790526113ab90859061140e565b50505050565b600082821115611408576040805162461bcd60e51b815260206004820152601e60248201527f536166654d6174683a207375627472616374696f6e206f766572666c6f770000604482015290519081900360640190fd5b50900390565b6000611463826040518060400160405280602081526020017f5361666545524332303a206c6f772d6c6576656c2063616c6c206661696c6564815250856001600160a01b03166114d79092919063ffffffff16565b8051909150156108a85780806020019051602081101561148257600080fd5b50516108a85760405162461bcd60e51b815260040180806020018281038252602a815260200180612010602a913960400191505060405180910390fd5b60006114cf826106fc8686610e3f565b949350505050565b60606114cf8484600085856114eb856115fc565b61153c576040805162461bcd60e51b815260206004820152601d60248201527f416464726573733a2063616c6c20746f206e6f6e2d636f6e7472616374000000604482015290519081900360640190fd5b600080866001600160a01b031685876040518082805190602001908083835b6020831061157a5780518252601f19909201916020918201910161155b565b6001836020036101000a03801982511681845116808217855250505050505090500191505060006040518083038185875af1925050503d80600081146115dc576040519150601f19603f3d011682016040523d82523d6000602084013e6115e1565b606091505b50915091506115f1828286611602565b979650505050505050565b3b151590565b60608315611611575081610702565b8251156116215782518084602001fd5b8160405162461bcd60e51b81526004018080602001828103825283818151815260200191508051906020019080838360005b8381101561166b578181015183820152602001611653565b50505050905090810190601f1680156116985780820380516001836020036101000a031916815260200191505b509250505060405180910390fd5b604080518082019091526000808252602082015290565b6040518060a001604052806000815260200160006001600160a01b0316815260200160006001600160a01b0316815260200160006001600160a01b03168152602001611707611735565b905290565b604051806060016040528061171f611735565b815260200161172c611735565b81526020016117075b6040518060200160405280600081525090565b803561039f81611fd6565b600060608284031215611764578081fd5b6040516060810181811067ffffffffffffffff8211171561178157fe5b60405290508061179184846117be565b81526117a084602085016117be565b60208201526117b284604085016117be565b60408201525092915050565b6000602082840312156117cf578081fd5b6040516020810181811067ffffffffffffffff821117156117ec57fe5b6040529135825250919050565b60006020828403121561180a578081fd5b813561070281611fd6565b600060208284031215611826578081fd5b815161070281611fd6565b600060608284031215611842578081fd5b6107028383611753565b6000806040838503121561185e578081fd5b61186884846117be565b946020939093013593505050565b600060208284031215611887578081fd5b5035919050565b60006020828403121561189f578081fd5b5051919050565b600080604083850312156118b8578182fd5b8235915060208301356118ca81611fd6565b809150509250929050565b60008082840360608112156118e8578283fd5b833592506040601f19820112156118fd578182fd5b506040516040810181811067ffffffffffffffff8211171561191b57fe5b60409081526020850135825284013561193381611fd6565b6020820152919491935090915050565b60008060808385031215611955578182fd5b823591506119668460208501611753565b90509250929050565b60008082840360c0811215611982578283fd5b8335925060a0601f1982011215611997578182fd5b506020830190509250929050565b600080600083850360e08112156119ba578182fd5b8435935060a0601f19820112156119cf578182fd5b5060405160a0810181811067ffffffffffffffff821117156119ed57fe5b604090815260208601358252850135611a0581611fd6565b60208201526060850135611a1881611fd6565b6040820152611a2960808601611748565b6060820152611a3b8660a087016117be565b60808201529150611a4e60c08501611748565b90509250925092565b60008060408385031215611a69578182fd5b50508035926020909101359150565b6001600160a01b0391909116815260200190565b901515815260200190565b6020808252602b908201527f4d61726b65743a20496e76616c696420626964207368617265732c206d75737460408201526a02073756d20746f203130360ac1b606082015260800190565b60208082526028908201527f4d61726b65743a206269642063757272656e63792063616e6e6f742062652030604082015267206164647265737360c01b606082015260800190565b60208082526027908201527f4d61726b65743a2042696420696e76616c696420666f722073686172652073706040820152666c697474696e6760c81b606082015260800190565b60208082526022908201527f4d61726b65743a206269646465722063616e6e6f742062652030206164647265604082015261737360f01b606082015260800190565b60208082526027908201527f4d61726b65743a2041736b20696e76616c696420666f722073686172652073706040820152666c697474696e6760c81b606082015260800190565b60208082526025908201527f4d61726b65743a2063616e6e6f742072656d6f76652062696420616d6f756e746040820152640206f6620360dc1b606082015260800190565b6020808252601e908201527f4d61726b65743a2063616e6e6f742062696420616d6f756e74206f6620300000604082015260600190565b6020808252601e908201527f4d61726b65743a2063616e6e6f742061636365707420626964206f6620300000604082015260600190565b60208082526012908201527126b0b935b2ba1d1027b7363c9037bbb732b960711b604082015260600190565b6020808252601d908201527f4d61726b65743a20556e65787065637465642062696420666f756e642e000000604082015260600190565b6020808252601b908201527f4d61726b65743a204f6e6c79206d6564696120636f6e74726163740000000000604082015260600190565b6020808252602f908201527f4d61726b65743a2053656c6c206f6e2066656520696e76616c696420666f722060408201526e73686172652073706c697474696e6760881b606082015260800190565b60208082526024908201527f4d61726b65743a20496e76616c6964206269642073686172657320666f72207460408201526337b5b2b760e11b606082015260800190565b6020808252601a908201527f4d61726b65743a20416c726561647920636f6e66696775726564000000000000604082015260600190565b60208082526029908201527f4d61726b65743a2062696420726563697069656e742063616e6e6f742062652060408201526830206164647265737360b81b606082015260800190565b60208082526031908201527f4d61726b65743a2063616e6e6f7420736574206d6564696120636f6e7472616360408201527074206173207a65726f206164647265737360781b606082015260800190565b815181526020918201516001600160a01b03169181019190915260400190565b815481526001909101546001600160a01b0316602082015260400190565b81515181526020808301515190820152604091820151519181019190915260600190565b8154815260018201546020820152600290910154604082015260600190565b815181526020808301516001600160a01b039081169183019190915260408084015182169083015260608084015190911690820152608091820151519181019190915260a00190565b8154815260018201546001600160a01b0390811660208301526002830154811660408301526003830154166060820152600490910154608082015260a00190565b90815260200190565b9182526001600160a01b0316602082015260400190565b6001600160a01b0381168114611feb57600080fd5b5056fe536166654d6174683a206d756c7469706c69636174696f6e206f766572666c6f775361666545524332303a204552433230206f7065726174696f6e20646964206e6f742073756363656564a2646970667358221220f425d36e19f2755c0484b55c3439aec6ed5c797260857ecb63d0b4ce3125cec364736f6c63430007060033",
  "linkReferences": {},
  "deployedLinkReferences": {}
}