{
  "_format": "hh-sol-artifact-1",
  "contractName": "AuctionHouse",
  "sourceName": "contracts/AuctionHouse.sol",
  "abi": [
    {
      "inputs": [
        {
          "internalType": "address",
          "name": "_zora",
          "type": "address"
        },
        {
          "internalType": "address",
          "name": "_weth",
          "type": "address"
        }
      ],
      "stateMutability": "nonpayable",
      "type": "constructor"
    },
    {
      "anonymous": false,
      "inputs": [
        {
          "indexed": true,
          "internalType": "uint256",
          "name": "auctionId",
          "type": "uint256"
        },
        {
          "indexed": true,
          "internalType": "uint256",
          "name": "tokenId",
          "type": "uint256"
        },
        {
          "indexed": true,
          "internalType": "address",
          "name": "tokenContract",
          "type": "address"
        },
        {
          "indexed": false,
          "internalType": "bool",
          "name": "approved",
          "type": "bool"
        }
      ],
      "name": "AuctionApprovalUpdated",
      "type": "event"
    },
    {
      "anonymous": false,
      "inputs": [
        {
          "indexed": true,
          "internalType": "uint256",
          "name": "auctionId",
          "type": "uint256"
        },
        {
          "indexed": true,
          "internalType": "uint256",
          "name": "tokenId",
          "type": "uint256"
        },
        {
          "indexed": true,
          "internalType": "address",
          "name": "tokenContract",
          "type": "address"
        },
        {
          "indexed": false,
          "internalType": "address",
          "name": "sender",
          "type": "address"
        },
        {
          "indexed": false,
          "internalType": "uint256",
          "name": "value",
          "type": "uint256"
        },
        {
          "indexed": false,
          "internalType": "bool",
          "name": "firstBid",
          "type": "bool"
        },
        {
          "indexed": false,
          "internalType": "bool",
          "name": "extended",
          "type": "bool"
        }
      ],
      "name": "AuctionBid",
      "type": "event"
    },
    {
      "anonymous": false,
      "inputs": [
        {
          "indexed": true,
          "internalType": "uint256",
          "name": "auctionId",
          "type": "uint256"
        },
        {
          "indexed": true,
          "internalType": "uint256",
          "name": "tokenId",
          "type": "uint256"
        },
        {
          "indexed": true,
          "internalType": "address",
          "name": "tokenContract",
          "type": "address"
        },
        {
          "indexed": false,
          "internalType": "address",
          "name": "tokenOwner",
          "type": "address"
        }
      ],
      "name": "AuctionCanceled",
      "type": "event"
    },
    {
      "anonymous": false,
      "inputs": [
        {
          "indexed": true,
          "internalType": "uint256",
          "name": "auctionId",
          "type": "uint256"
        },
        {
          "indexed": true,
          "internalType": "uint256",
          "name": "tokenId",
          "type": "uint256"
        },
        {
          "indexed": true,
          "internalType": "address",
          "name": "tokenContract",
          "type": "address"
        },
        {
          "indexed": false,
          "internalType": "uint256",
          "name": "duration",
          "type": "uint256"
        },
        {
          "indexed": false,
          "internalType": "uint256",
          "name": "reservePrice",
          "type": "uint256"
        },
        {
          "indexed": false,
          "internalType": "address",
          "name": "tokenOwner",
          "type": "address"
        },
        {
          "indexed": false,
          "internalType": "address",
          "name": "curator",
          "type": "address"
        },
        {
          "indexed": false,
          "internalType": "uint8",
          "name": "curatorFeePercentage",
          "type": "uint8"
        },
        {
          "indexed": false,
          "internalType": "address",
          "name": "auctionCurrency",
          "type": "address"
        }
      ],
      "name": "AuctionCreated",
      "type": "event"
    },
    {
      "anonymous": false,
      "inputs": [
        {
          "indexed": true,
          "internalType": "uint256",
          "name": "auctionId",
          "type": "uint256"
        },
        {
          "indexed": true,
          "internalType": "uint256",
          "name": "tokenId",
          "type": "uint256"
        },
        {
          "indexed": true,
          "internalType": "address",
          "name": "tokenContract",
          "type": "address"
        },
        {
          "indexed": false,
          "internalType": "uint256",
          "name": "duration",
          "type": "uint256"
        }
      ],
      "name": "AuctionDurationExtended",
      "type": "event"
    },
    {
      "anonymous": false,
      "inputs": [
        {
          "indexed": true,
          "internalType": "uint256",
          "name": "auctionId",
          "type": "uint256"
        },
        {
          "indexed": true,
          "internalType": "uint256",
          "name": "tokenId",
          "type": "uint256"
        },
        {
          "indexed": true,
          "internalType": "address",
          "name": "tokenContract",
          "type": "address"
        },
        {
          "indexed": false,
          "internalType": "address",
          "name": "tokenOwner",
          "type": "address"
        },
        {
          "indexed": false,
          "internalType": "address",
          "name": "curator",
          "type": "address"
        },
        {
          "indexed": false,
          "internalType": "address",
          "name": "winner",
          "type": "address"
        },
        {
          "indexed": false,
          "internalType": "uint256",
          "name": "amount",
          "type": "uint256"
        },
        {
          "indexed": false,
          "internalType": "uint256",
          "name": "curatorFee",
          "type": "uint256"
        },
        {
          "indexed": false,
          "internalType": "address",
          "name": "auctionCurrency",
          "type": "address"
        }
      ],
      "name": "AuctionEnded",
      "type": "event"
    },
    {
      "anonymous": false,
      "inputs": [
        {
          "indexed": true,
          "internalType": "uint256",
          "name": "auctionId",
          "type": "uint256"
        },
        {
          "indexed": true,
          "internalType": "uint256",
          "name": "tokenId",
          "type": "uint256"
        },
        {
          "indexed": true,
          "internalType": "address",
          "name": "tokenContract",
          "type": "address"
        },
        {
          "indexed": false,
          "internalType": "uint256",
          "name": "reservePrice",
          "type": "uint256"
        }
      ],
      "name": "AuctionReservePriceUpdated",
      "type": "event"
    },
    {
      "stateMutability": "payable",
      "type": "fallback"
    },
    {
      "inputs": [
        {
          "internalType": "uint256",
          "name": "",
          "type": "uint256"
        }
      ],
      "name": "auctions",
      "outputs": [
        {
          "internalType": "uint256",
          "name": "tokenId",
          "type": "uint256"
        },
        {
          "internalType": "address",
          "name": "tokenContract",
          "type": "address"
        },
        {
          "internalType": "bool",
          "name": "approved",
          "type": "bool"
        },
        {
          "internalType": "uint256",
          "name": "amount",
          "type": "uint256"
        },
        {
          "internalType": "uint256",
          "name": "duration",
          "type": "uint256"
        },
        {
          "internalType": "uint256",
          "name": "firstBidTime",
          "type": "uint256"
        },
        {
          "internalType": "uint256",
          "name": "reservePrice",
          "type": "uint256"
        },
        {
          "internalType": "uint8",
          "name": "curatorFeePercentage",
          "type": "uint8"
        },
        {
          "internalType": "address",
          "name": "tokenOwner",
          "type": "address"
        },
        {
          "internalType": "address payable",
          "name": "bidder",
          "type": "address"
        },
        {
          "internalType": "address payable",
          "name": "curator",
          "type": "address"
        },
        {
          "internalType": "address",
          "name": "auctionCurrency",
          "type": "address"
        }
      ],
      "stateMutability": "view",
      "type": "function"
    },
    {
      "inputs": [
        {
          "internalType": "uint256",
          "name": "auctionId",
          "type": "uint256"
        }
      ],
      "name": "cancelAuction",
      "outputs": [],
      "stateMutability": "nonpayable",
      "type": "function"
    },
    {
      "inputs": [
        {
          "internalType": "uint256",
          "name": "tokenId",
          "type": "uint256"
        },
        {
          "internalType": "address",
          "name": "tokenContract",
          "type": "address"
        },
        {
          "internalType": "uint256",
          "name": "duration",
          "type": "uint256"
        },
        {
          "internalType": "uint256",
          "name": "reservePrice",
          "type": "uint256"
        },
        {
          "internalType": "address payable",
          "name": "curator",
          "type": "address"
        },
        {
          "internalType": "uint8",
          "name": "curatorFeePercentage",
          "type": "uint8"
        },
        {
          "internalType": "address",
          "name": "auctionCurrency",
          "type": "address"
        }
      ],
      "name": "createAuction",
      "outputs": [
        {
          "internalType": "uint256",
          "name": "",
          "type": "uint256"
        }
      ],
      "stateMutability": "nonpayable",
      "type": "function"
    },
    {
      "inputs": [
        {
          "internalType": "uint256",
          "name": "auctionId",
          "type": "uint256"
        },
        {
          "internalType": "uint256",
          "name": "amount",
          "type": "uint256"
        }
      ],
      "name": "createBid",
      "outputs": [],
      "stateMutability": "payable",
      "type": "function"
    },
    {
      "inputs": [
        {
          "internalType": "uint256",
          "name": "auctionId",
          "type": "uint256"
        }
      ],
      "name": "endAuction",
      "outputs": [],
      "stateMutability": "nonpayable",
      "type": "function"
    },
    {
      "inputs": [],
      "name": "minBidIncrementPercentage",
      "outputs": [
        {
          "internalType": "uint8",
          "name": "",
          "type": "uint8"
        }
      ],
      "stateMutability": "view",
      "type": "function"
    },
    {
      "inputs": [
        {
          "internalType": "uint256",
          "name": "auctionId",
          "type": "uint256"
        },
        {
          "internalType": "bool",
          "name": "approved",
          "type": "bool"
        }
      ],
      "name": "setAuctionApproval",
      "outputs": [],
      "stateMutability": "nonpayable",
      "type": "function"
    },
    {
      "inputs": [
        {
          "internalType": "uint256",
          "name": "auctionId",
          "type": "uint256"
        },
        {
          "internalType": "uint256",
          "name": "reservePrice",
          "type": "uint256"
        }
      ],
      "name": "setAuctionReservePrice",
      "outputs": [],
      "stateMutability": "nonpayable",
      "type": "function"
    },
    {
      "inputs": [],
      "name": "timeBuffer",
      "outputs": [
        {
          "internalType": "uint256",
          "name": "",
          "type": "uint256"
        }
      ],
      "stateMutability": "view",
      "type": "function"
    },
    {
      "inputs": [],
      "name": "wethAddress",
      "outputs": [
        {
          "internalType": "address",
          "name": "",
          "type": "address"
        }
      ],
      "stateMutability": "view",
      "type": "function"
    },
    {
      "inputs": [],
      "name": "zora",
      "outputs": [
        {
          "internalType": "address",
          "name": "",
          "type": "address"
        }
      ],
      "stateMutability": "view",
      "type": "function"
    },
    {
      "stateMutability": "payable",
      "type": "receive"
    }
  ],
  "bytecode": "0x60806040523480156200001157600080fd5b5060405162002e1038038062002e10833981016040819052620000349162000157565b60016000556040516301ffc9a760e01b81526001600160a01b038316906301ffc9a7906200006e906380ac58cd60e01b90600401620001b7565b60206040518083038186803b1580156200008757600080fd5b505afa1580156200009c573d6000803e3d6000fd5b505050506040513d601f19601f82011682018060405250810190620000c291906200018e565b620000ea5760405162461bcd60e51b8152600401620000e190620001cc565b60405180910390fd5b60028054600380546001600160a01b039485166001600160a01b031990911617905561038460015560ff199290931661010002610100600160a81b03199093169290921716600517905562000203565b80516001600160a01b03811681146200015257600080fd5b919050565b600080604083850312156200016a578182fd5b62000175836200013a565b915062000185602084016200013a565b90509250929050565b600060208284031215620001a0578081fd5b81518015158114620001b0578182fd5b9392505050565b6001600160e01b031991909116815260200190565b6020808252601d908201527f446f65736e277420737570706f7274204e465420696e74657266616365000000604082015260600190565b612bfd80620002136000396000f3fe6080604052600436106100a05760003560e01c806396b5a7551161006457806396b5a7551461016e578063973ddb4a1461018e578063b296024d146101ae578063b7751c71146101d0578063b9a2de3a146101e3578063ec91f2a414610203576100a7565b8063166f46a7146100a95780634f0e0ef3146100d4578063571a26a0146100e95780636f8a41e11461012157806375e9249f14610141576100a7565b366100a757005b005b3480156100b557600080fd5b506100be610218565b6040516100cb9190612492565b60405180910390f35b3480156100e057600080fd5b506100be61022c565b3480156100f557600080fd5b5061010961010436600461235a565b61023b565b6040516100cb9c9b9a99989796959493929190612a11565b34801561012d57600080fd5b506100a761013c366004612438565b6102b1565b34801561014d57600080fd5b5061016161015c36600461238a565b6103db565b6040516100cb9190612a08565b34801561017a57600080fd5b506100a761018936600461235a565b610942565b34801561019a57600080fd5b506100a76101a9366004612409565b610a57565b3480156101ba57600080fd5b506101c3610af5565b6040516100cb9190612b02565b6100a76101de366004612438565b610afe565b3480156101ef57600080fd5b506100a76101fe36600461235a565b61102a565b34801561020f57600080fd5b5061016161147f565b60025461010090046001600160a01b031681565b6003546001600160a01b031681565b6004602081905260009182526040909120805460018201546002830154600384015494840154600585015460068601546007870154600888015460099098015496986001600160a01b038088169960ff600160a01b9099048916999798929792851694610100900482169382169290821691168c565b816102bb81611485565b6102e05760405162461bcd60e51b81526004016102d7906127a7565b60405180910390fd5b6000838152600460205260409020600801546001600160a01b0316331480610326575060008381526004602052604090206006015461010090046001600160a01b031633145b6103425760405162461bcd60e51b81526004016102d790612828565b60008381526004602081905260409091200154156103725760405162461bcd60e51b81526004016102d790612712565b60008381526004602052604090819020600581018490556001810154905491516001600160a01b03909116919085907f01e6a465ec1edd582d333147c7b7edf5998164f2cf2269dcb9c93d46c67bd317906103ce908790612a08565b60405180910390a4505050565b600060026000541415610423576040805162461bcd60e51b815260206004820152601f6024820152600080516020612b37833981519152604482015290519081900360640190fd5b60026000556040516301ffc9a760e01b81526001600160a01b038816906301ffc9a79061045b906380ac58cd60e01b90600401612550565b60206040518083038186803b15801561047357600080fd5b505afa158015610487573d6000803e3d6000fd5b505050506040513d601f19601f820116820180604052508101906104ab919061233e565b6104c75760405162461bcd60e51b81526004016102d790612965565b60648360ff16106104ea5760405162461bcd60e51b81526004016102d7906128a5565b6040516331a9108f60e11b81526000906001600160a01b03891690636352211e90610519908c90600401612a08565b60206040518083038186803b15801561053157600080fd5b505afa158015610545573d6000803e3d6000fd5b505050506040513d601f19601f820116820180604052508101906105699190612322565b60405163020604bf60e21b81529091506001600160a01b0389169063081812fc90610598908c90600401612a08565b60206040518083038186803b1580156105b057600080fd5b505afa1580156105c4573d6000803e3d6000fd5b505050506040513d601f19601f820116820180604052508101906105e89190612322565b6001600160a01b0316336001600160a01b0316148061060f5750336001600160a01b038216145b61062b5760405162461bcd60e51b81526004016102d7906128ef565b600061063760056114aa565b90506040518061018001604052808b81526020018a6001600160a01b0316815260200160001515815260200160008152602001898152602001600081526020018881526020018660ff168152602001836001600160a01b0316815260200160006001600160a01b03168152602001876001600160a01b03168152602001856001600160a01b0316815250600460008381526020019081526020016000206000820151816000015560208201518160010160006101000a8154816001600160a01b0302191690836001600160a01b0316021790555060408201518160010160146101000a81548160ff021916908315150217905550606082015181600201556080820151816003015560a0820151816004015560c0820151816005015560e08201518160060160006101000a81548160ff021916908360ff1602179055506101008201518160060160016101000a8154816001600160a01b0302191690836001600160a01b031602179055506101208201518160070160006101000a8154816001600160a01b0302191690836001600160a01b031602179055506101408201518160080160006101000a8154816001600160a01b0302191690836001600160a01b031602179055506101608201518160090160006101000a8154816001600160a01b0302191690836001600160a01b03160217905550905050886001600160a01b03166323b872dd83308d6040518463ffffffff1660e01b815260040161085f939291906124a6565b600060405180830381600087803b15801561087957600080fd5b505af115801561088d573d6000803e3d6000fd5b5050505061089b60056114ae565b886001600160a01b03168a827f38c0b9047bd28fac9f420b967f6caf4a6260ba09d18940a9a502578a480c09008b8b878c8c8c6040516108e096959493929190612acb565b60405180910390a46000818152600460205260409020600801546001600160a01b031615806109205750816001600160a01b0316866001600160a01b0316145b15610930576109308160016114b7565b60016000559998505050505050505050565b60026000541415610988576040805162461bcd60e51b815260206004820152601f6024820152600080516020612b37833981519152604482015290519081900360640190fd5b60026000558061099781611485565b6109b35760405162461bcd60e51b81526004016102d7906127a7565b60008281526004602052604090206006015461010090046001600160a01b03163314806109f957506000828152600460205260409020600801546001600160a01b031633145b610a155760405162461bcd60e51b81526004016102d790612648565b6000828152600460208190526040909120015415610a455760405162461bcd60e51b81526004016102d79061259c565b610a4e8261152e565b50506001600055565b81610a6181611485565b610a7d5760405162461bcd60e51b81526004016102d7906127a7565b6000838152600460205260409020600801546001600160a01b03163314610ab65760405162461bcd60e51b81526004016102d7906125e3565b6000838152600460208190526040909120015415610ae65760405162461bcd60e51b81526004016102d790612712565b610af083836114b7565b505050565b60025460ff1681565b81610b0881611485565b610b245760405162461bcd60e51b81526004016102d7906127a7565b60026000541415610b6a576040805162461bcd60e51b815260206004820152601f6024820152600080516020612b37833981519152604482015290519081900360640190fd5b6002600090815583815260046020526040902060078101546001909101546001600160a01b0390911690600160a01b900460ff16610bba5760405162461bcd60e51b81526004016102d7906126cf565b600084815260046020819052604090912001541580610bf9575060008481526004602081905260409091206003810154910154610bf69161168d565b42105b610c155760405162461bcd60e51b81526004016102d79061293c565b600084815260046020526040902060050154831015610c465760405162461bcd60e51b81526004016102d790612698565b60028054600086815260046020526040902090910154610c9291610c7a91606491610c74919060ff166116f0565b90611749565b6000868152600460205260409020600201549061168d565b831015610cb15760405162461bcd60e51b81526004016102d790612749565b6002546000858152600460205260409020600101546001600160a01b03908116610100909204161415610e1257600260019054906101000a90046001600160a01b03166001600160a01b031663a1794bcd6040518163ffffffff1660e01b8152600401602060405180830381600087803b158015610d2e57600080fd5b505af1158015610d42573d6000803e3d6000fd5b505050506040513d601f19601f82011682018060405250810190610d669190612322565b6000858152600460208190526040918290205491516302e8fe1360e01b81526001600160a01b0393909316926302e8fe1392610da6929091889101612abd565b60206040518083038186803b158015610dbe57600080fd5b505afa158015610dd2573d6000803e3d6000fd5b505050506040513d601f19601f82011682018060405250810190610df6919061233e565b610e125760405162461bcd60e51b81526004016102d790612565565b60008481526004602081905260409091200154610e4357600084815260046020819052604090912042910155610e7f565b6001600160a01b03811615610e7f5760008481526004602052604090206002810154600990910154610e7f9183916001600160a01b03166117b0565b600084815260046020526040902060090154610ea59084906001600160a01b03166118c9565b60008481526004602081905260408220600281018690556007810180546001600160a01b0319163317905560015460038201549190920154610ef2914291610eec9161168d565b90611aad565b1015610f515760008581526004602081905260409091206003810154910154610f3990610f3290610f29904290610eec908661168d565b60015490611aad565b829061168d565b60008781526004602052604090206003015550600190505b600085815260046020526040908190206001810154905491516001600160a01b03918216929188917fda6b779568630ce5e5658b317174df474d5b335541ed9471bd8424a017f3be6d91610faf9133918b91908a16159089906124ca565b60405180910390a4801561101e57600085815260046020526040908190206001810154815460039092015492516001600160a01b039091169288917f55cf2b31608fbe49fa31cd0285b6b6cce46f56d26c8c59980a2af5a0ffbdd5db9161101591612a08565b60405180910390a45b50506001600055505050565b8061103481611485565b6110505760405162461bcd60e51b81526004016102d7906127a7565b60026000541415611096576040805162461bcd60e51b815260206004820152601f6024820152600080516020612b37833981519152604482015290519081900360640190fd5b6002600090815582815260046020819052604090912001546110ca5760405162461bcd60e51b81526004016102d79061261a565b600082815260046020819052604090912060038101549101546110ec9161168d565b42101561110b5760405162461bcd60e51b81526004016102d79061286e565b6000828152600460205260408120600901546001600160a01b03161561114b576000838152600460205260409020600901546001600160a01b0316611158565b6003546001600160a01b03165b6000848152600460205260408120600280820154905460019092015493945091926001600160a01b039081166101009092041614156111fe5760008061119d87611b0a565b935091508290506001821515146111f7576000878152600460205260409020600781015460028201546009909201546111e4926001600160a01b03928316929091166117b0565b6111ed8761152e565b5050505050610a4e565b50506112be565b6000858152600460208190526040918290206001810154600782015491549351632142170760e11b81526001600160a01b03918216946342842e0e946112489430941692016124a6565b600060405180830381600087803b15801561126257600080fd5b505af1925050508015611273575060015b6112be576000858152600460205260409020600781015460028201546009909201546112ad926001600160a01b03928316929091166117b0565b6112b68561152e565b505050610a4e565b6000858152600460205260409020600801546001600160a01b0316156113455760008581526004602052604090206006015461130590606490610c7490849060ff166116f0565b91506113118183611aad565b60008681526004602052604090206008810154600990910154919250611345916001600160a01b03918216918591166117b0565b6000858152600460205260409020600681015460099091015461137b916001600160a01b036101009091048116918491166117b0565b60008581526004602052604090819020600181015481546006830154600884015460079094015494516001600160a01b039384169592948b947f4f35fb3ea0081b3ccbe8df613cab0f9e1694d50a025e0aa09b88a86a3d07c2de946113f49461010090048216939282169291169089908b908d906124f4565b60405180910390a45050506000918252506004602081905260408220828155600180820180546001600160a81b03199081169091556002830185905560038301859055928201849055600582018490556006820180549093169092556007810180546001600160a01b0319908116909155600882018054821690556009909101805490911690559055565b60015481565b60009081526004602052604090206006015461010090046001600160a01b0316151590565b5490565b80546001019055565b6000828152600460205260409081902060018101805460ff60a01b1916600160a01b851515021790819055905491516001600160a01b03909116919084907fec35d321ab4972475f131e184c0c0fe52c5a58a29d74f7db2969af2f6dd93a1f90611522908690612545565b60405180910390a45050565b6000818152600460208190526040918290206006810154600182015491549351632142170760e11b81526101009091046001600160a01b03908116949216926342842e0e92611582923092879291016124a6565b600060405180830381600087803b15801561159c57600080fd5b505af11580156115b0573d6000803e3d6000fd5b505050600083815260046020526040908190206001810154905491516001600160a01b03909116925084907f6091afcbe8514686c43b167ca4f1b03e24446d29d8490d496e438f8a2c76343990611608908690612492565b60405180910390a450600090815260046020819052604082208281556001810180546001600160a81b03199081169091556002820184905560038201849055918101839055600581019290925560068201805490911690556007810180546001600160a01b031990811690915560088201805482169055600990910180549091169055565b6000828201838110156116e7576040805162461bcd60e51b815260206004820152601b60248201527f536166654d6174683a206164646974696f6e206f766572666c6f770000000000604482015290519081900360640190fd5b90505b92915050565b6000826116ff575060006116ea565b8282028284828161170c57fe5b04146116e75760405162461bcd60e51b8152600401808060200182810382526021815260200180612b7d6021913960400191505060405180910390fd5b600080821161179f576040805162461bcd60e51b815260206004820152601a60248201527f536166654d6174683a206469766973696f6e206279207a65726f000000000000604482015290519081900360640190fd5b8183816117a857fe5b049392505050565b6001600160a01b0381166118b557600354604051632e1a7d4d60e01b81526001600160a01b0390911690632e1a7d4d906117ee908590600401612a08565b600060405180830381600087803b15801561180857600080fd5b505af115801561181c573d6000803e3d6000fd5b5050505061182a8383611f2a565b6118b057600360009054906101000a90046001600160a01b03166001600160a01b031663d0e30db0836040518263ffffffff1660e01b81526004016000604051808303818588803b15801561187e57600080fd5b505af1158015611892573d6000803e3d6000fd5b50506003546118b093506001600160a01b0316915085905084611fa1565b610af0565b610af06001600160a01b0382168484611fa1565b6001600160a01b038116611964578134146118f65760405162461bcd60e51b81526004016102d7906127d6565b600360009054906101000a90046001600160a01b03166001600160a01b031663d0e30db0836040518263ffffffff1660e01b81526004016000604051808303818588803b15801561194657600080fd5b505af115801561195a573d6000803e3d6000fd5b5050505050611aa9565b6040516370a0823160e01b815281906000906001600160a01b038316906370a0823190611995903090600401612492565b60206040518083038186803b1580156119ad57600080fd5b505afa1580156119c1573d6000803e3d6000fd5b505050506040513d601f19601f820116820180604052508101906119e59190612372565b90506119fc6001600160a01b038316333087611ff3565b6040516370a0823160e01b81526000906001600160a01b038416906370a0823190611a2b903090600401612492565b60206040518083038186803b158015611a4357600080fd5b505afa158015611a57573d6000803e3d6000fd5b505050506040513d601f19601f82011682018060405250810190611a7b9190612372565b905080611a88838761168d565b14611aa55760405162461bcd60e51b81526004016102d7906129b4565b5050505b5050565b600082821115611b04576040805162461bcd60e51b815260206004820152601e60248201527f536166654d6174683a207375627472616374696f6e206f766572666c6f770000604482015290519081900360640190fd5b50900390565b600081815260046020526040812060090154819081906001600160a01b031615611b4e576000848152600460205260409020600901546001600160a01b0316611b5b565b6003546001600160a01b03165b6040805160808101825260008781526004602081815284832060028082015486526001600160a01b0380891684880181905230888a01528d8752858552600790930154811660608801529054875163a1794bcd60e01b815297519899509597919663095ea7b39661010090049091169463a1794bcd948281019493928390030190829087803b158015611bed57600080fd5b505af1158015611c01573d6000803e3d6000fd5b505050506040513d601f19601f82011682018060405250810190611c259190612322565b83516040516001600160e01b031960e085901b168152611c4992919060040161252c565b602060405180830381600087803b158015611c6357600080fd5b505af1158015611c77573d6000803e3d6000fd5b505050506040513d601f19601f82011682018060405250810190611c9b919061233e565b50600254600086815260046020819052604091829020549151637499a1cf60e01b81526101009093046001600160a01b031692637499a1cf92611ce2929091869101612a7a565b600060405180830381600087803b158015611cfc57600080fd5b505af1158015611d10573d6000803e3d6000fd5b50506040516370a0823160e01b8152600092506001600160a01b03851691506370a0823190611d43903090600401612492565b60206040518083038186803b158015611d5b57600080fd5b505afa158015611d6f573d6000803e3d6000fd5b505050506040513d601f19601f82011682018060405250810190611d939190612372565b600254600088815260046020819052604091829020549151630851008560e41b81529394506101009092046001600160a01b031692638510085092611ddb9291879101612a7a565b600060405180830381600087803b158015611df557600080fd5b505af1925050508015611e06575060015b611e8f5760025460008781526004602081905260409182902054915163b320f45960e01b81526101009093046001600160a01b03169263b320f45992611e4e92909101612a08565b600060405180830381600087803b158015611e6857600080fd5b505af1158015611e7c573d6000803e3d6000fd5b5050505060008094509450505050611f25565b6040516370a0823160e01b81526000906001600160a01b038516906370a0823190611ebe903090600401612492565b60206040518083038186803b158015611ed657600080fd5b505afa158015611eea573d6000803e3d6000fd5b505050506040513d601f19601f82011682018060405250810190611f0e9190612372565b90506001611f1c8284611aad565b95509550505050505b915091565b60408051600080825260208201928390529182916001600160a01b038616918591611f5491612459565b60006040518083038185875af1925050503d8060008114611f91576040519150601f19603f3d011682016040523d82523d6000602084013e611f96565b606091505b509095945050505050565b604080516001600160a01b038416602482015260448082018490528251808303909101815260649091019091526020810180516001600160e01b031663a9059cbb60e01b179052610af0908490612053565b604080516001600160a01b0380861660248301528416604482015260648082018490528251808303909101815260849091019091526020810180516001600160e01b03166323b872dd60e01b17905261204d908590612053565b50505050565b60006120a8826040518060400160405280602081526020017f5361666545524332303a206c6f772d6c6576656c2063616c6c206661696c6564815250856001600160a01b03166121049092919063ffffffff16565b805190915015610af0578080602001905160208110156120c757600080fd5b5051610af05760405162461bcd60e51b815260040180806020018281038252602a815260200180612b9e602a913960400191505060405180910390fd5b6060612113848460008561211d565b90505b9392505050565b60608247101561215e5760405162461bcd60e51b8152600401808060200182810382526026815260200180612b576026913960400191505060405180910390fd5b61216785612278565b6121b8576040805162461bcd60e51b815260206004820152601d60248201527f416464726573733a2063616c6c20746f206e6f6e2d636f6e7472616374000000604482015290519081900360640190fd5b600080866001600160a01b031685876040518082805190602001908083835b602083106121f65780518252601f1990920191602091820191016121d7565b6001836020036101000a03801982511681845116808217855250505050505090500191505060006040518083038185875af1925050503d8060008114612258576040519150601f19603f3d011682016040523d82523d6000602084013e61225d565b606091505b509150915061226d82828661227e565b979650505050505050565b3b151590565b6060831561228d575081612116565b82511561229d5782518084602001fd5b8160405162461bcd60e51b81526004018080602001828103825283818151815260200191508051906020019080838360005b838110156122e75781810151838201526020016122cf565b50505050905090810190601f1680156123145780820380516001836020036101000a031916815260200191505b509250505060405180910390fd5b600060208284031215612333578081fd5b81516116e781612b10565b60006020828403121561234f578081fd5b81516116e781612b28565b60006020828403121561236b578081fd5b5035919050565b600060208284031215612383578081fd5b5051919050565b600080600080600080600060e0888a0312156123a4578283fd5b8735965060208801356123b681612b10565b9550604088013594506060880135935060808801356123d481612b10565b925060a088013560ff811681146123e9578283fd5b915060c08801356123f981612b10565b8091505092959891949750929550565b6000806040838503121561241b578182fd5b82359150602083013561242d81612b28565b809150509250929050565b6000806040838503121561244a578182fd5b50508035926020909101359150565b60008251815b81811015612479576020818601810151858301520161245f565b818111156124875782828501525b509190910192915050565b6001600160a01b0391909116815260200190565b6001600160a01b039384168152919092166020820152604081019190915260600190565b6001600160a01b039490941684526020840192909252151560408301521515606082015260800190565b6001600160a01b039687168152948616602086015292851660408501526060840191909152608083015290911660a082015260c00190565b6001600160a01b03929092168252602082015260400190565b901515815260200190565b6001600160e01b031991909116815260200190565b6020808252601f908201527f42696420696e76616c696420666f722073686172652073706c697474696e6700604082015260600190565b60208082526027908201527f43616e27742063616e63656c20616e2061756374696f6e206f6e63652069742760408201526639903132b3bab760c91b606082015260800190565b60208082526017908201527f4d7573742062652061756374696f6e2063757261746f72000000000000000000604082015260600190565b60208082526014908201527320bab1ba34b7b7103430b9b713ba103132b3bab760611b604082015260600190565b60208082526030908201527f43616e206f6e6c792062652063616c6c65642062792061756374696f6e20637260408201526f32b0ba37b91037b91031bab930ba37b960811b606082015260800190565b6020808252601f908201527f4d7573742073656e64206174206c656173742072657365727665507269636500604082015260600190565b60208082526023908201527f41756374696f6e206d75737420626520617070726f76656420627920637572616040820152623a37b960e91b606082015260800190565b6020808252601b908201527f41756374696f6e2068617320616c726561647920737461727465640000000000604082015260600190565b602080825260409082018190527f4d7573742073656e64206d6f7265207468616e206c6173742062696420627920908201527f6d696e426964496e6372656d656e7450657263656e7461676520616d6f756e74606082015260800190565b602080825260159082015274105d58dd1a5bdb88191bd95cdb89dd08195e1a5cdd605a1b604082015260600190565b60208082526032908201527f53656e74204554482056616c756520646f6573206e6f74206d617463682073706040820152711958da599a595908189a5908185b5bdd5b9d60721b606082015260800190565b60208082526026908201527f4d7573742062652061756374696f6e2063757261746f72206f7220746f6b656e6040820152651037bbb732b960d11b606082015260800190565b60208082526018908201527f41756374696f6e206861736e277420636f6d706c657465640000000000000000604082015260600190565b6020808252602a908201527f63757261746f7246656550657263656e74616765206d757374206265206c6573604082015269073207468616e203130360b41b606082015260800190565b6020808252602d908201527f43616c6c6572206d75737420626520617070726f766564206f72206f776e657260408201526c08199bdc881d1bdad95b881a59609a1b606082015260800190565b6020808252600f908201526e105d58dd1a5bdb88195e1c1a5c9959608a1b604082015260600190565b6020808252602f908201527f746f6b656e436f6e747261637420646f6573206e6f7420737570706f7274204560408201526e524337323120696e7465726661636560881b606082015260800190565b60208082526034908201527f546f6b656e207472616e736665722063616c6c20646964206e6f74207472616e6040820152731cd9995c88195e1c1958dd195908185b5bdd5b9d60621b606082015260800190565b90815260200190565b9b8c526001600160a01b039a8b1660208d015298151560408c015260608b019790975260808a019590955260a089019390935260c088019190915260ff1660e0870152841661010086015283166101208501528216610140840152166101608201526101800190565b91825280516020808401919091528101516001600160a01b0390811660408085019190915282015181166060808501919091529091015116608082015260a00190565b918252602082015260400190565b95865260208601949094526001600160a01b039283166040860152908216606085015260ff1660808401521660a082015260c00190565b60ff91909116815260200190565b6001600160a01b0381168114612b2557600080fd5b50565b8015158114612b2557600080fdfe5265656e7472616e637947756172643a207265656e7472616e742063616c6c00416464726573733a20696e73756666696369656e742062616c616e636520666f722063616c6c536166654d6174683a206d756c7469706c69636174696f6e206f766572666c6f775361666545524332303a204552433230206f7065726174696f6e20646964206e6f742073756363656564a2646970667358221220e8071f94375ead1d7c78edd21215eff068f41a638056d30c75623411a3c21eb764736f6c63430007060033",
  "linkReferences": {},
  "deployedLinkReferences": {}
}