{
  "_format": "hh-sol-artifact-1",
  "contractName": "ClipIt",
  "sourceName": "contracts/ClipIt.sol",
  "abi": [
    {
      "inputs": [
        {
          "internalType": "address",
          "name": "marketContractAddr",
          "type": "address"
        }
      ],
      "stateMutability": "nonpayable",
      "type": "constructor"
    },
    {
      "anonymous": false,
      "inputs": [
        {
          "indexed": true,
          "internalType": "address",
          "name": "owner",
          "type": "address"
        },
        {
          "indexed": true,
          "internalType": "address",
          "name": "approved",
          "type": "address"
        },
        {
          "indexed": true,
          "internalType": "uint256",
          "name": "tokenId",
          "type": "uint256"
        }
      ],
      "name": "Approval",
      "type": "event"
    },
    {
      "anonymous": false,
      "inputs": [
        {
          "indexed": true,
          "internalType": "address",
          "name": "owner",
          "type": "address"
        },
        {
          "indexed": true,
          "internalType": "address",
          "name": "operator",
          "type": "address"
        },
        {
          "indexed": false,
          "internalType": "bool",
          "name": "approved",
          "type": "bool"
        }
      ],
      "name": "ApprovalForAll",
      "type": "event"
    },
    {
      "anonymous": false,
      "inputs": [
        {
          "indexed": true,
          "internalType": "address",
          "name": "previousOwner",
          "type": "address"
        },
        {
          "indexed": true,
          "internalType": "address",
          "name": "newOwner",
          "type": "address"
        }
      ],
      "name": "OwnershipTransferred",
      "type": "event"
    },
    {
      "anonymous": false,
      "inputs": [
        {
          "indexed": true,
          "internalType": "uint256",
          "name": "_tokenId",
          "type": "uint256"
        },
        {
          "indexed": false,
          "internalType": "address",
          "name": "owner",
          "type": "address"
        },
        {
          "indexed": false,
          "internalType": "string",
          "name": "_uri",
          "type": "string"
        }
      ],
      "name": "TokenMetadataURIUpdated",
      "type": "event"
    },
    {
      "anonymous": false,
      "inputs": [
        {
          "indexed": true,
          "internalType": "uint256",
          "name": "_tokenId",
          "type": "uint256"
        },
        {
          "indexed": false,
          "internalType": "address",
          "name": "owner",
          "type": "address"
        },
        {
          "indexed": false,
          "internalType": "string",
          "name": "_uri",
          "type": "string"
        }
      ],
      "name": "TokenURIUpdated",
      "type": "event"
    },
    {
      "anonymous": false,
      "inputs": [
        {
          "indexed": true,
          "internalType": "address",
          "name": "from",
          "type": "address"
        },
        {
          "indexed": true,
          "internalType": "address",
          "name": "to",
          "type": "address"
        },
        {
          "indexed": true,
          "internalType": "uint256",
          "name": "tokenId",
          "type": "uint256"
        }
      ],
      "name": "Transfer",
      "type": "event"
    },
    {
      "inputs": [
        {
          "internalType": "uint256",
          "name": "tokenId",
          "type": "uint256"
        },
        {
          "components": [
            {
              "internalType": "uint256",
              "name": "amount",
              "type": "uint256"
            },
            {
              "internalType": "address",
              "name": "currency",
              "type": "address"
            },
            {
              "internalType": "address",
              "name": "bidder",
              "type": "address"
            },
            {
              "internalType": "address",
              "name": "recipient",
              "type": "address"
            }
          ],
          "internalType": "struct IMarket.Bid",
          "name": "bid",
          "type": "tuple"
        }
      ],
      "name": "acceptBid",
      "outputs": [],
      "stateMutability": "nonpayable",
      "type": "function"
    },
    {
      "inputs": [
        {
          "internalType": "address",
          "name": "to",
          "type": "address"
        },
        {
          "internalType": "uint256",
          "name": "tokenId",
          "type": "uint256"
        }
      ],
      "name": "approve",
      "outputs": [],
      "stateMutability": "nonpayable",
      "type": "function"
    },
    {
      "inputs": [
        {
          "internalType": "uint256",
          "name": "tokenId",
          "type": "uint256"
        },
        {
          "internalType": "address",
          "name": "recipient",
          "type": "address"
        }
      ],
      "name": "auctionTransfer",
      "outputs": [],
      "stateMutability": "nonpayable",
      "type": "function"
    },
    {
      "inputs": [
        {
          "internalType": "address",
          "name": "owner",
          "type": "address"
        }
      ],
      "name": "balanceOf",
      "outputs": [
        {
          "internalType": "uint256",
          "name": "",
          "type": "uint256"
        }
      ],
      "stateMutability": "view",
      "type": "function"
    },
    {
      "inputs": [],
      "name": "baseURI",
      "outputs": [
        {
          "internalType": "string",
          "name": "",
          "type": "string"
        }
      ],
      "stateMutability": "view",
      "type": "function"
    },
    {
      "inputs": [
        {
          "internalType": "uint256",
          "name": "tokenId",
          "type": "uint256"
        }
      ],
      "name": "burn",
      "outputs": [],
      "stateMutability": "nonpayable",
      "type": "function"
    },
    {
      "inputs": [
        {
          "internalType": "uint256",
          "name": "tokenId",
          "type": "uint256"
        }
      ],
      "name": "getApproved",
      "outputs": [
        {
          "internalType": "address",
          "name": "",
          "type": "address"
        }
      ],
      "stateMutability": "view",
      "type": "function"
    },
    {
      "inputs": [
        {
          "internalType": "address",
          "name": "owner",
          "type": "address"
        },
        {
          "internalType": "address",
          "name": "operator",
          "type": "address"
        }
      ],
      "name": "isApprovedForAll",
      "outputs": [
        {
          "internalType": "bool",
          "name": "",
          "type": "bool"
        }
      ],
      "stateMutability": "view",
      "type": "function"
    },
    {
      "inputs": [],
      "name": "marketContract",
      "outputs": [
        {
          "internalType": "address",
          "name": "",
          "type": "address"
        }
      ],
      "stateMutability": "view",
      "type": "function"
    },
    {
      "inputs": [
        {
          "internalType": "address",
          "name": "creator",
          "type": "address"
        },
        {
          "components": [
            {
              "internalType": "string",
              "name": "tokenURI",
              "type": "string"
            },
            {
              "internalType": "string",
              "name": "metadataURI",
              "type": "string"
            },
            {
              "internalType": "bytes32",
              "name": "contentHash",
              "type": "bytes32"
            },
            {
              "internalType": "bytes32",
              "name": "metadataHash",
              "type": "bytes32"
            }
          ],
          "internalType": "struct IClipIt.MediaData",
          "name": "data",
          "type": "tuple"
        },
        {
          "components": [
            {
              "components": [
                {
                  "internalType": "uint256",
                  "name": "value",
                  "type": "uint256"
                }
              ],
              "internalType": "struct Decimal.D256",
              "name": "creator",
              "type": "tuple"
            },
            {
              "components": [
                {
                  "internalType": "uint256",
                  "name": "value",
                  "type": "uint256"
                }
              ],
              "internalType": "struct Decimal.D256",
              "name": "owner",
              "type": "tuple"
            }
          ],
          "internalType": "struct IMarket.BidShares",
          "name": "bidShares",
          "type": "tuple"
        },
        {
          "internalType": "uint8",
          "name": "v",
          "type": "uint8"
        },
        {
          "internalType": "bytes32",
          "name": "r",
          "type": "bytes32"
        },
        {
          "internalType": "bytes32",
          "name": "s",
          "type": "bytes32"
        }
      ],
      "name": "mint",
      "outputs": [],
      "stateMutability": "nonpayable",
      "type": "function"
    },
    {
      "inputs": [],
      "name": "name",
      "outputs": [
        {
          "internalType": "string",
          "name": "",
          "type": "string"
        }
      ],
      "stateMutability": "view",
      "type": "function"
    },
    {
      "inputs": [],
      "name": "owner",
      "outputs": [
        {
          "internalType": "address",
          "name": "",
          "type": "address"
        }
      ],
      "stateMutability": "view",
      "type": "function"
    },
    {
      "inputs": [
        {
          "internalType": "uint256",
          "name": "tokenId",
          "type": "uint256"
        }
      ],
      "name": "ownerOf",
      "outputs": [
        {
          "internalType": "address",
          "name": "",
          "type": "address"
        }
      ],
      "stateMutability": "view",
      "type": "function"
    },
    {
      "inputs": [
        {
          "internalType": "uint256",
          "name": "",
          "type": "uint256"
        }
      ],
      "name": "previousTokenOwners",
      "outputs": [
        {
          "internalType": "address",
          "name": "",
          "type": "address"
        }
      ],
      "stateMutability": "view",
      "type": "function"
    },
    {
      "inputs": [
        {
          "internalType": "uint256",
          "name": "tokenId",
          "type": "uint256"
        }
      ],
      "name": "removeAsk",
      "outputs": [],
      "stateMutability": "nonpayable",
      "type": "function"
    },
    {
      "inputs": [
        {
          "internalType": "uint256",
          "name": "tokenId",
          "type": "uint256"
        }
      ],
      "name": "removeBid",
      "outputs": [],
      "stateMutability": "nonpayable",
      "type": "function"
    },
    {
      "inputs": [],
      "name": "renounceOwnership",
      "outputs": [],
      "stateMutability": "nonpayable",
      "type": "function"
    },
    {
      "inputs": [
        {
          "internalType": "uint256",
          "name": "tokenId",
          "type": "uint256"
        }
      ],
      "name": "revokeApproval",
      "outputs": [],
      "stateMutability": "nonpayable",
      "type": "function"
    },
    {
      "inputs": [
        {
          "internalType": "address",
          "name": "from",
          "type": "address"
        },
        {
          "internalType": "address",
          "name": "to",
          "type": "address"
        },
        {
          "internalType": "uint256",
          "name": "tokenId",
          "type": "uint256"
        }
      ],
      "name": "safeTransferFrom",
      "outputs": [],
      "stateMutability": "nonpayable",
      "type": "function"
    },
    {
      "inputs": [
        {
          "internalType": "address",
          "name": "from",
          "type": "address"
        },
        {
          "internalType": "address",
          "name": "to",
          "type": "address"
        },
        {
          "internalType": "uint256",
          "name": "tokenId",
          "type": "uint256"
        },
        {
          "internalType": "bytes",
          "name": "_data",
          "type": "bytes"
        }
      ],
      "name": "safeTransferFrom",
      "outputs": [],
      "stateMutability": "nonpayable",
      "type": "function"
    },
    {
      "inputs": [
        {
          "internalType": "address",
          "name": "operator",
          "type": "address"
        },
        {
          "internalType": "bool",
          "name": "approved",
          "type": "bool"
        }
      ],
      "name": "setApprovalForAll",
      "outputs": [],
      "stateMutability": "nonpayable",
      "type": "function"
    },
    {
      "inputs": [
        {
          "internalType": "uint256",
          "name": "tokenId",
          "type": "uint256"
        },
        {
          "components": [
            {
              "internalType": "uint256",
              "name": "amount",
              "type": "uint256"
            },
            {
              "internalType": "address",
              "name": "currency",
              "type": "address"
            }
          ],
          "internalType": "struct IMarket.Ask",
          "name": "ask",
          "type": "tuple"
        }
      ],
      "name": "setAsk",
      "outputs": [],
      "stateMutability": "nonpayable",
      "type": "function"
    },
    {
      "inputs": [
        {
          "internalType": "uint256",
          "name": "tokenId",
          "type": "uint256"
        },
        {
          "components": [
            {
              "internalType": "uint256",
              "name": "amount",
              "type": "uint256"
            },
            {
              "internalType": "address",
              "name": "currency",
              "type": "address"
            },
            {
              "internalType": "address",
              "name": "bidder",
              "type": "address"
            },
            {
              "internalType": "address",
              "name": "recipient",
              "type": "address"
            }
          ],
          "internalType": "struct IMarket.Bid",
          "name": "bid",
          "type": "tuple"
        }
      ],
      "name": "setBid",
      "outputs": [],
      "stateMutability": "nonpayable",
      "type": "function"
    },
    {
      "inputs": [
        {
          "internalType": "bytes4",
          "name": "interfaceId",
          "type": "bytes4"
        }
      ],
      "name": "supportsInterface",
      "outputs": [
        {
          "internalType": "bool",
          "name": "",
          "type": "bool"
        }
      ],
      "stateMutability": "view",
      "type": "function"
    },
    {
      "inputs": [],
      "name": "symbol",
      "outputs": [
        {
          "internalType": "string",
          "name": "",
          "type": "string"
        }
      ],
      "stateMutability": "view",
      "type": "function"
    },
    {
      "inputs": [
        {
          "internalType": "uint256",
          "name": "index",
          "type": "uint256"
        }
      ],
      "name": "tokenByIndex",
      "outputs": [
        {
          "internalType": "uint256",
          "name": "",
          "type": "uint256"
        }
      ],
      "stateMutability": "view",
      "type": "function"
    },
    {
      "inputs": [
        {
          "internalType": "uint256",
          "name": "",
          "type": "uint256"
        }
      ],
      "name": "tokenContentHashes",
      "outputs": [
        {
          "internalType": "bytes32",
          "name": "",
          "type": "bytes32"
        }
      ],
      "stateMutability": "view",
      "type": "function"
    },
    {
      "inputs": [
        {
          "internalType": "uint256",
          "name": "",
          "type": "uint256"
        }
      ],
      "name": "tokenCreators",
      "outputs": [
        {
          "internalType": "address",
          "name": "",
          "type": "address"
        }
      ],
      "stateMutability": "view",
      "type": "function"
    },
    {
      "inputs": [
        {
          "internalType": "uint256",
          "name": "",
          "type": "uint256"
        }
      ],
      "name": "tokenMetadataHashes",
      "outputs": [
        {
          "internalType": "bytes32",
          "name": "",
          "type": "bytes32"
        }
      ],
      "stateMutability": "view",
      "type": "function"
    },
    {
      "inputs": [
        {
          "internalType": "uint256",
          "name": "tokenId",
          "type": "uint256"
        }
      ],
      "name": "tokenMetadataURI",
      "outputs": [
        {
          "internalType": "string",
          "name": "",
          "type": "string"
        }
      ],
      "stateMutability": "view",
      "type": "function"
    },
    {
      "inputs": [
        {
          "internalType": "address",
          "name": "owner",
          "type": "address"
        },
        {
          "internalType": "uint256",
          "name": "index",
          "type": "uint256"
        }
      ],
      "name": "tokenOfOwnerByIndex",
      "outputs": [
        {
          "internalType": "uint256",
          "name": "",
          "type": "uint256"
        }
      ],
      "stateMutability": "view",
      "type": "function"
    },
    {
      "inputs": [
        {
          "internalType": "uint256",
          "name": "tokenId",
          "type": "uint256"
        }
      ],
      "name": "tokenURI",
      "outputs": [
        {
          "internalType": "string",
          "name": "",
          "type": "string"
        }
      ],
      "stateMutability": "view",
      "type": "function"
    },
    {
      "inputs": [],
      "name": "totalSupply",
      "outputs": [
        {
          "internalType": "uint256",
          "name": "",
          "type": "uint256"
        }
      ],
      "stateMutability": "view",
      "type": "function"
    },
    {
      "inputs": [
        {
          "internalType": "address",
          "name": "from",
          "type": "address"
        },
        {
          "internalType": "address",
          "name": "to",
          "type": "address"
        },
        {
          "internalType": "uint256",
          "name": "tokenId",
          "type": "uint256"
        }
      ],
      "name": "transferFrom",
      "outputs": [],
      "stateMutability": "nonpayable",
      "type": "function"
    },
    {
      "inputs": [
        {
          "internalType": "address",
          "name": "newOwner",
          "type": "address"
        }
      ],
      "name": "transferOwnership",
      "outputs": [],
      "stateMutability": "nonpayable",
      "type": "function"
    },
    {
      "inputs": [
        {
          "internalType": "uint256",
          "name": "tokenId",
          "type": "uint256"
        },
        {
          "internalType": "string",
          "name": "metadataURI",
          "type": "string"
        }
      ],
      "name": "updateTokenMetadataURI",
      "outputs": [],
      "stateMutability": "nonpayable",
      "type": "function"
    },
    {
      "inputs": [
        {
          "internalType": "uint256",
          "name": "tokenId",
          "type": "uint256"
        },
        {
          "internalType": "string",
          "name": "_tokenURI",
          "type": "string"
        }
      ],
      "name": "updateTokenURI",
      "outputs": [],
      "stateMutability": "nonpayable",
      "type": "function"
    }
  ],
  "bytecode": "0x60806040523480156200001157600080fd5b5060405162003b8038038062003b80833981016040819052620000349162000299565b604080518082018252600681526510db1a5c125d60d21b602080830191909152825180840190935260048352630434c49560e41b90830152906200007f6301ffc9a760e01b62000164565b815162000094906006906020850190620001ed565b508051620000aa906007906020840190620001ed565b50620000bd6380ac58cd60e01b62000164565b620000cf63780e9d6360e01b62000164565b50506001600a556000620000e2620001e9565b600b80546001600160a01b0319166001600160a01b038316908117909155604051919250906000907f8be0079c531659141344cd1fd0a4f28419497f9722a3daafe3b4186f6b6457e0908290a350600c80546001600160a01b0319166001600160a01b0383161790556200015d632711173360e11b62000164565b50620002c9565b6001600160e01b03198082161415620001c4576040805162461bcd60e51b815260206004820152601c60248201527f4552433136353a20696e76616c696420696e7465726661636520696400000000604482015290519081900360640190fd5b6001600160e01b0319166000908152602081905260409020805460ff19166001179055565b3390565b828054600181600116156101000203166002900490600052602060002090601f01602090048101928262000225576000855562000270565b82601f106200024057805160ff191683800117855562000270565b8280016001018555821562000270579182015b828111156200027057825182559160200191906001019062000253565b506200027e92915062000282565b5090565b5b808211156200027e576000815560010162000283565b600060208284031215620002ab578081fd5b81516001600160a01b0381168114620002c2578182fd5b9392505050565b6138a780620002d96000396000f3fe608060405234801561001057600080fd5b50600436106102275760003560e01c8063715018a611610130578063ae24d75d116100b8578063e0fd045f1161007c578063e0fd045f1461047e578063e985e9c514610491578063f2fde38b146104a4578063f6b630f0146104b7578063fad32197146104ca57610227565b8063ae24d75d1461041f578063b1e130fc14610432578063b320f45914610445578063b88d4fde14610458578063c87b56dd1461046b57610227565b80638da5cb5b116100ff5780638da5cb5b146103e157806395d89b41146103e95780639d8e7260146103f1578063a1794bcd14610404578063a22cb4651461040c57610227565b8063715018a6146103a05780637499a1cf146103a857806375682e79146103bb57806385100850146103ce57610227565b806328220f35116101b35780634f6ccce7116101825780634f6ccce71461034c57806362f24b701461035f5780636352211e146103725780636c0360eb1461038557806370a082311461038d57610227565b806328220f35146103005780632f745c591461031357806342842e0e1461032657806342966c681461033957610227565b8063095ea7b3116101fa578063095ea7b3146102aa578063157c3df9146102bf57806318160ddd146102d257806318e97fd1146102da57806323b872dd146102ed57610227565b806301ddc3b51461022c57806301ffc9a71461025557806306fdde0314610275578063081812fc1461028a575b600080fd5b61023f61023a366004612f1e565b6104dd565b60405161024c91906131b1565b60405180910390f35b610268610263366004612ef6565b6104ef565b60405161024c91906131a6565b61027d610512565b60405161024c91906131d8565b61029d610298366004612f1e565b6105a8565b60405161024c9190613152565b6102bd6102b8366004612ecd565b61060a565b005b61027d6102cd366004612f1e565b6106e0565b61023f6107b4565b6102bd6102e8366004612f58565b6107c5565b6102bd6102fb366004612ce8565b610919565b6102bd61030e366004612f1e565b610970565b61023f610321366004612ecd565b610a4f565b6102bd610334366004612ce8565b610a7a565b6102bd610347366004612f1e565b610a95565b61023f61035a366004612f1e565b610b8a565b6102bd61036d366004612fcf565b610ba0565b61029d610380366004612f1e565b610c82565b61027d610caa565b61023f61039b366004612c9c565b610d0b565b6102bd610d73565b6102bd6103b636600461303d565b610e31565b6102bd6103c9366004612f58565b610f0b565b6102bd6103dc36600461303d565b61104a565b61029d6110ef565b61027d6110fe565b61029d6103ff366004612f1e565b61115f565b61029d61117a565b6102bd61041a366004612d9c565b611189565b6102bd61042d366004612dd6565b61128e565b6102bd610440366004612f1e565b61131f565b6102bd610453366004612f1e565b6113b6565b6102bd610466366004612d23565b61148a565b61027d610479366004612f1e565b6114e8565b61029d61048c366004612f1e565b6115b4565b61026861049f366004612cb6565b6115cf565b6102bd6104b2366004612c9c565b6115fd565b6102bd6104c5366004612f36565b611712565b61023f6104d8366004612f1e565b611798565b60106020526000908152604090205481565b6001600160e01b0319811660009081526020819052604090205460ff165b919050565b60068054604080516020601f600260001961010060018816150201909516949094049384018190048102820181019092528281526060939092909183018282801561059e5780601f106105735761010080835404028352916020019161059e565b820191906000526020600020905b81548152906001019060200180831161058157829003601f168201915b5050505050905090565b60006105b3826117aa565b6105ee5760405162461bcd60e51b815260040180806020018281038252602c81526020018061379f602c913960400191505060405180910390fd5b506000908152600460205260409020546001600160a01b031690565b600061061582610c82565b9050806001600160a01b0316836001600160a01b031614156106685760405162461bcd60e51b81526004018080602001828103825260218152602001806138206021913960400191505060405180910390fd5b806001600160a01b031661067a6117b7565b6001600160a01b0316148061069657506106968161049f6117b7565b6106d15760405162461bcd60e51b81526004018080602001828103825260388152602001806136f26038913960400191505060405180910390fd5b6106db83836117bb565b505050565b606081806106ee6013611829565b116107145760405162461bcd60e51b815260040161070b9061322b565b60405180910390fd5b60008381526011602090815260409182902080548351601f6002600019610100600186161502019093169290920491820184900484028101840190945280845290918301828280156107a75780601f1061077c576101008083540402835291602001916107a7565b820191906000526020600020905b81548152906001019060200180831161078a57829003601f168201915b5050505050915050919050565b60006107c0600261182d565b905090565b6002600a54141561080b576040805162461bcd60e51b815260206004820152601f6024820152600080516020613604833981519152604482015290519081900360640190fd5b6002600a55338361081c8282611838565b6108385760405162461bcd60e51b815260040161070b906132ec565b83838080601f0160208091040260200160405190810160405280939291908181526020018383808284376000920191909152505082511515915061089090505760405162461bcd60e51b815260040161070b906133ab565b6108d08686868080601f0160208091040260200160405190810160405280939291908181526020018383808284376000920191909152506118dc92505050565b857f702fe2dc2dc0f68023540aa4a1e11811c0f29112f6ebf01e61b90538e4f2981033878760405161090493929190613166565b60405180910390a250506001600a5550505050565b61092a6109246117b7565b82611838565b6109655760405162461bcd60e51b81526004018080602001828103825260318152602001806138416031913960400191505060405180910390fd5b6106db83838361193f565b6002600a5414156109b6576040805162461bcd60e51b815260206004820152601f6024820152600080516020613604833981519152604482015290519081900360640190fd5b6002600a5533816109c78282611838565b6109e35760405162461bcd60e51b815260040161070b906132ec565b600c546040516328220f3560e01b81526001600160a01b03909116906328220f3590610a139086906004016131b1565b600060405180830381600087803b158015610a2d57600080fd5b505af1158015610a41573d6000803e3d6000fd5b50506001600a555050505050565b6001600160a01b0382166000908152600160205260408120610a7190836119ac565b90505b92915050565b6106db8383836040518060200160405280600081525061148a565b6002600a541415610adb576040805162461bcd60e51b815260206004820152601f6024820152600080516020613604833981519152604482015290519081900360640190fd5b6002600a5580610aea816117aa565b610b065760405162461bcd60e51b815260040161070b9061344f565b3382610b128282611838565b610b2e5760405162461bcd60e51b815260040161070b906132ec565b6000610b3985610c82565b6000868152600e60205260409020549091506001600160a01b03808316911614610b755760405162461bcd60e51b815260040161070b90613503565b610b7e856119b8565b50506001600a55505050565b600080610b98600284611aa2565b509392505050565b6002600a541415610be6576040805162461bcd60e51b815260206004820152601f6024820152600080516020613604833981519152604482015290519081900360640190fd5b6002600a553382610bf78282611838565b610c135760405162461bcd60e51b815260040161070b906132ec565b600c5460405163062f24b760e41b81526001600160a01b03909116906362f24b7090610c45908790879060040161355f565b600060405180830381600087803b158015610c5f57600080fd5b505af1158015610c73573d6000803e3d6000fd5b50506001600a55505050505050565b6000610a74826040518060600160405280602981526020016137546029913960029190611abe565b60098054604080516020601f600260001961010060018816150201909516949094049384018190048102820181019092528281526060939092909183018282801561059e5780601f106105735761010080835404028352916020019161059e565b60006001600160a01b038216610d525760405162461bcd60e51b815260040180806020018281038252602a81526020018061372a602a913960400191505060405180910390fd5b6001600160a01b0382166000908152600160205260409020610a749061182d565b610d7b6117b7565b6001600160a01b0316610d8c6110ef565b6001600160a01b031614610de7576040805162461bcd60e51b815260206004820181905260248201527f4f776e61626c653a2063616c6c6572206973206e6f7420746865206f776e6572604482015290519081900360640190fd5b600b546040516000916001600160a01b0316907f8be0079c531659141344cd1fd0a4f28419497f9722a3daafe3b4186f6b6457e0908390a3600b80546001600160a01b0319169055565b6002600a541415610e77576040805162461bcd60e51b815260206004820152601f6024820152600080516020613604833981519152604482015290519081900360640190fd5b6002600a5581610e86816117aa565b610ea25760405162461bcd60e51b815260040161070b9061344f565b81604001516001600160a01b0316336001600160a01b031614610ed75760405162461bcd60e51b815260040161070b90613274565b600c5460405163f9d222bf60e01b81526001600160a01b039091169063f9d222bf90610a13908690869033906004016135b4565b6002600a541415610f51576040805162461bcd60e51b815260206004820152601f6024820152600080516020613604833981519152604482015290519081900360640190fd5b6002600a553383610f628282611838565b610f7e5760405162461bcd60e51b815260040161070b906132ec565b83838080601f01602080910402602001604051908101604052809392919081815260200183838082843760009201919091525050825115159150610fd690505760405162461bcd60e51b815260040161070b906133ab565b6110168686868080601f016020809104026020016040519081016040528093929190818152602001838380828437600092019190915250611ad592505050565b857fe3df41127db820c79e5b8d541a63e40e3e97b9af96f7a50bded13091b70df9ae33878760405161090493929190613166565b6002600a541415611090576040805162461bcd60e51b815260206004820152601f6024820152600080516020613604833981519152604482015290519081900360640190fd5b6002600a5533826110a18282611838565b6110bd5760405162461bcd60e51b815260040161070b906132ec565b600c54604051630851008560e41b81526001600160a01b0390911690638510085090610c4590879087906004016135a0565b600b546001600160a01b031690565b60078054604080516020601f600260001961010060018816150201909516949094049384018190048102820181019092528281526060939092909183018282801561059e5780601f106105735761010080835404028352916020019161059e565b600d602052600090815260409020546001600160a01b031681565b600c546001600160a01b031681565b6111916117b7565b6001600160a01b0316826001600160a01b031614156111f7576040805162461bcd60e51b815260206004820152601960248201527f4552433732313a20617070726f766520746f2063616c6c657200000000000000604482015290519081900360640190fd5b80600560006112046117b7565b6001600160a01b03908116825260208083019390935260409182016000908120918716808252919093529120805460ff1916921515929092179091556112486117b7565b6001600160a01b03167f17307eab39ab6107e8899845ad3d59bd9653f200f220920489ca2b5937696c318360405180821515815260200191505060405180910390a35050565b6002600a5414156112d4576040805162461bcd60e51b815260206004820152601f6024820152600080516020613604833981519152604482015290519081900360640190fd5b6002600a5560408501516112eb9087858585611b1a565b6113075760405162461bcd60e51b815260040161070b906134cc565b611312868686611bea565b50506001600a5550505050565b6002600a541415611365576040805162461bcd60e51b815260206004820152601f6024820152600080516020613604833981519152604482015290519081900360640190fd5b6002600a55611373816105a8565b6001600160a01b0316336001600160a01b0316146113a35760405162461bcd60e51b815260040161070b90613323565b6113ae6000826117bb565b506001600a55565b6002600a5414156113fc576040805162461bcd60e51b815260206004820152601f6024820152600080516020613604833981519152604482015290519081900360640190fd5b6002600a55808061140d6013611829565b1161142a5760405162461bcd60e51b815260040161070b9061322b565b600c5460405163776a083560e01b81526001600160a01b039091169063776a08359061145c9085903390600401613548565b600060405180830381600087803b15801561147657600080fd5b505af1158015611312573d6000803e3d6000fd5b61149b6114956117b7565b83611838565b6114d65760405162461bcd60e51b81526004018080602001828103825260318152602001806138416031913960400191505060405180910390fd5b6114e284848484611e35565b50505050565b606081806114f66013611829565b116115135760405162461bcd60e51b815260040161070b9061322b565b60008381526008602090815260408083208054825160026001831615610100026000190190921691909104601f8101859004850282018501909352828152929091908301828280156115a65780601f1061157b576101008083540402835291602001916115a6565b820191906000526020600020905b81548152906001019060200180831161158957829003601f168201915b509398975050505050505050565b600e602052600090815260409020546001600160a01b031681565b6001600160a01b03918216600090815260056020908152604080832093909416825291909152205460ff1690565b6116056117b7565b6001600160a01b03166116166110ef565b6001600160a01b031614611671576040805162461bcd60e51b815260206004820181905260248201527f4f776e61626c653a2063616c6c6572206973206e6f7420746865206f776e6572604482015290519081900360640190fd5b6001600160a01b0381166116b65760405162461bcd60e51b81526004018080602001828103825260268152602001806136566026913960400191505060405180910390fd5b600b546040516001600160a01b038084169216907f8be0079c531659141344cd1fd0a4f28419497f9722a3daafe3b4186f6b6457e090600090a3600b80546001600160a01b0319166001600160a01b0392909216919091179055565b600c546001600160a01b0316331461173c5760405162461bcd60e51b815260040161070b906132b5565b61174582610c82565b6000838152600d6020526040902080546001600160a01b0319166001600160a01b039290921691909117905561179461177d83610c82565b828460405180602001604052806000815250611e35565b5050565b600f6020526000908152604090205481565b6000610a74600283611e87565b3390565b600081815260046020526040902080546001600160a01b0319166001600160a01b03841690811790915581906117f082610c82565b6001600160a01b03167f8c5be1e5ebec7d5bd14f71427d1e84f3dd0314c0f7b2291e5b200ac8c7c3b92560405160405180910390a45050565b5490565b6000610a7482611829565b6000611843826117aa565b61187e5760405162461bcd60e51b815260040180806020018281038252602c8152602001806136c6602c913960400191505060405180910390fd5b600061188983610c82565b9050806001600160a01b0316846001600160a01b031614806118c45750836001600160a01b03166118b9846105a8565b6001600160a01b0316145b806118d457506118d481856115cf565b949350505050565b6118e5826117aa565b6119205760405162461bcd60e51b815260040180806020018281038252602c8152602001806137cb602c913960400191505060405180910390fd5b600082815260086020908152604090912082516106db92840190612a75565b600c546040516328220f3560e01b81526001600160a01b03909116906328220f359061196f9084906004016131b1565b600060405180830381600087803b15801561198957600080fd5b505af115801561199d573d6000803e3d6000fd5b505050506106db838383611e93565b6000610a718383611fdf565b60008181526008602090815260408083208054825160026001831615610100026000190190921691909104601f810185900485028201850190935282815292909190830182828015611a4b5780601f10611a2057610100808354040283529160200191611a4b565b820191906000526020600020905b815481529060010190602001808311611a2e57829003601f168201915b50505050509050611a5b82612043565b805115611a835760008281526008602090815260409091208251611a8192840190612a75565b505b506000908152600d6020526040902080546001600160a01b0319169055565b6000808080611ab18686612110565b9097909650945050505050565b6000611acb84848461218b565b90505b9392505050565b81611adf816117aa565b611afb5760405162461bcd60e51b815260040161070b9061344f565b600083815260116020908152604090912083516114e292850190612a75565b6000808686604051602001611b30929190613101565b604051602081830303815290604052805190602001209050600081604051602001611b5b9190613121565b604051602081830303815290604052805190602001209050611b7b6110ef565b6001600160a01b031660018288888860405160008152602001604052604051611ba794939291906131ba565b6020604051602081039080840390855afa158015611bc9573d6000803e3d6000fd5b505050602060405103516001600160a01b0316149250505095945050505050565b81518051611c0a5760405162461bcd60e51b815260040161070b906133ab565b60208301518051611c2d5760405162461bcd60e51b815260040161070b906133ab565b6040840151611c4e5760405162461bcd60e51b815260040161070b90613366565b60408085015160009081526012602052205460ff1615611c805760405162461bcd60e51b815260040161070b906133f2565b6060840151611ca15760405162461bcd60e51b815260040161070b90613486565b6000611cad6013611829565b9050611cb98682612255565b611cc3601361226f565b611cd1818660400151612278565b611cdf8186606001516122b1565b611ced818660200151611ad5565b611cfb8186600001516118dc565b604080860151600090815260126020908152828220805460ff19166001179055838252600e815282822080546001600160a01b03808c166001600160a01b03199283168117909355600d90935292849020805490931617909155600c549151630ec0d4b960e21b8152911690633b0352e490611d7d9084908890600401613583565b600060405180830381600087803b158015611d9757600080fd5b505af1158015611dab573d6000803e3d6000fd5b50505050856001600160a01b0316336001600160a01b031614611e2d57600c5460405163a048046b60e01b81526001600160a01b039091169063a048046b90611dfa9084903390600401613548565b600060405180830381600087803b158015611e1457600080fd5b505af1158015611e28573d6000803e3d6000fd5b505050505b505050505050565b611e4084848461193f565b611e4c848484846122ea565b6114e25760405162461bcd60e51b81526004018080602001828103825260328152602001806136246032913960400191505060405180910390fd5b6000610a718383612452565b826001600160a01b0316611ea682610c82565b6001600160a01b031614611eeb5760405162461bcd60e51b81526004018080602001828103825260298152602001806137f76029913960400191505060405180910390fd5b6001600160a01b038216611f305760405162461bcd60e51b815260040180806020018281038252602481526020018061367c6024913960400191505060405180910390fd5b611f3b8383836106db565b611f466000826117bb565b6001600160a01b0383166000908152600160205260409020611f68908261246a565b506001600160a01b0382166000908152600160205260409020611f8b9082612476565b50611f9860028284612482565b5080826001600160a01b0316846001600160a01b03167fddf252ad1be2c89b69c2b068fc378daa952ba7f163c4a11628f55a4df523b3ef60405160405180910390a4505050565b815460009082106120215760405162461bcd60e51b81526004018080602001828103825260228152602001806135e26022913960400191505060405180910390fd5b82600001828154811061203057fe5b9060005260206000200154905092915050565b600061204e82610c82565b905061205c816000846106db565b6120676000836117bb565b60008281526008602052604090205460026000196101006001841615020190911604156120a55760008281526008602052604081206120a591612b01565b6001600160a01b03811660009081526001602052604090206120c7908361246a565b506120d3600283612498565b5060405182906000906001600160a01b038416907fddf252ad1be2c89b69c2b068fc378daa952ba7f163c4a11628f55a4df523b3ef908390a45050565b8154600090819083106121545760405162461bcd60e51b815260040180806020018281038252602281526020018061377d6022913960400191505060405180910390fd5b600084600001848154811061216557fe5b906000526020600020906002020190508060000154816001015492509250509250929050565b600082815260018401602052604081205482816122265760405162461bcd60e51b81526004018080602001828103825283818151815260200191508051906020019080838360005b838110156121eb5781810151838201526020016121d3565b50505050905090810190601f1680156122185780820380516001836020036101000a031916815260200191505b509250505060405180910390fd5b5084600001600182038154811061223957fe5b9060005260206000209060020201600101549150509392505050565b6117948282604051806020016040528060008152506124a4565b80546001019055565b81612282816117aa565b61229e5760405162461bcd60e51b815260040161070b9061344f565b506000918252600f602052604090912055565b816122bb816117aa565b6122d75760405162461bcd60e51b815260040161070b9061344f565b5060009182526010602052604090912055565b60006122fe846001600160a01b03166124f6565b61230a575060016118d4565b6000612418630a85bd0160e11b61231f6117b7565b88878760405160240180856001600160a01b03168152602001846001600160a01b0316815260200183815260200180602001828103825283818151815260200191508051906020019080838360005b8381101561238657818101518382015260200161236e565b50505050905090810190601f1680156123b35780820380516001836020036101000a031916815260200191505b5095505050505050604051602081830303815290604052906001600160e01b0319166020820180516001600160e01b038381831617835250505050604051806060016040528060328152602001613624603291396001600160a01b03881691906124fc565b9050600081806020019051602081101561243157600080fd5b50516001600160e01b031916630a85bd0160e11b1492505050949350505050565b60009081526001919091016020526040902054151590565b6000610a71838361250b565b6000610a7183836125d1565b6000611acb84846001600160a01b03851661261b565b6000610a7183836126b2565b6124ae8383612786565b6124bb60008484846122ea565b6106db5760405162461bcd60e51b81526004018080602001828103825260328152602001806136246032913960400191505060405180910390fd5b3b151590565b6060611acb84846000856128b4565b600081815260018301602052604081205480156125c7578354600019808301919081019060009087908390811061253e57fe5b906000526020600020015490508087600001848154811061255b57fe5b60009182526020808320909101929092558281526001898101909252604090209084019055865487908061258b57fe5b60019003818190600052602060002001600090559055866001016000878152602001908152602001600020600090556001945050505050610a74565b6000915050610a74565b60006125dd8383612452565b61261357508154600181810184556000848152602080822090930184905584548482528286019093526040902091909155610a74565b506000610a74565b600082815260018401602052604081205480612680575050604080518082018252838152602080820184815286546001818101895560008981528481209551600290930290950191825591519082015586548684528188019092529290912055611ace565b8285600001600183038154811061269357fe5b9060005260206000209060020201600101819055506000915050611ace565b600081815260018301602052604081205480156125c757835460001980830191908101906000908790839081106126e557fe5b906000526020600020906002020190508087600001848154811061270557fe5b60009182526020808320845460029093020191825560019384015491840191909155835482528983019052604090209084019055865487908061274457fe5b6000828152602080822060026000199094019384020182815560019081018390559290935588815289820190925260408220919091559450610a749350505050565b6001600160a01b0382166127e1576040805162461bcd60e51b815260206004820181905260248201527f4552433732313a206d696e7420746f20746865207a65726f2061646472657373604482015290519081900360640190fd5b6127ea816117aa565b1561283c576040805162461bcd60e51b815260206004820152601c60248201527f4552433732313a20746f6b656e20616c7265616479206d696e74656400000000604482015290519081900360640190fd5b612848600083836106db565b6001600160a01b038216600090815260016020526040902061286a9082612476565b5061287760028284612482565b5060405181906001600160a01b038416906000907fddf252ad1be2c89b69c2b068fc378daa952ba7f163c4a11628f55a4df523b3ef908290a45050565b6060824710156128f55760405162461bcd60e51b81526004018080602001828103825260268152602001806136a06026913960400191505060405180910390fd5b6128fe856124f6565b61294f576040805162461bcd60e51b815260206004820152601d60248201527f416464726573733a2063616c6c20746f206e6f6e2d636f6e7472616374000000604482015290519081900360640190fd5b600080866001600160a01b031685876040518082805190602001908083835b6020831061298d5780518252601f19909201916020918201910161296e565b6001836020036101000a03801982511681845116808217855250505050505090500191505060006040518083038185875af1925050503d80600081146129ef576040519150601f19603f3d011682016040523d82523d6000602084013e6129f4565b606091505b5091509150612a04828286612a0f565b979650505050505050565b60608315612a1e575081611ace565b825115612a2e5782518084602001fd5b60405162461bcd60e51b81526020600482018181528451602484015284518593919283926044019190850190808383600083156121eb5781810151838201526020016121d3565b828054600181600116156101000203166002900490600052602060002090601f016020900481019282612aab5760008555612af1565b82601f10612ac457805160ff1916838001178555612af1565b82800160010185558215612af1579182015b82811115612af1578251825591602001919060010190612ad6565b50612afd929150612b48565b5090565b50805460018160011615610100020316600290046000825580601f10612b275750612b45565b601f016020900490600052602060002090810190612b459190612b48565b50565b5b80821115612afd5760008155600101612b49565b600067ffffffffffffffff80841115612b7257fe5b604051601f8501601f191681016020018281118282101715612b9057fe5b604052848152915081838501861015612ba857600080fd5b8484602083013760006020868301015250509392505050565b80356001600160a01b038116811461050d57600080fd5b600082601f830112612be8578081fd5b610a7183833560208501612b5d565b600060408284031215612c08578081fd5b6040516040810181811067ffffffffffffffff82111715612c2557fe5b604052905080612c358484612c50565b8152612c448460208501612c50565b60208201525092915050565b600060208284031215612c61578081fd5b6040516020810181811067ffffffffffffffff82111715612c7e57fe5b6040529135825250919050565b803560ff8116811461050d57600080fd5b600060208284031215612cad578081fd5b610a7182612bc1565b60008060408385031215612cc8578081fd5b612cd183612bc1565b9150612cdf60208401612bc1565b90509250929050565b600080600060608486031215612cfc578081fd5b612d0584612bc1565b9250612d1360208501612bc1565b9150604084013590509250925092565b60008060008060808587031215612d38578081fd5b612d4185612bc1565b9350612d4f60208601612bc1565b925060408501359150606085013567ffffffffffffffff811115612d71578182fd5b8501601f81018713612d81578182fd5b612d9087823560208401612b5d565b91505092959194509250565b60008060408385031215612dae578182fd5b612db783612bc1565b915060208301358015158114612dcb578182fd5b809150509250929050565b60008060008060008060e08789031215612dee578182fd5b612df787612bc1565b9550602087013567ffffffffffffffff80821115612e13578384fd5b908801906080828b031215612e26578384fd5b604051608081018181108382111715612e3b57fe5b604052823582811115612e4c578586fd5b612e588c828601612bd8565b825250602083013582811115612e6c578586fd5b612e788c828601612bd8565b6020830152506040830135604082015260608301356060820152809750505050612ea58860408901612bf7565b9350612eb360808801612c8b565b925060a0870135915060c087013590509295509295509295565b60008060408385031215612edf578182fd5b612ee883612bc1565b946020939093013593505050565b600060208284031215612f07578081fd5b81356001600160e01b031981168114611ace578182fd5b600060208284031215612f2f578081fd5b5035919050565b60008060408385031215612f48578182fd5b82359150612cdf60208401612bc1565b600080600060408486031215612f6c578081fd5b83359250602084013567ffffffffffffffff80821115612f8a578283fd5b818601915086601f830112612f9d578283fd5b813581811115612fab578384fd5b876020828501011115612fbc578384fd5b6020830194508093505050509250925092565b6000808284036060811215612fe2578283fd5b833592506040601f1982011215612ff7578182fd5b506040516040810181811067ffffffffffffffff8211171561301557fe5b80604052506020840135815261302d60408501612bc1565b6020820152809150509250929050565b60008082840360a0811215613050578283fd5b833592506080601f1982011215613065578182fd5b506040516080810181811067ffffffffffffffff8211171561308357fe5b80604052506020840135815261309b60408501612bc1565b60208201526130ac60608501612bc1565b60408201526130bd60808501612bc1565b6060820152809150509250929050565b805182526020808201516001600160a01b039081169184019190915260408083015182169084015260609182015116910152565b91825260601b6bffffffffffffffffffffffff1916602082015260340190565b7f19457468657265756d205369676e6564204d6573736167653a0a3332000000008152601c810191909152603c0190565b6001600160a01b0391909116815260200190565b6001600160a01b03841681526040602082018190528101829052600082846060840137818301606090810191909152601f909201601f1916010192915050565b901515815260200190565b90815260200190565b93845260ff9290921660208401526040830152606082015260800190565b6000602080835283518082850152825b81811015613204578581018301518582016040015282016131e8565b818111156132155783604083870101525b50601f01601f1916929092016040019392505050565b60208082526029908201527f436c697049743a20746f6b656e2077697468207468617420696420646f6573206040820152681b9bdd08195e1a5cdd60ba1b606082015260800190565b60208082526021908201527f4d61726b65743a20426964646572206d757374206265206d73672073656e64656040820152603960f91b606082015260800190565b6020808252601c908201527f436c697049743a206f6e6c79206d61726b657420636f6e747261637400000000604082015260600190565b6020808252601e908201527f436c697049743a204f6e6c7920617070726f766564206f72206f776e65720000604082015260600190565b60208082526023908201527f436c697049743a2063616c6c6572206e6f7420617070726f766564206164647260408201526265737360e81b606082015260800190565b60208082526025908201527f436c697049743a20636f6e74656e742068617368206d757374206265206e6f6e6040820152642d7a65726f60d81b606082015260800190565b60208082526027908201527f436c697049743a2073706563696669656420757269206d757374206265206e6f6040820152666e2d656d70747960c81b606082015260800190565b6020808252603f908201527f436c697049743a206120746f6b656e2068617320616c7265616479206265656e60408201527f20637265617465642077697468207468697320636f6e74656e74206861736800606082015260800190565b60208082526019908201527f436c697049743a206e6f6e6578697374656e7420746f6b656e00000000000000604082015260600190565b60208082526026908201527f436c697049743a206d657461646174612068617368206d757374206265206e6f6040820152656e2d7a65726f60d01b606082015260800190565b60208082526019908201527f436c697049743a20696e76616c6964207369676e617475726500000000000000604082015260600190565b60208082526025908201527f436c697049743a206f776e6572206973206e6f742063726561746f72206f66206040820152646d6564696160d81b606082015260800190565b9182526001600160a01b0316602082015260400190565b918252805160208084019190915201516001600160a01b0316604082015260600190565b918252805151602080840191909152015151604082015260600190565b82815260a08101611ace60208301846130cd565b83815260c081016135c860208301856130cd565b6001600160a01b039290921660a091909101529291505056fe456e756d657261626c655365743a20696e646578206f7574206f6620626f756e64735265656e7472616e637947756172643a207265656e7472616e742063616c6c004552433732313a207472616e7366657220746f206e6f6e20455243373231526563656976657220696d706c656d656e7465724f776e61626c653a206e6577206f776e657220697320746865207a65726f20616464726573734552433732313a207472616e7366657220746f20746865207a65726f2061646472657373416464726573733a20696e73756666696369656e742062616c616e636520666f722063616c6c4552433732313a206f70657261746f7220717565727920666f72206e6f6e6578697374656e7420746f6b656e4552433732313a20617070726f76652063616c6c6572206973206e6f74206f776e6572206e6f7220617070726f76656420666f7220616c6c4552433732313a2062616c616e636520717565727920666f7220746865207a65726f20616464726573734552433732313a206f776e657220717565727920666f72206e6f6e6578697374656e7420746f6b656e456e756d657261626c654d61703a20696e646578206f7574206f6620626f756e64734552433732313a20617070726f76656420717565727920666f72206e6f6e6578697374656e7420746f6b656e4552433732314d657461646174613a2055524920736574206f66206e6f6e6578697374656e7420746f6b656e4552433732313a207472616e73666572206f6620746f6b656e2074686174206973206e6f74206f776e4552433732313a20617070726f76616c20746f2063757272656e74206f776e65724552433732313a207472616e736665722063616c6c6572206973206e6f74206f776e6572206e6f7220617070726f766564a264697066735822122050a80c14a25cd02fba81d16b439e55cb10f7c7a79b1570ac11443e75a7661e0464736f6c63430007060033",
  "linkReferences": {},
  "deployedLinkReferences": {}
}