{
  "_format": "hh-sol-artifact-1",
  "contractName": "Market",
  "sourceName": "contracts/Market.sol",
  "abi": [
    {
      "inputs": [],
      "stateMutability": "nonpayable",
      "type": "constructor"
    },
    {
      "anonymous": false,
      "inputs": [
        {
          "indexed": true,
          "internalType": "uint256",
          "name": "tokenId",
          "type": "uint256"
        },
        {
          "components": [
            {
              "internalType": "uint256",
              "name": "amount",
              "type": "uint256"
            },
            {
              "internalType": "address",
              "name": "currency",
              "type": "address"
            }
          ],
          "indexed": false,
          "internalType": "struct IMarket.Ask",
          "name": "ask",
          "type": "tuple"
        }
      ],
      "name": "AskCreated",
      "type": "event"
    },
    {
      "anonymous": false,
      "inputs": [
        {
          "indexed": true,
          "internalType": "uint256",
          "name": "tokenId",
          "type": "uint256"
        },
        {
          "components": [
            {
              "internalType": "uint256",
              "name": "amount",
              "type": "uint256"
            },
            {
              "internalType": "address",
              "name": "currency",
              "type": "address"
            }
          ],
          "indexed": false,
          "internalType": "struct IMarket.Ask",
          "name": "ask",
          "type": "tuple"
        }
      ],
      "name": "AskRemoved",
      "type": "event"
    },
    {
      "anonymous": false,
      "inputs": [
        {
          "indexed": true,
          "internalType": "uint256",
          "name": "tokenId",
          "type": "uint256"
        },
        {
          "components": [
            {
              "internalType": "uint256",
              "name": "amount",
              "type": "uint256"
            },
            {
              "internalType": "address",
              "name": "currency",
              "type": "address"
            },
            {
              "internalType": "address",
              "name": "bidder",
              "type": "address"
            },
            {
              "internalType": "address",
              "name": "recipient",
              "type": "address"
            }
          ],
          "indexed": false,
          "internalType": "struct IMarket.Bid",
          "name": "bid",
          "type": "tuple"
        }
      ],
      "name": "BidCreated",
      "type": "event"
    },
    {
      "anonymous": false,
      "inputs": [
        {
          "indexed": true,
          "internalType": "uint256",
          "name": "tokenId",
          "type": "uint256"
        },
        {
          "components": [
            {
              "internalType": "uint256",
              "name": "amount",
              "type": "uint256"
            },
            {
              "internalType": "address",
              "name": "currency",
              "type": "address"
            },
            {
              "internalType": "address",
              "name": "bidder",
              "type": "address"
            },
            {
              "internalType": "address",
              "name": "recipient",
              "type": "address"
            }
          ],
          "indexed": false,
          "internalType": "struct IMarket.Bid",
          "name": "bid",
          "type": "tuple"
        }
      ],
      "name": "BidFinalized",
      "type": "event"
    },
    {
      "anonymous": false,
      "inputs": [
        {
          "indexed": true,
          "internalType": "uint256",
          "name": "tokenId",
          "type": "uint256"
        },
        {
          "components": [
            {
              "internalType": "uint256",
              "name": "amount",
              "type": "uint256"
            },
            {
              "internalType": "address",
              "name": "currency",
              "type": "address"
            },
            {
              "internalType": "address",
              "name": "bidder",
              "type": "address"
            },
            {
              "internalType": "address",
              "name": "recipient",
              "type": "address"
            }
          ],
          "indexed": false,
          "internalType": "struct IMarket.Bid",
          "name": "bid",
          "type": "tuple"
        }
      ],
      "name": "BidRemoved",
      "type": "event"
    },
    {
      "anonymous": false,
      "inputs": [
        {
          "indexed": true,
          "internalType": "uint256",
          "name": "tokenId",
          "type": "uint256"
        },
        {
          "components": [
            {
              "components": [
                {
                  "internalType": "uint256",
                  "name": "value",
                  "type": "uint256"
                }
              ],
              "internalType": "struct Decimal.D256",
              "name": "creator",
              "type": "tuple"
            },
            {
              "components": [
                {
                  "internalType": "uint256",
                  "name": "value",
                  "type": "uint256"
                }
              ],
              "internalType": "struct Decimal.D256",
              "name": "owner",
              "type": "tuple"
            }
          ],
          "indexed": false,
          "internalType": "struct IMarket.BidShares",
          "name": "bidShares",
          "type": "tuple"
        }
      ],
      "name": "BidShareUpdated",
      "type": "event"
    },
    {
      "anonymous": false,
      "inputs": [
        {
          "indexed": true,
          "internalType": "uint256",
          "name": "tokenId",
          "type": "uint256"
        },
        {
          "indexed": false,
          "internalType": "address",
          "name": "minter",
          "type": "address"
        }
      ],
      "name": "MinterSet",
      "type": "event"
    },
    {
      "anonymous": false,
      "inputs": [
        {
          "indexed": true,
          "internalType": "address",
          "name": "previousOwner",
          "type": "address"
        },
        {
          "indexed": true,
          "internalType": "address",
          "name": "newOwner",
          "type": "address"
        }
      ],
      "name": "OwnershipTransferred",
      "type": "event"
    },
    {
      "inputs": [
        {
          "internalType": "uint256",
          "name": "tokenId",
          "type": "uint256"
        },
        {
          "components": [
            {
              "internalType": "uint256",
              "name": "amount",
              "type": "uint256"
            },
            {
              "internalType": "address",
              "name": "currency",
              "type": "address"
            },
            {
              "internalType": "address",
              "name": "bidder",
              "type": "address"
            },
            {
              "internalType": "address",
              "name": "recipient",
              "type": "address"
            }
          ],
          "internalType": "struct IMarket.Bid",
          "name": "expectedBid",
          "type": "tuple"
        }
      ],
      "name": "acceptBid",
      "outputs": [],
      "stateMutability": "nonpayable",
      "type": "function"
    },
    {
      "inputs": [
        {
          "internalType": "uint256",
          "name": "tokenId",
          "type": "uint256"
        },
        {
          "internalType": "address",
          "name": "bidder",
          "type": "address"
        }
      ],
      "name": "bidForTokenBidder",
      "outputs": [
        {
          "components": [
            {
              "internalType": "uint256",
              "name": "amount",
              "type": "uint256"
            },
            {
              "internalType": "address",
              "name": "currency",
              "type": "address"
            },
            {
              "internalType": "address",
              "name": "bidder",
              "type": "address"
            },
            {
              "internalType": "address",
              "name": "recipient",
              "type": "address"
            }
          ],
          "internalType": "struct IMarket.Bid",
          "name": "",
          "type": "tuple"
        }
      ],
      "stateMutability": "view",
      "type": "function"
    },
    {
      "inputs": [
        {
          "internalType": "uint256",
          "name": "tokenId",
          "type": "uint256"
        }
      ],
      "name": "bidSharesForToken",
      "outputs": [
        {
          "components": [
            {
              "components": [
                {
                  "internalType": "uint256",
                  "name": "value",
                  "type": "uint256"
                }
              ],
              "internalType": "struct Decimal.D256",
              "name": "creator",
              "type": "tuple"
            },
            {
              "components": [
                {
                  "internalType": "uint256",
                  "name": "value",
                  "type": "uint256"
                }
              ],
              "internalType": "struct Decimal.D256",
              "name": "owner",
              "type": "tuple"
            }
          ],
          "internalType": "struct IMarket.BidShares",
          "name": "",
          "type": "tuple"
        }
      ],
      "stateMutability": "view",
      "type": "function"
    },
    {
      "inputs": [
        {
          "internalType": "address",
          "name": "mediaContractAddress",
          "type": "address"
        }
      ],
      "name": "configure",
      "outputs": [],
      "stateMutability": "nonpayable",
      "type": "function"
    },
    {
      "inputs": [
        {
          "internalType": "uint256",
          "name": "tokenId",
          "type": "uint256"
        }
      ],
      "name": "currentAskForToken",
      "outputs": [
        {
          "components": [
            {
              "internalType": "uint256",
              "name": "amount",
              "type": "uint256"
            },
            {
              "internalType": "address",
              "name": "currency",
              "type": "address"
            }
          ],
          "internalType": "struct IMarket.Ask",
          "name": "",
          "type": "tuple"
        }
      ],
      "stateMutability": "view",
      "type": "function"
    },
    {
      "inputs": [
        {
          "internalType": "uint256",
          "name": "tokenId",
          "type": "uint256"
        },
        {
          "internalType": "uint256",
          "name": "bidAmount",
          "type": "uint256"
        }
      ],
      "name": "isValidBid",
      "outputs": [
        {
          "internalType": "bool",
          "name": "",
          "type": "bool"
        }
      ],
      "stateMutability": "view",
      "type": "function"
    },
    {
      "inputs": [
        {
          "components": [
            {
              "components": [
                {
                  "internalType": "uint256",
                  "name": "value",
                  "type": "uint256"
                }
              ],
              "internalType": "struct Decimal.D256",
              "name": "creator",
              "type": "tuple"
            },
            {
              "components": [
                {
                  "internalType": "uint256",
                  "name": "value",
                  "type": "uint256"
                }
              ],
              "internalType": "struct Decimal.D256",
              "name": "owner",
              "type": "tuple"
            }
          ],
          "internalType": "struct IMarket.BidShares",
          "name": "bidShares",
          "type": "tuple"
        }
      ],
      "name": "isValidBidShares",
      "outputs": [
        {
          "internalType": "bool",
          "name": "",
          "type": "bool"
        }
      ],
      "stateMutability": "pure",
      "type": "function"
    },
    {
      "inputs": [],
      "name": "mediaContract",
      "outputs": [
        {
          "internalType": "address",
          "name": "",
          "type": "address"
        }
      ],
      "stateMutability": "view",
      "type": "function"
    },
    {
      "inputs": [
        {
          "internalType": "uint256",
          "name": "tokenId",
          "type": "uint256"
        }
      ],
      "name": "minterForToken",
      "outputs": [
        {
          "internalType": "address",
          "name": "",
          "type": "address"
        }
      ],
      "stateMutability": "view",
      "type": "function"
    },
    {
      "inputs": [],
      "name": "owner",
      "outputs": [
        {
          "internalType": "address",
          "name": "",
          "type": "address"
        }
      ],
      "stateMutability": "view",
      "type": "function"
    },
    {
      "inputs": [
        {
          "internalType": "uint256",
          "name": "tokenId",
          "type": "uint256"
        }
      ],
      "name": "removeAsk",
      "outputs": [],
      "stateMutability": "nonpayable",
      "type": "function"
    },
    {
      "inputs": [
        {
          "internalType": "uint256",
          "name": "tokenId",
          "type": "uint256"
        },
        {
          "internalType": "address",
          "name": "bidder",
          "type": "address"
        }
      ],
      "name": "removeBid",
      "outputs": [],
      "stateMutability": "nonpayable",
      "type": "function"
    },
    {
      "inputs": [],
      "name": "renounceOwnership",
      "outputs": [],
      "stateMutability": "nonpayable",
      "type": "function"
    },
    {
      "inputs": [
        {
          "internalType": "uint256",
          "name": "tokenId",
          "type": "uint256"
        },
        {
          "components": [
            {
              "internalType": "uint256",
              "name": "amount",
              "type": "uint256"
            },
            {
              "internalType": "address",
              "name": "currency",
              "type": "address"
            }
          ],
          "internalType": "struct IMarket.Ask",
          "name": "ask",
          "type": "tuple"
        }
      ],
      "name": "setAsk",
      "outputs": [],
      "stateMutability": "nonpayable",
      "type": "function"
    },
    {
      "inputs": [
        {
          "internalType": "uint256",
          "name": "tokenId",
          "type": "uint256"
        },
        {
          "components": [
            {
              "internalType": "uint256",
              "name": "amount",
              "type": "uint256"
            },
            {
              "internalType": "address",
              "name": "currency",
              "type": "address"
            },
            {
              "internalType": "address",
              "name": "bidder",
              "type": "address"
            },
            {
              "internalType": "address",
              "name": "recipient",
              "type": "address"
            }
          ],
          "internalType": "struct IMarket.Bid",
          "name": "bid",
          "type": "tuple"
        },
        {
          "internalType": "address",
          "name": "spender",
          "type": "address"
        }
      ],
      "name": "setBid",
      "outputs": [],
      "stateMutability": "nonpayable",
      "type": "function"
    },
    {
      "inputs": [
        {
          "internalType": "uint256",
          "name": "tokenId",
          "type": "uint256"
        },
        {
          "components": [
            {
              "components": [
                {
                  "internalType": "uint256",
                  "name": "value",
                  "type": "uint256"
                }
              ],
              "internalType": "struct Decimal.D256",
              "name": "creator",
              "type": "tuple"
            },
            {
              "components": [
                {
                  "internalType": "uint256",
                  "name": "value",
                  "type": "uint256"
                }
              ],
              "internalType": "struct Decimal.D256",
              "name": "owner",
              "type": "tuple"
            }
          ],
          "internalType": "struct IMarket.BidShares",
          "name": "bidShares",
          "type": "tuple"
        }
      ],
      "name": "setBidShares",
      "outputs": [],
      "stateMutability": "nonpayable",
      "type": "function"
    },
    {
      "inputs": [
        {
          "internalType": "uint256",
          "name": "tokenId",
          "type": "uint256"
        },
        {
          "internalType": "address",
          "name": "minter",
          "type": "address"
        }
      ],
      "name": "setMinter",
      "outputs": [],
      "stateMutability": "nonpayable",
      "type": "function"
    },
    {
      "inputs": [
        {
          "components": [
            {
              "internalType": "uint256",
              "name": "value",
              "type": "uint256"
            }
          ],
          "internalType": "struct Decimal.D256",
          "name": "sharePercentage",
          "type": "tuple"
        },
        {
          "internalType": "uint256",
          "name": "amount",
          "type": "uint256"
        }
      ],
      "name": "splitShare",
      "outputs": [
        {
          "internalType": "uint256",
          "name": "",
          "type": "uint256"
        }
      ],
      "stateMutability": "pure",
      "type": "function"
    },
    {
      "inputs": [
        {
          "internalType": "address",
          "name": "newOwner",
          "type": "address"
        }
      ],
      "name": "transferOwnership",
      "outputs": [],
      "stateMutability": "nonpayable",
      "type": "function"
    }
  ],
  "bytecode": "0x608060405234801561001057600080fd5b50600061001b61006a565b600080546001600160a01b0319166001600160a01b0383169081178255604051929350917f8be0079c531659141344cd1fd0a4f28419497f9722a3daafe3b4186f6b6457e0908290a35061006e565b3390565b6121bc8061007d6000396000f3fe608060405234801561001057600080fd5b50600436106101215760003560e01c806385100850116100ad578063b920c12311610071578063b920c1231461024e578063d56293711461026e578063f2fde38b14610281578063f9ce058214610294578063f9d222bf146102b457610121565b806385100850146101ed5780638da5cb5b14610200578063a048046b14610208578063ad827dc41461021b578063af589a921461023b57610121565b8063578064f6116100f4578063578064f61461018c57806362f24b70146101ac578063715018a6146101bf57806375cb2672146101c7578063776a0835146101da57610121565b806302e8fe131461012657806328220f351461014f5780633b0352e4146101645780634e21f9c014610177575b600080fd5b610139610134366004611bf7565b6102c7565b6040516101469190611c2c565b60405180910390f35b61016261015d366004611a26565b61033d565b005b610162610172366004611af3565b6103d5565b61017f610482565b6040516101469190611c18565b61019f61019a366004611a26565b610491565b6040516101469190611ffc565b6101626101ba366004611a85565b6104cf565b61016261058f565b6101626101d53660046119a9565b61064d565b6101626101e8366004611a56565b6106f6565b6101626101fb366004611b1f565b61080d565b61017f610986565b610162610216366004611a56565b610995565b61022e610229366004611a56565b610a18565b6040516101469190612068565b6101396102493660046119e1565b610a79565b61026161025c3660046119fc565b610aa7565b60405161014691906120dd565b61017f61027c366004611a26565b610ac5565b61016261028f3660046119a9565b610ae0565b6102a76102a2366004611a26565b610bf4565b604051610146919061203a565b6101626102c2366004611b55565b610c3b565b6000806102d384610bf4565b90506102de81610a79565b6103035760405162461bcd60e51b81526004016102fa90611ee7565b60405180910390fd5b8215801590610333575061033061031e826020015185610aa7565b825161032a9086610aa7565b90610fcf565b83145b9150505b92915050565b6001546001600160a01b031633146103675760405162461bcd60e51b81526004016102fa90611eb0565b807fbf58f6d6c7d7c6efc69e7444efa93ed26d7cdc0e82e12a37df96f36a367561df600460008481526020019081526020016000206040516103a9919061201c565b60405180910390a2600090815260046020526040812090815560010180546001600160a01b0319169055565b6001546001600160a01b031633146103ff5760405162461bcd60e51b81526004016102fa90611eb0565b61040881610a79565b6104245760405162461bcd60e51b81526004016102fa90611c37565b600082815260036020908152604091829020835151815590830151516001909101555182907f30752634c4278c3dd1a93f0638f727c03210e52d9f7acf5a93d7a463a437b96f9061047690849061203a565b60405180910390a25050565b6001546001600160a01b031681565b610499611894565b50600081815260046020908152604091829020825180840190935280548352600101546001600160a01b0316908201525b919050565b6001546001600160a01b031633146104f95760405162461bcd60e51b81526004016102fa90611eb0565b6105078282600001516102c7565b6105235760405162461bcd60e51b81526004016102fa90611d53565b6000828152600460209081526040918290208351815590830151600190910180546001600160a01b0319166001600160a01b039092169190911790555182907ff7347cb9e91d8cbe995b51920ba5f92cbf84a9e09cbed3cd7a739fef4d1d07cf90610476908490611ffc565b610597611029565b6001600160a01b03166105a8610986565b6001600160a01b031614610603576040805162461bcd60e51b815260206004820181905260248201527f4f776e61626c653a2063616c6c6572206973206e6f7420746865206f776e6572604482015290519081900360640190fd5b600080546040516001600160a01b03909116907f8be0079c531659141344cd1fd0a4f28419497f9722a3daafe3b4186f6b6457e0908390a3600080546001600160a01b0319169055565b610655610986565b6001600160a01b0316336001600160a01b0316146106855760405162461bcd60e51b81526004016102fa90611e4d565b6001546001600160a01b0316156106ae5760405162461bcd60e51b81526004016102fa90611f2b565b6001600160a01b0381166106d45760405162461bcd60e51b81526004016102fa90611fab565b600180546001600160a01b0319166001600160a01b0392909216919091179055565b6001546001600160a01b031633146107205760405162461bcd60e51b81526004016102fa90611eb0565b60008281526002602090815260408083206001600160a01b03808616855292529091208054600182015491929091168161076c5760405162461bcd60e51b81526004016102fa90611d9a565b6000819050857fa4fba658c185c033488d787705db1bdd0f9086411cff4c65c3a4a296b90a3227856040516107a191906120a4565b60405180910390a260008681526002602081815260408084206001600160a01b03808b168652925283209283556001830180546001600160a01b0319908116909155918301805483169055600390920180549091169055610805908216868561102d565b505050505050565b6001546001600160a01b031633146108375760405162461bcd60e51b81526004016102fa90611eb0565b60008281526002602052604080822090829061085990606086019086016119a9565b6001600160a01b039081168252602080830193909352604091820160002082516080810184528154808252600183015484169582019590955260028201548316938101939093526003015416606082015291506108c85760405162461bcd60e51b81526004016102fa90611e16565b805182351480156108fd57506108e460408301602084016119a9565b6001600160a01b031681602001516001600160a01b0316145b801561092d575061091460808301606084016119a9565b6001600160a01b031681606001516001600160a01b0316145b6109495760405162461bcd60e51b81526004016102fa90611e79565b6109578382600001516102c7565b6109735760405162461bcd60e51b81526004016102fa90611cca565b61098183826040015161107f565b505050565b6000546001600160a01b031690565b6001546001600160a01b031633146109bf5760405162461bcd60e51b81526004016102fa90611eb0565b6000828152600560205260409081902080546001600160a01b0319166001600160a01b0384161790555182907f8b1b79a7df5491e101d4b11703d60e3a3c9e54034e38f31eb8b48f4ce8d1be1790610476908490611c18565b610a206118ab565b5060009182526002602081815260408085206001600160a01b0394851686528252938490208451608081018652815481526001820154851692810192909252918201548316938101939093526003015416606082015290565b6000610a8e6064670de0b6b3a7640000611466565b602083015151835151610aa091610fcf565b1492915050565b6000610abe6064610ab884866114bf565b906114d8565b9392505050565b6000908152600560205260409020546001600160a01b031690565b610ae8611029565b6001600160a01b0316610af9610986565b6001600160a01b031614610b54576040805162461bcd60e51b815260206004820181905260248201527f4f776e61626c653a2063616c6c6572206973206e6f7420746865206f776e6572604482015290519081900360640190fd5b6001600160a01b038116610b995760405162461bcd60e51b81526004018080602001828103825260268152602001806121166026913960400191505060405180910390fd5b600080546040516001600160a01b03808516939216917f8be0079c531659141344cd1fd0a4f28419497f9722a3daafe3b4186f6b6457e091a3600080546001600160a01b0319166001600160a01b0392909216919091179055565b610bfc6118d2565b50600090815260036020908152604091829020825160608101845281548185019081528152835180840190945260019091015483529081019190915290565b6001546001600160a01b03163314610c655760405162461bcd60e51b81526004016102fa90611eb0565b60408201516001600160a01b0316610c8f5760405162461bcd60e51b81526004016102fa90611d11565b8151610cad5760405162461bcd60e51b81526004016102fa90611ddf565b60208201516001600160a01b0316610cd75760405162461bcd60e51b81526004016102fa90611c82565b60608201516001600160a01b0316610d015760405162461bcd60e51b81526004016102fa90611f62565b6000838152600260209081526040808320858201516001600160a01b031684529091529020805415610d3b57610d3b8484604001516106f6565b60208301516040516370a0823160e01b81526000906001600160a01b038316906370a0823190610d6f903090600401611c18565b60206040518083038186803b158015610d8757600080fd5b505afa158015610d9b573d6000803e3d6000fd5b505050506040513d601f19601f82011682018060405250810190610dbf9190611a3e565b8551909150610ddc906001600160a01b038416908690309061153f565b6040516370a0823160e01b81526000906001600160a01b038416906370a0823190610e0b903090600401611c18565b60206040518083038186803b158015610e2357600080fd5b505afa158015610e37573d6000803e3d6000fd5b505050506040513d601f19601f82011682018060405250810190610e5b9190611a3e565b90506040518060800160405280610e7b848461159f90919063ffffffff16565b81526020888101516001600160a01b03908116828401526040808b0180518316828601526060808d015184169581019590955260008d8152600280865283822092518516825291855282902086518155938601516001850180546001600160a01b03199081169286169290921790558683015191850180548216928516929092179091559490930151600390920180549094169116179091555187907f052a2ac8735c2598d4b9577adfefb5ea183768839cbd625b7162cadc6656cf0190610f44908990612068565b60405180910390a26000878152600460205260409020600101546001600160a01b031615801590610f985750600087815260046020908152604090912060010154908701516001600160a01b039081169116145b8015610fb35750600087815260046020526040902054865110155b15610fc657610fc687876040015161107f565b50505050505050565b600082820183811015610abe576040805162461bcd60e51b815260206004820152601b60248201527f536166654d6174683a206164646974696f6e206f766572666c6f770000000000604482015290519081900360640190fd5b3390565b604080516001600160a01b038416602482015260448082018490528251808303909101815260649091019091526020810180516001600160e01b031663a9059cbb60e01b1790526109819084906115fc565b60008281526002602081815260408084206001600160a01b0380871686529083528185208251608081018452815481526001808301548416828701908152968301548416828601526003928301549093166060820152888752908452828620945183519485019093529084015483528051909491926110fd91610aa7565b9050600061110c8260326114d8565b600088815260056020526040812054919250906001600160a01b03161561117e576111388360646114d8565b600089815260056020526040902054909150611161906001600160a01b0386811691168361102d565b600088815260056020526040902080546001600160a01b03191690555b60006111948261118e868661159f565b9061159f565b90506111b26111a1610986565b6001600160a01b038716908561102d565b6001546040516331a9108f60e11b8152611245916001600160a01b031690636352211e906111e4908d906004016120dd565b60206040518083038186803b1580156111fc57600080fd5b505afa158015611210573d6000803e3d6000fd5b505050506040513d601f19601f8201168201806040525081019061123491906119c5565b6001600160a01b038716908361102d565b60015460405163e0fd045f60e01b81526112f3916001600160a01b03169063e0fd045f90611277908d906004016120dd565b60206040518083038186803b15801561128f57600080fd5b505afa1580156112a3573d6000803e3d6000fd5b505050506040513d601f19601f820116820180604052508101906112c791906119c5565b60408051602081019091528854815289516112e29190610aa7565b6001600160a01b038816919061102d565b6001546060880151604051630f6b630f60e41b81526001600160a01b039092169163f6b630f091611329918d91906004016120e6565b600060405180830381600087803b15801561134357600080fd5b505af1158015611357573d6000803e3d6000fd5b5050604080516020808201835260008e8152600390915291909120549092508291506113909061118e6064670de0b6b3a7640000611466565b90525160018088019190915560008a81526002602081815260408084206001600160a01b038e16855290915280832092835592820180546001600160a01b03199081169091559082018054821690556003909101805490911690555189907f30752634c4278c3dd1a93f0638f727c03210e52d9f7acf5a93d7a463a437b96f9061141b908990612053565b60405180910390a2887f84c439af42eac0ba115357058fac2260108cb763cb2c9427b514e4d9fb984d94886040516114539190612068565b60405180910390a2505050505050505050565b60008261147557506000610337565b8282028284828161148257fe5b0414610abe5760405162461bcd60e51b815260040180806020018281038252602181526020018061213c6021913960400191505060405180910390fd5b8051600090610abe908490670de0b6b3a76400006116ad565b600080821161152e576040805162461bcd60e51b815260206004820152601a60248201527f536166654d6174683a206469766973696f6e206279207a65726f000000000000604482015290519081900360640190fd5b81838161153757fe5b049392505050565b604080516001600160a01b0380861660248301528416604482015260648082018490528251808303909101815260849091019091526020810180516001600160e01b03166323b872dd60e01b1790526115999085906115fc565b50505050565b6000828211156115f6576040805162461bcd60e51b815260206004820152601e60248201527f536166654d6174683a207375627472616374696f6e206f766572666c6f770000604482015290519081900360640190fd5b50900390565b6000611651826040518060400160405280602081526020017f5361666545524332303a206c6f772d6c6576656c2063616c6c206661696c6564815250856001600160a01b03166116c59092919063ffffffff16565b8051909150156109815780806020019051602081101561167057600080fd5b50516109815760405162461bcd60e51b815260040180806020018281038252602a81526020018061215d602a913960400191505060405180910390fd5b60006116bd82610ab88686611466565b949350505050565b60606116bd8484600085856116d9856117ea565b61172a576040805162461bcd60e51b815260206004820152601d60248201527f416464726573733a2063616c6c20746f206e6f6e2d636f6e7472616374000000604482015290519081900360640190fd5b600080866001600160a01b031685876040518082805190602001908083835b602083106117685780518252601f199092019160209182019101611749565b6001836020036101000a03801982511681845116808217855250505050505090500191505060006040518083038185875af1925050503d80600081146117ca576040519150601f19603f3d011682016040523d82523d6000602084013e6117cf565b606091505b50915091506117df8282866117f0565b979650505050505050565b3b151590565b606083156117ff575081610abe565b82511561180f5782518084602001fd5b8160405162461bcd60e51b81526004018080602001828103825283818151815260200191508051906020019080838360005b83811015611859578181015183820152602001611841565b50505050905090810190601f1680156118865780820380516001836020036101000a031916815260200191505b509250505060405180910390fd5b604080518082019091526000808252602082015290565b60408051608081018252600080825260208201819052918101829052606081019190915290565b60405180604001604052806118e56118f7565b81526020016118f26118f7565b905290565b6040518060200160405280600081525090565b80356104ca816120fd565b600060408284031215611926578081fd5b6040516040810181811067ffffffffffffffff8211171561194357fe5b604052905080611953848461196e565b8152611962846020850161196e565b60208201525092915050565b60006020828403121561197f578081fd5b6040516020810181811067ffffffffffffffff8211171561199c57fe5b6040529135825250919050565b6000602082840312156119ba578081fd5b8135610abe816120fd565b6000602082840312156119d6578081fd5b8151610abe816120fd565b6000604082840312156119f2578081fd5b610abe8383611915565b60008060408385031215611a0e578081fd5b611a18848461196e565b946020939093013593505050565b600060208284031215611a37578081fd5b5035919050565b600060208284031215611a4f578081fd5b5051919050565b60008060408385031215611a68578182fd5b823591506020830135611a7a816120fd565b809150509250929050565b6000808284036060811215611a98578283fd5b833592506040601f1982011215611aad578182fd5b506040516040810181811067ffffffffffffffff82111715611acb57fe5b604090815260208501358252840135611ae3816120fd565b6020820152919491935090915050565b60008060608385031215611b05578182fd5b82359150611b168460208501611915565b90509250929050565b60008082840360a0811215611b32578283fd5b833592506080601f1982011215611b47578182fd5b506020830190509250929050565b600080600083850360c0811215611b6a578182fd5b843593506080601f1982011215611b7f578182fd5b506040516080810181811067ffffffffffffffff82111715611b9d57fe5b604090815260208601358252850135611bb5816120fd565b60208201526060850135611bc8816120fd565b60408201526080850135611bdb816120fd565b60608201529150611bee60a0850161190a565b90509250925092565b60008060408385031215611c09578182fd5b50508035926020909101359150565b6001600160a01b0391909116815260200190565b901515815260200190565b6020808252602b908201527f4d61726b65743a20496e76616c696420626964207368617265732c206d75737460408201526a02073756d20746f203130360ac1b606082015260800190565b60208082526028908201527f4d61726b65743a206269642063757272656e63792063616e6e6f742062652030604082015267206164647265737360c01b606082015260800190565b60208082526027908201527f4d61726b65743a2042696420696e76616c696420666f722073686172652073706040820152666c697474696e6760c81b606082015260800190565b60208082526022908201527f4d61726b65743a206269646465722063616e6e6f742062652030206164647265604082015261737360f01b606082015260800190565b60208082526027908201527f4d61726b65743a2041736b20696e76616c696420666f722073686172652073706040820152666c697474696e6760c81b606082015260800190565b60208082526025908201527f4d61726b65743a2063616e6e6f742072656d6f76652062696420616d6f756e746040820152640206f6620360dc1b606082015260800190565b6020808252601e908201527f4d61726b65743a2063616e6e6f742062696420616d6f756e74206f6620300000604082015260600190565b6020808252601e908201527f4d61726b65743a2063616e6e6f742061636365707420626964206f6620300000604082015260600190565b60208082526012908201527126b0b935b2ba1d1027b7363c9037bbb732b960711b604082015260600190565b6020808252601d908201527f4d61726b65743a20556e65787065637465642062696420666f756e642e000000604082015260600190565b6020808252601b908201527f4d61726b65743a204f6e6c79206d6564696120636f6e74726163740000000000604082015260600190565b60208082526024908201527f4d61726b65743a20496e76616c6964206269642073686172657320666f72207460408201526337b5b2b760e11b606082015260800190565b6020808252601a908201527f4d61726b65743a20416c726561647920636f6e66696775726564000000000000604082015260600190565b60208082526029908201527f4d61726b65743a2062696420726563697069656e742063616e6e6f742062652060408201526830206164647265737360b81b606082015260800190565b60208082526031908201527f4d61726b65743a2063616e6e6f7420736574206d6564696120636f6e7472616360408201527074206173207a65726f206164647265737360781b606082015260800190565b815181526020918201516001600160a01b03169181019190915260400190565b815481526001909101546001600160a01b0316602082015260400190565b8151518152602091820151519181019190915260400190565b81548152600190910154602082015260400190565b815181526020808301516001600160a01b0390811691830191909152604080840151821690830152606092830151169181019190915260800190565b8154815260018201546001600160a01b039081166020830152600283015481166040830152600390920154909116606082015260800190565b90815260200190565b9182526001600160a01b0316602082015260400190565b6001600160a01b038116811461211257600080fd5b5056fe4f776e61626c653a206e6577206f776e657220697320746865207a65726f2061646472657373536166654d6174683a206d756c7469706c69636174696f6e206f766572666c6f775361666545524332303a204552433230206f7065726174696f6e20646964206e6f742073756363656564a2646970667358221220669055ba419623a72bd42dd111d6b1ebc9adf09a285e4f66d03e9eb39ea2f2db64736f6c63430007060033",
  "linkReferences": {},
  "deployedLinkReferences": {}
}